:020000021000EC
:1060000000400020FF600100D5600100D760010062
:106010000000000000000000000000000000000080
:10602000000000000000000000000000D960010036
:1060300000000000000000006D980100000000005A
:10604000DB600100DB600100DB600100DB60010060
:10605000DB60010000000000DB600100C1AF010057
:10606000DB600100DB600100DB600100DB60010040
:10607000DB600100DB600100DB600100DB60010030
:10608000DB600100B1980100DB600100DB60010012
:10609000DB600100CDD301006DCF0100DB600100AA
:1060A000DB600100DB600100000000000000000078
:1060B00000000000000000000000000000000000E0
:1060C000D81E02000020002024000000282000200C
:1060D000C41A0000FEE7FEE7FEE7FEE7002310B566
:1060E000934203D21C585C500433F9E710BD0023DF
:1060F0008B4203D200221A500433F9E77047802301
:1061000003221149DB0510B55A501049104C5A5062
:10611000104B9C4206D220686168A268FFF7DEFF40
:106120000C34F5E70C4B9C4205D220686168FFF700
:10613000DEFF0834F6E700F0D3FC00F01FFD0AF0A4
:106140006FFB00F02DFDFEE7240500005405000064
:10615000C0600100CC600100D4600100002307B5DD
:106160000B496A460093019302F0B2F800280DD063
:10617000009A084B0A2A01D00B2A05D1093A1A7055
:10618000019A054B1A6001E003221A700EBDC04649
:106190003A0C0200002000202820002010B543788F
:1061A00090B00478012B16D164B2811C221C05A882
:1061B00003F08CFA01A805A9221C01F01BFD0021A7
:1061C00018220AA803F092FA044B01A804490AAA6B
:1061D0000E9302F07DF810B010BDC0465D61010065
:1061E000720B0200F0B5374E97B03368071C01916F
:1061F0000292002B04D18020400000F0BDFA3060F4
:106200008022314D04AC31685200201C02F05CF950
:106210002B1C07CC07C30FA806CC06C300211C22E9
:1062200003F064FA019B281C0F930B231093013B8E
:1062300011931393029B25490FAA149302F0D6FBE6
:1062400000283CD0EC681221E0B2113007F090FE3B
:106250006B4601901B79E0B21221039307F07EFE9A
:106260000025CBB20293039AEBB2934227D2019B53
:106270001224013B5B1B5A425341DBB2002B03D07B
:10628000029A002A00D0141C12211A200AAE737040
:1062900069430C4B221C1B683470591804ABC0189E
:1062A00003F014FA3B68A21CDB69381C9C460123EE
:1062B000311C5B42E047013401358442D3DB17B027
:1062C000F0BDC046402000202C2000209E0C020083
:1062D00030B50024FDB052A804F046F8231C211C60
:1062E000221C00940194029452A803F07FFF03F053
:1062F000E3FF7C490278112000F09DFCFA23051C85
:106300001B01794A291C01930094784B6DA804F075
:1063100085F9211C6DA804F0DBF9281C00F030FA87
:10632000102303250193703300950393049352A91E
:106330006F4A7F3B02942DA804F0FEFB6D4B221C9C
:10634000009301956C4B52A90294039412A803F098
:10635000BFFD592153A803F0ACFB2D9B2DA85B6911
:1063600098472D9B051C9B692DA89847291C021C4A
:1063700053A803F0B1FB211C53A803F0DFFB5B49DA
:1063800053A803F094FB53A803F020FC122108A8A3
:1063900005F01AF913210AA805F016F908A8211C1E
:1063A000012205F08FF8211C01220AA805F08AF8C5
:1063B00004F0D4FD201C04F079FD022004F098FDC7
:1063C000022004F00DFE01211E2216A800F0D2F8D2
:1063D00016A800F02BF90CA806F01AFA0EA806F081
:1063E00017FA2DA804F05CFA011E5FD036A805F05C
:1063F00011FB83B2051C002B0AD01A1C01231DA916
:1064000036A85B4205F0B4FB69B21DA8FFF7C6FED3
:106410000EA806F0E9F9FA239B00984249D90EA884
:1064200006F0DCF9354B1A78354B012A1DD11B6873
:10643000002B02D11C98334911E0052B26DC324A8F
:106440001E24D318587804F077FD01216C4449428A
:10645000201C04F0F1FD208808F056FD2B4908F0BF
:1064600083FA07F0FBFE84B210E0196810A8C9B2E5
:1064700005F0AAF810A80321002205F08BF810A857
:1064800005F066F884B210A805F0E0F8FA2136A805
:10649000490005F0DDFB00F0A3FB221C011C36A81F
:1064A000FFF7A0FE0AA805F05FF802E00AA805F0D1
:1064B0003FF80CA806F098F9FA235B0098420CD933
:1064C0000CA806F08BF908A805F042F8411E481EFA
:1064D000814108A8C9B205F02BF812A803F0B6FD57
:1064E0007FE7C046F00902000000A04100004842DA
:1064F000FD09020030750000881300000020002014
:106500002820002000007A440D0A0200AE476140B6
:1065100008B50648064900F06FF9D422054B520031
:1065200009201A6003F03EFE08BDC046442000204A
:10653000101700000420002082B00190C046C04621
:10654000C046C046C046C046C046C046C046C0461B
:10655000C046C046C046C046019B013B0193002B8C
:10656000ECD102B070470120704701207047012034
:106570007047704770B5041C0E1C151C04F08EFF8C
:1065800000220849131C201C043106F0BBF8064BFE
:10659000657518332360054B201C9B5D2375002314
:1065A000A36170BDA80E0200500E0200B80E0200DA
:1065B00038B5041C0D1E01D1136801E0114B1833CE
:1065C000002123608D4201D1183B19686118002D0C
:1065D00001D1D36801E00B4B18330B60002D00D0C4
:1065E000094A111D201C06F04BF8AB0702D5201CF0
:1065F00004F04DFFEB0702D5201C00F0CDF8201C65
:1066000038BDC046500E0200A80E020008B5022197
:106610000022FFF7CDFF08BD10B5041CFFF7F6FF01
:10662000201C00F0B9F8201C10BD000038B503682C
:10663000041C1B6A98472268031E03D09369201C20
:10664000984704E01569201C01494822A84738BD35
:106650009C0E0200F0B58BB0417D041C02A804F032
:10666000B3FF3849384A04A8384B04F04FFD0121E4
:1066700002A80A1C04F026FF2368201CDB6A984746
:10668000002854D0002102A804F052FF8C204000C2
:10669000FFF752FF207D04F04FFC6B4601219D1D4A
:1066A0004942281C04F0C8FC2820FFF745FF02A837
:1066B000012104F03DFF288809F042FF0022244B0D
:1066C00009F0F4F80022234B09F0F0F8002200232F
:1066D00008F0AAFC09F0F6FF051C09F09FFF1E4A0E
:1066E0001E4B061C0F1C07F061FD00281BD0301C40
:1066F000391C194A1A4B07F063FD002813D01949B9
:10670000281C08F031F9184907F03CFF09F086FF12
:10671000164A174B09F064FB09F0D4FF011C04A8CA
:1067200004F0B2FCA061642000F056FAA4E7114B1B
:1067300004A8049304F0ABFE02A804F087FF0BB09A
:10674000F0BDC0460000204117B7D138CDCC4C3D3C
:10675000000014400000603F37894160E5D0F23FFF
:10676000E5D0E23F0000C04000000C429A999999A0
:106770009999B93FF816020008B502F083FF08BDE9
:1067800008B502F08BFF08BD08B502F07BFF08BD1D
:1067900008B502F077FF08BD08B502F07FFF08BD1D
:1067A00000207047FEE74268002A0DD09368190365
:1067B000090F09D181689BB20C31CB1883605368F3
:1067C000002B00D0186043607047031C081C1A8916
:1067D0000C300C3A1818521A82605A6803604260F2
:1067E0005A68002A00D010608022520289B21143F8
:1067F0005860996070470000174B70B5174A1C68C5
:10680000174B944202D01A68002A23DC1A68032A24
:1068100020DC0C221D68134C554328511D684E1E68
:106820005543651969601D68301855436519A8609E
:1068300018680C395043005989B281601968514376
:1068400008590021016018684243125951601A68C2
:1068500001321A6070BDC046FC0F000000E7A89529
:106860005437002058370020002310B50A4A126818
:1068700093420BDA0C225A4308495458844203D8F5
:106880008A189268904204D30133EFE70120404216
:1068900000E0181C10BDC0465437002058370020B7
:1068A00010B5031E34D01C1CFFF7DEFFA368C00F19
:1068B0009A0701D002221043216800290BD04A68B0
:1068C000A24201D0042210430A898A180C32944251
:1068D00001D00822104362681B04002A0BD0116803
:1068E000A14201D0102108431B0C0C33E3189A423B
:1068F0000ED020230BE00C22424306491B0C8A18C1
:1069000092680C33E3180132934201D040231843BC
:1069100010BDC0465837002010B5041E2BD00323ED
:106920000022C11C9943154B1B689A4222DA0C23A2
:10693000534313481C58002C1AD0A3681803000FA7
:1069400014D198B2884211D90A1C1832904203D34C
:10695000201CFFF73AFF03E0802252021343A3609A
:10696000A3681B031B0BA3600C3404E06468E2E71C
:106970000132D8E70024201C10BDC0465437002047
:106980005837002010B5002825D00C38041CFFF71C
:106990006BFF00281FDB104B1B6898421BDA201C82
:1069A000FFF77EFF002816D12389A3602068002806
:1069B0000ED083681B031B0F0AD1FFF7F4FE246877
:1069C000F4E79B681B031B0F05D1201CFFF7EBFEB0
:1069D0006368002BF5D110BD54370020002310B59B
:1069E000934203D0CC5CC4540133F9E710BD70B5B9
:1069F000051C0C1E11D0061C03230C3E05349C43C1
:106A000033899C420ED9201CFFF786FF041E1FD03D
:106A1000B268291C92B2FFF7E1FF281CFFF7B2FF12
:106A2000201C15E0301CFFF71FFF221C3389183291
:106A30009A420CD2301C211CFFF7C7FE4368002B82
:106A400005D09B681B031B0F01D1FFF7ACFE281C70
:106A500070BD002A02D0013A8154FAE770470C3821
:106A6000806880B270470000F8B50024A04231D0A1
:106A7000061C271C184B1B689F422BDA0C237B43F8
:106A8000164A9D58002D23D00F22AB68190C1140D7
:106A900001291BD1190DB14218D128689BB2AB60F6
:106AA000E418002807D083681B0C134203D1FFF7BA
:106AB0007AFE2D680C346B68002B07D09B681B0393
:106AC0001B0F03D1281CFFF76EFE0C346D68D9E74D
:106AD0000137CFE7201CF8BD54370020583700207D
:106AE0001B4A10B51378111C012B19D1194B1B68C7
:106AF0001B0715D1184BE0241A68F023101C18400E
:106B000022420BD1154A12681A4209D1144A154B78
:106B10001A608022144B12021A6001E03028F1D072
:106B20000B68DBB2012B12D10A4A126812070ED190
:106B3000F021094A12680A40402A08D1074A12681F
:106B40000A4204D1C1228021D200C9058B5010BD58
:106B5000E00F00F0E40F00F0E80F00F0EC0F00F0A1
:106B6000DFFF07C004050040186C004008B5FFF7C0
:106B7000AFFB002002F076F908BD000008B5FFF772
:106B8000C7FC80235B05DA6DF0231340802B04D112
:106B900080210248C901FFF72FFE08BD00400020F8
:106BA00007B5E023A0220849DB00D205D150074BEE
:106BB00007491A68002392B200930193054802F036
:106BC0007FF802F03BFA07BD0C0003000420002010
:106BD000BF0E02006D6B010008B502F079FB08BD25
:106BE00008B502F059FA08BD70B5041C02F0D8FCD3
:106BF000061C0120002E0DD0356B281CFFF72FFF3F
:106C0000326B031C0020A24204D8013DED18AC42B7
:106C1000A441604270BD002230B5CB0F5B185B1001
:106C2000411801399A4205DA845C0D7885540C705C
:106C30000132F6E730BD0EB477B507AB40CB051C8B
:106C4000019302F01FFD041E04D0291C321C019B7D
:106C500006F03EF8201C7EBC08BC03B0184772DF6B
:106C6000704779DF70477DDF704765DF7047F0B5AB
:106C70000024061C251C87B00C9F00933B780391D1
:106C80000292019333889D423ADA7368A900591839
:106C9000042205A802F01AFD04AB05A8D91C0022A5
:106CA000FFF7E3FF002835D104ABDB78029A93426B
:106CB00022D16242624102993B78520059188A18E7
:106CC0001F2A1BDC002C07D169469A1C3A7001333D
:106CD000009A097BDBB2D15404ABDC1C3A78009BF0
:106CE00005A89A18211CFFF7C0FF002812D12378AD
:106CF00001243A78D3183B700135C3E70C2009E032
:106D00000020844206D03B78019A013B9B1A0199EE
:106D1000009A535407B0F0BDF7B5089E171C0096B3
:106D20000222051C1C1CFFF7A2FF002806D10096BA
:106D3000281C391C1022231CFFF799FFFEBD000000
:106D40000023F0B51370037889B0061C0D1C141CC9
:106D5000002B03D1B378002B4BD029E043780C20D3
:106D60001D2B00DD61E10E2704ABFF181D23881CDD
:106D7000391C3B80FFF777FF002800D055E13378BE
:106D8000022B03D13B8809221D2B08D97378002BD5
:106D900003D09BB208221D2B01D908223B88DBB20D
:106DA000591C29706A70227802329B182370D1E72F
:106DB00023780C201B2B00DD37E10E2704ABFF18D6
:106DC000381CFFF74EFF002800D02EE123785A1C14
:106DD00022700322EA5423785A1C22701922EA54A2
:106DE00023783A88EB181A70120A5A702378023303
:106DF0002370B388002B1FD0B2680720002A00D16F
:106E000013E122780530911CCB181F2B00DD0CE11B
:106E1000531C2370B3880133AB5423785A1C22705F
:106E20000122EA542078B2882818B16802F04EFC9A
:106E3000B2882378D3182370F368002B12D01A7805
:106E400023780C201C2B00DDEFE0591C217002215F
:106E5000E9542378591C21700A21E9542378591CDC
:106E60002170EA54338A002B03D1338B002B16D0C8
:106E70000AE0301C00941030022106222B1CFFF780
:106E80004BFF0028F1D0D0E0301C009418300321D3
:106E900007222B1CFFF740FF002800D0C5E0338CF1
:106EA000002B0AD0301C00942030142115222B1CFA
:106EB000FFF732FF002800D0B7E0B36A002B49D0BB
:106EC00022780C20049206321F2A00D9ADE01988DE
:106ED0000538052900D8A8E0554A564F8A1892B2BD
:106EE000BA4200D8A1E05A880392052A00D89CE053
:106EF0004F4FBC469444674602AA97819789BC4687
:106F00004C4FBC4500D890E04B4FB94205D0039A96
:106F1000BA4202D0914200D987E0049A0499013222
:106F2000227005226A542278511C21701221A95422
:106F300022781988AA181170090A51702278023231
:106F4000D2B222705988AB181970090A5970237887
:106F500002332370F76A002F29D03A792178931CE5
:106F6000881CDBB2C3180C201F2B5EDC4B1C0332C9
:106F700023706A5423785A1C2270FF22EA54237823
:106F80003A88EB181A70120A5A7023780233DBB26F
:106F90002370BA88002A0AD0B9680538002944D07D
:106FA000E81802F093FBBA882378D3182370331CB7
:106FB000343305931B78002B01D1002035E0336B6F
:106FC000002B31D000230493059B049A1B78934235
:106FD000F3D90C27049B22785F43336B511CDF19D4
:106FE0003B7921700333AB5423785A1C227016224C
:106FF000EA5423783A88EB181A70120A5A702078EB
:107000000230C0B22070BA88002A09D0B9680029BD
:107010000AD0281802F05AFBBA882378D3182370B4
:10702000049B0133DBB2CEE7072009B0F0BDC046B8
:107030007FF3FFFF7DF30000FFFF0000F0B593B08A
:107040006B466A469E1D0023D71D0D1C33703B7096
:1070500098420BD08388002B01D1072024E083685D
:10706000002BFAD01B785B07F7D50DE0041C002D30
:1070700003D0AB88002BF0D10EE02A1C31783B788E
:10708000201CFFF7ECFD0FE002A9321CFFF758FEB1
:1070900002AC0028EBD007E03A1C281C0AA9FFF735
:1070A0004FFE0AAA0028E9D013B0F0BD75DF704783
:1070B00076DF70477ADF70477BDF704713B5144B7C
:1070C00014495A880888144B144C90420CD84988AB
:1070D000914209D35B69002B03D0012201A8027001
:1070E00098470023237013BD2278002A05D05B69DE
:1070F000002BF6D001A80022F1E7094A1188094ABD
:10710000002901D15B6800E09B681360E9E7C04695
:10711000DC3A0020B83A0020C03A0020883700202E
:10712000E63A0020B43A002073B50021174B1960ED
:10713000174B1888174B984226D0174A174D1388BB
:107140002C1C01339BB213802E7B9E4208D3144922
:10715000FFF7ACFF002817D0AB69002B13D113E069
:1071600011802B7C002B08D03B21FFF7A1FF0028CA
:1071700003D0AB69002B00D098476369002B03D084
:10718000002201A80270984773BDC046B43A00209F
:10719000E43A0020FFFF0000E63A0020C03A002059
:1071A000B83A0020134938B5021C0B1C32CA32C34E
:1071B00032CA32C31268104C1A6000220F4B0168A9
:1071C0001A70201C914211D0083202F07FFA201C64
:1071D000FFF770FF00280CD101220020084B52421B
:1071E0001A80084B1880084B186002E0FFF764FF14
:1071F000F0E738BDC03A0020B83A002088370020B8
:10720000E43A0020E63A0020B43A00200020014B86
:1072100018607047B43A002008B50388112B1CD0C1
:10722000011C112B02D8102B05D035E0122B2CD0CD
:10723000502B1AD030E08288184B0E311A80184833
:10724000082202F043FA0023164A1380164A1360FC
:10725000164BDB89002B1FD11CE001220F4B524241
:107260001A8000230F4A13800CE0104AC088D2898C
:10727000904211D1CB8B022B0ED10131CA7F013B41
:10728000134007D1084A136006E00631044808227B
:1072900002F01CFAFFF712FF08BDC046E43A0020D6
:1072A000DC3A0020E63A0020B43A0020C03A002040
:1072B00021DF704720DF704737B5021C14200C4CCB
:1072C0002378584320180179C068092802D1094859
:1072D000056802E0084D0001455914204343E018B9
:1072E000E318DC880C3000945B69A84737BDC046C2
:1072F0008C3700202C380020A4370020F7B5664CCE
:107300001D1C2378071C002B06D1131C2B4301D115
:10731000023300E00123237023780320013B052B77
:1073200000D9B8E0181C00950E1C151C06F086FD4F
:10733000032333705D968023584A5B055169013100
:1073400005D05069196989B206F082FD00E05869DC
:10735000802252051369116912699BB2013889B202
:1073600092B2584371439208FFF7A2FF022300280C
:1073700000D18FE08FE0081CFFF79CFF002800D0B1
:1073800089E0002D2DD1009B002B26D13B78042BCA
:1073900021D1072322E080235B0519693F4A89B286
:1073A0004E43516901311ED05069196989B206F006
:1073B0004FFD80235B051969013889B241432A1CBE
:1073C000301CFFF775FF002865D1009B002B04D10E
:1073D0003B78042B1AD0052300E0042323700020FF
:1073E00059E0032356E05869E3E780235B051869F9
:1073F000910080B246437A88881992083969FFF76C
:1074000057FF002847D1009B1D43C2D00623E5E764
:1074100080235B051969950089B24E437A88B618B6
:1074200001921E4A76195169013106D050691969D5
:1074300089B206F00DFD411E01E059690139802332
:107440005B051B69019A9BB24B43AD18E918301CD0
:10745000009AFFF72DFF0028BAD01CE080230F4AC6
:107460005B055169013105D05069196989B206F08F
:10747000EFFC00E0586980225205136911699BB244
:107480000138584389B206F0E3FCFFF713FF0028E8
:1074900001D107232370FEBD3538002000100010F5
:1074A000F7B514243D4A13785C431419211C00934A
:1074B00023790831271D8D680192042B18D0052BE4
:1074C0004BD00F20022B67D1354B20891E88636972
:1074D000B602E2889919334B4019921B80199A42DF
:1074E00001D8920801E080225200FFF7E1FE4EE051
:1074F000802649682C4A0B01D31818895A895B6881
:107500007605AB4204D1131C4343E288934201D079
:1075100009290AD13169281C89B206F099FC204B4F
:107520001B88C018FFF7C6FE31E03169281C89B2FC
:1075300006F08EFC32693469431CA4B25C43142308
:1075400092B24243011C0098AA1A43430198920840
:10755000C318DB88EB18E31A15E08026760531693D
:10756000281C89B206F074FC011C32692389306939
:1075700092B25D194A434B1C86B25E43E388AA1A55
:107580005B199208F31A9B08381CFFF7B7FE002816
:1075900002D10123019A9370FEBDC0468C370020B2
:1075A00036380020FF030000A437002008B5064B42
:1075B0005B78002B01D1002005E0FFF771FF002868
:1075C000F9D01128F7D008BD8C370020F7B5364B1D
:1075D0009A781C1C002A66D00026344A9E701378C4
:1075E000171C082B06D1022801D1167045E0304B3C
:1075F0001E7042E0022803D0032854D10D2040E041
:1076000014212C4D20782A884143013292B22A80DD
:10761000611808790195022804D1CB8892029A4218
:1076200011DA2AE0052837D0042826D1D81F454290
:107630004541C988281C92028A4225DB0122002B81
:1076400022D1002823D00026301C3E70FFF734FEE4
:107650001423082022785343E3181E71DE80D8607B
:107660001E615E611E81019B1E806378013B637019
:10767000FF2A01D1267000E02270FFF797FF002853
:1076800011D0FFF719FE0EE0331C0022D9E7002AC3
:10769000D9D1002BD7D1F0E7073B5A425341301CD8
:1076A000002BF2D0CFE7F7BD8C3700203538002013
:1076B000343800203638002008B5002308211D4A40
:1076C00013801D4A13701D4A1370537053619370D9
:1076D0001371D380D16013611381194A1380802301
:1076E000184A5B055169013105D05069196989B2A1
:1076F00006F0AEFB00E0586980235B051B69093882
:107700009BB25843104A114B1860131C883208333F
:10771000191C0020083908601880988058801033A0
:107720009342F5D101220A4B18609880094B1A70D8
:1077300008BDC04636380020353800208C37002080
:107740002438002000100010A43700202838002022
:107750002C38002034380020F0B5484B87B01B7817
:107760000824002B00D185E00634002800D181E0F8
:10777000002900D17EE003680493002B00D179E05A
:1077800080235B051A69858892B2073C954271D8BF
:107790000F2D6FD9C2880192002A6BD0384A0F1C76
:1077A00012680292019A6A43161CB4460392029A26
:1077B00062440592334A5169013105D05069196913
:1077C00089B206F045FB00E0586980225205136932
:1077D00001389BB25843059B072483424AD813695A
:1077E00003999BB2994207DD1069291C80B206F00B
:1077F000B5FB89B200293DD1032307242B4039D1A1
:10780000214A033C1288082A34D002991F48796023
:10781000110144183A6025816D46029FAD8867606A
:107820006581049F164C0F502768009401908025B5
:107830006C466D0528690133208120899BB2864200
:1078400004D9286920812089361A00E000266C4678
:1078500028692D6920812089ADB284466744AE42F3
:10786000E5D20024009801320760019841188B810D
:10787000054B1A80201C07B0F0BDC04634380020EC
:10788000283800200010001024380020A4370020E1
:10789000064B1A780823002A06D00633002803D0A6
:1078A000034B5B7803600023181C704734380020BA
:1078B0008C37002010B54468A31843600023994218
:1078C00005D0934203D0E05CC8540133F9E70120AE
:1078D00010BD0000836810B5002B06D1C368002BD3
:1078E00000D10A4BC36000200EE0041C0122236873
:1078F0009847002805D1E368002B00D1044BE360D2
:1079000002E0A368013BA36010BDC046C40E0200A4
:10791000D20E0200F0B585B002ABDE1D0191311C24
:10792000071CFFF7D7FF041E21D033785AB2002A74
:1079300001DB00931DE07F22072513400093381CD4
:10794000311CFFF7C7FF002811D07F233278009940
:107950001340AB4052B2194300910735002A08DAB0
:10796000232DECD1FB68002B00D1054BFB600024DC
:1079700002E0019B009A1A60201C05B0F0BDC046D1
:10798000DB0E02000F2270B5456886B02B79041C0F
:107990001A40082A1DD103691C68002C5DD0002301
:1079A0002373236862689D686846291C05F0A0FD62
:1079B00063683F220493231C0C3305932B79934374
:1079C000802B01D1231D04936846FFF7DBFFA468D9
:1079D000E3E73F22191C91430A1E09D130211940C7
:1079E000102902D143691A700CE09B060AD506E003
:1079F000802932D1002201690A609B062DD5636976
:107A00001A602AE00F232879AA7D1840E97D6B7D52
:107A10002E7E072809D112020804134303433006BF
:107A20001843216900F01BF817E012021343090400
:107A30000B43AA7B31061943EE7B6B7B287C120239
:107A400013433204134302061A432069002902D06B
:107A500001F03CFE01E001F049FE06B070BD7FB5CB
:107A6000031C0A1C6846191C05F042FD002806D0BC
:107A70006846FFF787FF684605F06AFDF6E707B03E
:107A800000BD000030B5041C85B0151C002912D1C2
:107A9000164B02689A420ED0201C6946102D06D95A
:107AA0001022FFF7EFFF00281ED0103DF4E72A1C3C
:107AB000FFF7E8FF18E0A368AB4206D2E368002BAB
:107AC00000D10B4BE36000200EE0201C2A1C236831
:107AD0009847002805D1E368002B00D1054BE360EF
:107AE00002E0A3685D1BA56005B030BDB57801005C
:107AF000C40E0200D20E0200F7B50E1C01A9041C30
:107B0000151CFFF707FF00282ED0019A531C9C4636
:107B1000934204D2E368002B1CD1144B1AE03F219E
:107B200033798B43802B04D1E368002B12D1104BA7
:107B300010E0B17B777BF37B090239431B040B43D5
:107B4000191C337C1B060B439C4506D9E368002BAC
:107B500000D1084BE360002006E0201C291CFFF741
:107B600091FF0023019AAB54FEBDC046EB0E02000C
:107B7000FA0E02000C0F0200F7B50E1C01A9041C3E
:107B8000151CFFF7C7FE00282DD0019A131D9C4637
:107B90009A4204D9E368002B1DD1134B1BE03F210F
:107BA00033798B43802B04D1E368002B13D10F4B27
:107BB00011E0B07B777B0002011CF37B39431B048F
:107BC0000B43181C337C1B0603439C4506D9E36812
:107BD000002B00D1064BE360002004E0291C201C90
:107BE00004C1FFF74FFFFEBDEB0E0200FA0E0200CC
:107BF0001C0F0200034B4160036000238260C360DE
:107C00007047C046B5780100F0B50024051C0E1C75
:107C100087B00394019404ABDF1D281C391CFFF7C7
:107C200059FE029000281ED07F203F78019A3840EC
:107C3000002106F08FFA039B7FB20B430393019B55
:107C4000044307330193002F0ADA019B462BE2D14C
:107C5000EB68002B00D1054BEB600023029302E0A0
:107C6000039B34607360029807B0F0BDDB0E020026
:107C7000F7B50E1C6946041C151CFFF7C5FF00284C
:107C800034D0B27B777BF37B12023A431B0413435D
:107C90001A1C337C1B061343082B04D1009B019A4A
:107CA0002B606A6016E0042B02D1009B2B600AE077
:107CB000022B03D1009B2B809BB204E0012B04D14B
:107CC000009B2B70DBB2002204E0E368002B0BD199
:107CD000074B09E00099994202D1019B934205D0DC
:107CE000E368002B00D1034B0020E360FEBDC046DB
:107CF0002B0F02003D0F0200F7B50E1C6946041C55
:107D0000151CFFF781FF002833D0B27B777BF37B14
:107D100012023A431B0413431A1C337C1B06134301
:107D2000082B04D1009B019C2B606C6021E0009A21
:107D3000D117042B01D12A601BE0022B03D193B28F
:107D40002B801BB204E0012B06D1D3B22B705BB2A7
:107D5000DD17934207D104E0E368002B07D1054B00
:107D600005E08D4205D0E368002B00D1024B0020D6
:107D7000E360FEBD2B0F02003D0F0200F7B51E1C95
:107D800000230C1C33700B70136001A9071C151C19
:107D9000FFF7C0FD002806D1BB68002B0BD10123E3
:107DA0000020337007E0019A002AF8D0D3082B6036
:107DB000072313402370FEBD37B5031C052926D8C1
:107DC000081C1C1C06F03AF8060F1323231F2B78FF
:107DD0007F2B22D901AD201C291C0122FFF752FE66
:107DE0000028F4D119E0181C0021082208E0181C12
:107DF00001A9FFF78FFD00280FD0201C0021019A58
:107E0000FFF740FE09E0181C00210422F8E7DA68B9
:107E1000002A00D1014A0020DA603EBD4F0F020067
:107E2000F7B50D1C01A9041CFFF774FD002814D040
:107E30002B1C221CC2CAC2C312681A60019BAA680A
:107E40009A4206D2E368002B00D1044BE360002085
:107E500003E0AB60A268D31AA360FEBD610F02000D
:107E6000F0B55368151C1A798BB094463F226746CB
:107E7000041C9743402F00D1C5E0802F00D1BDE006
:107E8000002F00D01FE162460F201040924A86006A
:107E90000090B658604630220240102A08D002D81E
:107EA000002A08D00FE1202A0AD0302A74D00AE133
:107EB000012269690A70201C191C2A69B04708E16F
:107EC0006F6902293FD1009A042A3CD8201C06A9D8
:107ED000FFF7A6FF002800D1FBE0089B0093002BD2
:107EE00027D069683B688A7C9C464B7C12021A4307
:107EF000CB7C1B0413431A1C0B7D1B0613439C45B0
:107F000017D28B7B4A7B1B021343CA7B181C1204BB
:107F1000131C0A7C034312061A4363465A432B6917
:107F200006A89A18B047002804D03B6801333B608C
:107F3000D3E70120079B089A00936360099BE360E5
:107F4000002A1BD1C5E0997B5A7B09021143DA7BD9
:107F5000987C12040A43111C1A7C000212060A4380
:107F600039682D698C46597C0843D97C090408433B
:107F7000197D090601438C4505D3E368002B00D029
:107F8000A5E0564BA3E061460131396061464A43A2
:107F9000201CAA18191C91E759781A780902114374
:107FA0009A7812041143DA7812060A4369690A6062
:107FB000009A072A1FD1987B5A7B0002011C1143AB
:107FC000DA7B12040A43101C1A7C391C1206024385
:107FD000286901F08BFB6F68BB7D797DF87D1B0202
:107FE0000B4300041A1C031C387E1343000618437D
:107FF0002969FFF734FD201C69685EE7C368002B20
:1080000065D1374B63E02F693B1D00933B68002B24
:1080100002D1FFF7D1FE5CE002291AD106A9FFF7D1
:10802000FFFE002855D006A86968009A3B6898476B
:10803000002804D1E368002B09D12A4B07E0089BF4
:108040000193002BEFD1079B00936360099BE360D2
:108050003FE001291DD0002914D005291FD103A913
:108060000422FFF70FFD04261EE0201C191C01222C
:10807000FFF708FD00282BD0019B311C1B785BB259
:10808000002B13DA03AB5B184E1C01930B2EECD1C3
:108090001EE003A90822FFF7F5FC082604E0C368E8
:1080A000002B14D1104B12E0002812D00F4B089671
:1080B000069303AB0793002309933B6806A86968FE
:1080C000009A984705E0E368002B00D1084BE36075
:1080D00000200BB0F0BDC046DC0F0200790F02009B
:1080E000FA0E02009B0F02004F0F0200B57801004C
:1080F000880F0200F0B5002495B0051C08A806946E
:10810000079405F0F5F9AB68002B00D195E004ABBE
:108110009E1CDF1C281C311C05AA3B1CFFF72EFEF1
:10812000002804D13B78002B00D086E083E008A82B
:10813000059905F094FA002861D1059BA34258D314
:10814000099C0F23099802791340082B00D1AEE057
:1081500008A805F0FDF9099B0193A342F1D1012480
:108160006442059B0193A34243D3AB6802933378E7
:1081700003930C9B1E68AB68002E37D0029A9A427C
:1081800034D133681F68002F05D0281C311C019A98
:10819000039BB84726E09F687A783878BB7812024C
:1081A00002431B0413431A1CFB781B061343019A5A
:1081B000934219D172680EA8391C05F099F97368B9
:1081C0003F221293331C0C3313933B799343802B40
:1081D00001D1331D12930123281C337303990EAA76
:1081E000FFF73EFE002826D0B668C4E7029A9A42FE
:1081F00089D104AB9978281CFFF7DEFD18E0099BB4
:1082000001931A7930231A420DD10A993F290AD8CD
:108210001F224B090A40012191400A1C06A89B001D
:1082200019580A431A503178281C08AAFFF718FE7B
:10823000002800D067E7002046E0099B08A80193CA
:108240000A9C1E7905F084F90028F6D130231E42DD
:108250000ED1099F7A783E78BB78120232431B0414
:1082600013431A1CFB781B0613435A1E9341E41850
:10827000002C1AD00023660906AA9900B34204D044
:10828000525801320BD10133F6E71F231C40013352
:108290001C1B213BE3401C1C5358A34205D0EB6838
:1082A000002B00D1094BEB600EE001200CE043787D
:1082B000017884781B020B4324041A1C231CC47805
:1082C000134324061C434CE715B0F0BDAB0F02006E
:1082D00070B5061C0D1C141C081C111CFFF7BFFBFD
:1082E000301C291C221CFFF705FF70BDF0B50C1CCB
:1082F000A37D497DE57D1B020B432D04171C1A1C31
:108300002B1C257E87B013432D0602A9061C1D4396
:10831000FFF786FD002824D0A27D607DE37D120258
:1083200002431B0413431A1C237E1B06134306D16E
:10833000F368002B00D10C4BF360002011E03023D8
:10834000227902A81340291C3A1C202B02D1FFF7E6
:10835000BFFF01E0FFF7CEFE039B01937360059B17
:10836000F36007B0F0BDC046C20F020037B50C1C69
:108370006946FFF749FC00280DD0019B009DD907F5
:108380006A085B080A43ED0703D5D243DB4322604A
:1083900000E0226063603EBDF7B50E1C6946041C18
:1083A000151CFFF7E3FF002836D0B27B777BF37B09
:1083B00012023A431B0413431A1C337C1B0613435B
:1083C000082B04D1009B019A2B606A6018E0042BF3
:1083D00002D1009B2B600CE0022B04D1009B9BB2CE
:1083E0002B801BB205E0012B05D1009BDBB22B706B
:1083F0005BB2DA1704E0E368002B0BD1074B09E00E
:108400000099994202D1019B934205D0E368002B69
:1084100000D1034B0020E360FEBDC0462B0F0200DD
:108420003D0F020037B501AD0C1C0422291CFFF7DB
:1084300029FB00280AD06B781A02AB781B0413437F
:108440002A781343EA781206134323603EBD08B529
:10845000111CFFF7E7FF08BD13B508220C1C694685
:10846000FFF710FB00281BD06B4659789B78090258
:108470001B0419436B461B7819436B46DB781B06BC
:1084800019436B461A795B791B0213436A4692794A
:10849000120413436A46D2792160120613436360C3
:1084A00016BD08B5111CFFF7D7FF08BD10B544680D
:1084B000A31843600023934203D0C85CE054013307
:1084C000F9E7012010BD0000034B41600360002369
:1084D0008260C36003617047AD84010070B50668B7
:1084E000041C151C002E15D0C368D3188268934253
:1084F00006D90369002B00D1094B236100200DE050
:108500002A1CB047002805D12369002B00D1054B58
:10851000236103E00120E3685D19E56070BDC0469A
:1085200000100200D20E0200F0B585B0002B05D17C
:108530007F2A03D801A90A70012214E000268024B2
:1085400064425D061443D2092A43171CE4B201A910
:10855000DB097454751C1F4301D02E1CEFE77F23E9
:108560002A1C1C408C55FFF7B9FF05B0F0BD000078
:1085700070B58C7B4E7BCB7B240234431B0423439E
:108580001C1C0B7C1B062343012B01D1117806E038
:10859000022B01D1118802E0042B02D111680023C3
:1085A0000AE0082B01D10ACA06E00369002B00D1BA
:1085B000034B0361002002E00A1CFFF7B5FF70BD0A
:1085C0002B0F0200F8B58C7B4E7BCB7B240234430F
:1085D0001B0423431C1C0B7C171C1B062343012B71
:1085E00002D10022BA5607E0022B02D10023D25E4C
:1085F00002E0042B02D11268D3170AE0082B01D144
:108600000CCF06E00369002B00D1034B036100206F
:1086100001E0FFF789FFF8BD2B0F020038B5141CED
:108620001D1CA4185D41002B02DAE243EB4301E07C
:10863000221C2B1CFFF778FF38BD0000F8B58C7B9F
:108640004E7BCB7B240234431B0423431C1C0B7C3A
:10865000171C1B062343012B02D10022BA5607E048
:10866000022B02D10023D25E02E0042B02D1126859
:10867000D3170AE0082B01D10CCF06E00369002BC9
:1086800000D1034B0361002001E0FFF7C7FFF8BDF5
:108690002B0F020007B50B6801A91A0A4A701A0CC1
:1086A0000B708A701B0E0422CB70FFF717FF0EBDF4
:1086B00008B5111CFFF7EEFF08BD13B50CC96946DC
:1086C0006C460A70110A6170110C120EE2701A0ADF
:1086D00062711A0CA1702371A2711B0E69460822E7
:1086E000E371FFF7FBFE16BD08B5111CFFF7E5FFB0
:1086F00008BD08B5530FD2000A43FFF715FF08BDA8
:10870000F8B50F23021C08791840072809D805F08E
:1087100095FB0F0F0F041106060605270BE0022735
:1087200009E01369002B00D10B4B1361002012E00C
:10873000002700E001274B780D78101C8A781B0277
:108740002B4312041C1C131CCA78234312061A4321
:10875000391CFFF7CEFFF8BD880F0200F0B50E7987
:108760003F23151C321C9A438BB0071C0C1C131E94
:10877000402B00D118E1802A02D0002A00D020E14D
:1087800004AA03320292012202990A700E32324088
:1087900090009446904A8258607A0192A27A12021E
:1087A0000243E07A00041043011C207B0206081CEF
:1087B0001043029A00D02A18802B05D12D68281C5E
:1087C000411E88410299087030210E40102E12D0AF
:1087D00002D8002E06D0F4E0202E12D0302E00D188
:1087E000C7E0EEE0002D00D0D2E03B69002B00D0C6
:1087F000EBE07A4BE9E013780120002B00D1E8E0B0
:10880000C6E012680292002A00D1E1E0802B13D06A
:10881000A27C607CE37C120202431B0413431A1CFB
:10882000237D1B061343029A9A4205D93B69002B0C
:1088300000D0CAE06A4BC8E063460026042B00D98A
:108840008EE063782078A2781B0203431204191C7F
:10885000131CE2780B4312061A43381C0221FFF75F
:1088600048FFB04200D1B1E00F2322791340032B1F
:1088700002D1029B9E0025E0042B02D1029BDE0068
:1088800020E005A8311C142200F030FF039505A854
:10889000211C039A019B9847002800D196E0A27BF7
:1088A000607BE37B120202431B0413431A1C237CEC
:1088B00001361B061343039AD3180393029B9E426F
:1088C000E5D1089E381C321C0023FFF72DFE00283E
:1088D0007CD0002339680393994216D1381C321C8E
:1088E000FFF7FCFD75E0A27B607BE37B1202024395
:1088F0001B0413431A1C237C1B061343ED18039B14
:10890000029A01330393934262D0381C211C2A1C23
:10891000019B98470028E6D158E022793F23111C9B
:1089200099430B1C381C211C802B20D1713B134018
:10893000053B012B1BD82A68019B9847002845D08E
:10894000A27B607BE37B120202431B0413431A1CCD
:10895000237C01361B061343ED18029B9E4237D041
:10896000381C211CFFF7CCFE0028D6D12EE02A1C93
:10897000E2E76178237809021943A37812681B049F
:108980000B43191CE37801201B060B439A4220D1AC
:10899000381C211CFFF7B4FE002817D0381C211CFE
:1089A0002A1C019B984714E02B682A1D002B0FD02E
:1089B000984700280CD13B69002B00D1094B3B6143
:1089C00007E03B69002B00D1074B3B61002000E032
:1089D00001200BB0F0BDC0465C100200AB0F0200DE
:1089E0000C10020024100200880F020030B587B07E
:1089F000051C684604F07CFD002801D101202EE012
:108A00000F2301990A791340082B1ED1049B1C687F
:108A1000002C20D023685A68002A03D0281C211C6F
:108A200090470CE03F2299680B799343802B02D149
:108A3000221D281C01E0281C6268FFF78FFE002819
:108A400001D100200BE0A468E2E7281C049AFFF79C
:108A500085FE0028F5D0684604F07AFDCCE707B023
:108A600030BD70B50023051C0E1C141CFFF75CFD07
:108A7000002804D0281C311C221CFFF72FFD70BDDC
:108A8000F8B58C7B4E7BCB7B240234431B04234301
:108A90001C1C171C0B7C0A793F211B0623438A43AD
:108AA000802A01D101235B423A1E07D000229A425C
:108AB00004D0B95C002901D00132F8E7391CFFF776
:108AC000D0FFF8BDF8B5002A01D1111C1BE03F24EE
:108AD0000B79A34315D113688C7B1F1D4E7BCB7B79
:108AE000240234431B0423431C1C0B7C1B0623431E
:108AF0009F4206D90369002B00D1044B036100207B
:108B000003E0111D1268FFF7ACFFF8BD331002003F
:108B1000F0B50F1C89B0019200211422041C03A897
:108B200000F0E4FD03A8391C019AFFF75FFF079BE3
:108B300000282FD00026069D201C2A1C331CFFF77E
:108B4000F3FCB0422DD02168B14204D1201C2A1C74
:108B5000FFF7C4FC25E0E368A268EB18934204D950
:108B60002369002B1BD1104B19E063680391019A14
:108B700003A8391C0493059506960796FFF736FF60
:108B8000E368069A9B18E360049B01936360079B6C
:108B9000AA4201D1236104E0002B00D1034B002045
:108BA000236109B0F0BDC04600100200471002006A
:108BB00070B58B7D0E1C4D7DC97D1B022B430904B6
:108BC0001C1C0B1C317E23430906194306D1036983
:108BD000002B00D1034B0361002001E0FFF798FF59
:108BE00070BDC046C20F02000020094B094A1B6835
:108BF0001268D26A82420AD1074A1268012A06D84C
:108C0000834204D1054B064A1B681068181A704746
:108C100020390020C838002060380020CC380020DF
:108C2000D0380020074A13681968074B002902D181
:108C30000122524203E01268D268D26852681A6078
:108C40007047C0463C380020CC380020F8B5041CE2
:108C5000154B164D1E6828680F1C043004F052FD99
:108C60002B1C621C07D1002F05D029681048043145
:108C700004F024FD16E01A68A4195460B44206D228
:108C80000C4A10681968043104F024FD0AE00A4A0D
:108C900010681968043104F01DFD084B1A689442ED
:108CA00000D21C60F8BDC046D0380020C838002073
:108CB0000C390020D43800203C380020CC3800206B
:108CC000F0B5950085B00290281C0F1C039300F0AE
:108CD000D9FC061E00D1A5E0582000F0D3FC041EEC
:108CE0000DD006632A1C301CA52100F0FFFC236B6D
:108CF000043D5D1907239D430195002306E0301CC8
:108D000000F0CCFC8EE00133082B06D01A1CF95C75
:108D10003432A154FA5C002AF5D1231C00250A9EA6
:108D20003B331D70032E00D90326231D181CE66259
:108D30006664A564009304F0BEFC201C183004F0A7
:108D4000BAFC04239E1B231C54332461A661646275
:108D5000E564256501981D700299039A00F0F6FC00
:108D60000B9B2060002B00D01C6000F061FD304B9D
:108D7000304D1A68304E01321A602A682F4F002A8F
:108D800028D12C601B68012B2DD1301C04F088FCED
:108D9000301C143004F084FC301C283004F080FCBB
:108DA000301C3C3004F07CFC254804F079FC25485C
:108DB00004F076FC244804F073FC244804F070FCB2
:108DC000234804F06DFC234B1D4A1A60224B1D4AB8
:108DD0001A6008E03B68002B05D12B68E26ADB6A69
:108DE000934200D82C601D4AE06A13680133136077
:108DF000E3631B4B1A68904200D918601423584350
:108E00000099301804F05AFC00F01EFD3B68012662
:108E1000002B09D02B68DA6AE36A9A4204D200F088
:108E2000FBFC01E001267642301C05B0F0BDC046D7
:108E3000F0380020C838002060380020403800207A
:108E400048380020F4380020D8380020B0380020FE
:108E50000C3900203C380020D4380020EC380020A9
:108E60002039002070B5041C00F0E2FC1B4D002CE2
:108E700000D12C68261D301C04F044FCA36A002B92
:108E800003D0201C183004F03DFC154A1368013350
:108E900013602B689C4208D11248311C04F00EFC70
:108EA000114A1368013313600BE0104A206B1368FA
:108EB000013B136000F0F2FB201C00F0EFFBFFF71A
:108EC000B1FE00F0C1FC0A4B1B68002B04D02B68DC
:108ED0009C4201D100F0A0FC70BDC046C838002003
:108EE000EC380020B0380020C4380020F0380020D2
:108EF0004038002010B5041C00F09AFC002C01D171
:108F0000034B1C68E46A00F09FFC201C10BDC046A7
:108F1000C8380020F8B5041C0D1E032D00D9032508
:108F200000F086FC002C01D1204B1C68626CAA4228
:108F300038D01E4B954209D9002118680E1C844276
:108F400009D01B68DB6A9D424E4104E01E68A61BE7
:108F5000714271410E1CE16A8A4200D1E562A36947
:108F60006564002B02DB0422551BA56114234B43CF
:108F70000F486269C318071C9A420FD1251D281C8F
:108F800004F0C0FB0B4BE06A1A68904200D91860ED
:108F900014235843291C381804F090FB002E01D0EC
:108FA00000F03AFC00F050FCF8BDC046C838002084
:108FB0006038002020390020064B42699A4206D1D1
:108FC000806A054B984202D04242424100E00022B2
:108FD000101C70470C390020D838002070B50028CC
:108FE00025D0134D2B68984221D0041C00F020FCA2
:108FF000201CFFF7E1FF002817D0261D301C04F0CD
:1090000081FB0C4BE06A1A68904200D91860142367
:109010005843094B311C181804F050FB2B68E26AC6
:10902000DB6A9A4201D300F0F7FB00F00DFC70BD43
:10903000C8380020203900206038002013B50024F3
:109040000B4B009401930B480B493822231CFFF76C
:1090500037FE01280AD172B60122084B52421A602B
:10906000074B1860074B1C6000F080FB13BDC04627
:1090700008390020F592010080100200CC38002051
:1090800040380020D0380020024A136801331360B2
:109090007047C04644380020014B18687047C046EE
:1090A000D038002008B5034A1368C318136002F0D3
:1090B000FDFA08BDD0380020354BF7B51B68002BF2
:1090C00036D1344B1D6801351D60002D0BD1324A5D
:1090D000324B116818681060314A19601368013307
:1090E0001360FFF79FFD2F4F00243B689D420ED376
:1090F000294B1A681268002A02D101235B4205E05D
:109100001B68DB68DE6873689D421ED23B60264B9D
:109110001B68DA6A14235343244AD358012B00D91D
:109120000124234B1B68002B09D102F0AFFA06E0A3
:109130001F4A002413680133136002F0A7FA1D4B85
:109140001B68002B22D0012420E0331D181C019342
:1091500004F0D8FAB36A002B03D0301C183004F0A6
:10916000D1FA154BF06A1A68904200D9186014239E
:1091700058430E4B0199181804F0A0FA0A4BF26AF2
:109180001B68DB6A9A42B3D30124B1E7201CFEBD01
:1091900044380020D03800203C380020D43800204B
:1091A00038380020CC380020C83800206038002033
:1091B0005C380020243900202039002038B500F028
:1091C00037FB284B1A68013A1A601C68002C01D042
:1091D000002443E0244B1B68002BF9D0234B1A6872
:1091E000002A20D0DB68DC68201C251D183004F024
:1091F00089FA281C04F086FA1D4BE06A1A6890422E
:1092000000D91860142358431A4B291C181804F06D
:1092100055FA194BE26A1B68DB6A9A42DED30122D7
:10922000164B1A60DAE7002C01D0FFF7FBFC144B59
:109230001C681D1C002C0AD0FFF73EFF002802D03E
:1092400001220E4B1A60013C002CF5D12C600B4B17
:109250001B68002BBCD000F0DFFA012400F0F4FA08
:10926000201C38BD44380020F0380020D8380020B9
:109270002039002060380020C83800202439002020
:109280005C38002038B5051C0C1CFFF7FDFE0F4BA9
:109290002A6818681119904203D20023914206D21D
:1092A00002E00123914202D388429B415B42296044
:1092B000002B03D0081A0021FFF7C8FCFFF77EFF40
:1092C000002801D100F0A8FA38BDC046D0380020EF
:1092D00010B5041E02D100F09FFA09E0FFF7D4FE9A
:1092E000201C0021FFF7B2FCFFF768FF0028F2D036
:1092F00010BD000070B51D4C2368002B1ED0FFF779
:10930000C3FE1B4D2E68FFF759FF002EF3D000F06F
:109310008FFAEB68DD68281D04F0F4F9154A13682C
:10932000013B13602368013B236000F08DFA286B3A
:1093300000F0B4F9281C00F0B1F9DCE70E4B1B6813
:10934000012B01D900F068FA03F0B0F9FFF74CFCEB
:109350000128D0D9FFF798FEFFF746FC012801D974
:1093600000F014FBFFF72AFFC5E7C046C438002011
:10937000B0380020F038002060380020134B30B5A2
:109380001A68134B002A02D001221A601CE011480F
:109390001A60016814234B430F4A9C58002C01D1DA
:1093A0000139F7E7D418656808336D68D31865602C
:1093B0009D4201D16B68636014234B43D2185368FC
:1093C000DA68064B1A60016030BDC04644380020A0
:1093D000243900202039002060380020C8380020BF
:1093E000F8B5041C00F024FA194E002C00D13468A2
:1093F000271D381C04F086F9A36A002B03D0201C1B
:10940000183004F07FF9134D391C281C04F056F96C
:1094100000F01AFA104B1A681F1C002A05D000F041
:1094200007FAFFF7FFFB00F00FFA33689C420ED1FA
:109430003B68002B02D000F0EFF908E0074A2968EA
:109440001268914201D1336001E0FFF797FFF8BD48
:10945000C83800200C39002040380020F0380020A7
:1094600010B50C1C044B1968183104F033F9201C9A
:109470000121FFF7EBFB10BDC838002038B5C368E9
:10948000DC68251C1835281C04F03CF9114B1248E7
:109490001B68002B0DD1251D281C04F033F90F4B40
:1094A000E06A1A68904200D91860142358430C4BA4
:1094B0001818291C04F002F90A4BE26A1B68002400
:1094C000DB6A9A4202D9084B01341C60FFF7AAFB01
:1094D000201C38BD44380020D83800202039002016
:1094E00060380020C838002024390020034B1B6856
:1094F0000360034B1B6843607047C0463838002048
:10950000D038002070B50D1C041C00F091F90F4BF1
:10951000002619682B685A1C13D00D4A266810685B
:109520006268B04202D0012691420AD2881A01260E
:10953000984206D2521AD3182B60201CFFF7D6FF90
:10954000002600F081F9301C70BDC046D0380020E4
:10955000383800200122014B1A607047243900205E
:10956000031E00D0186C70470020094B1B68834213
:109570000DD1084B1B68834209D1074B1868074B74
:1095800001381B68181A431E98410223181A7047A5
:10959000D838002024390020F03800200C39002071
:1095A000014B18687047C046C8380020F8B500283D
:1095B0002BD0164DC16A2B68DB6A994225D283698C
:1095C000002B04DB04222B68DB6AD21A826114238D
:1095D0004B430F4E4269F3189A4213D1041C071DE6
:1095E000381C04F08FF82B68D86A0A4BE0621A68BE
:1095F000904200D9186014235843391C301804F0E5
:109600005DF802E02B68DB6AC362F8BDC838002051
:10961000603800202039002038B5002801D1002012
:109620001FE0836CC26A416C013B83648A42F6D0BE
:10963000002BF4D1041C051D281C04F063F804233E
:10964000606C1B1AA361074BE0621A68904200D954
:10965000186014235843044B291C181804F02EF8E2
:10966000012038BD2039002060380020044B1A68E2
:10967000002A03D019688A6C01328A64186870471E
:10968000C838002010B5041CFFF7FEFC201CFDF7B5
:1096900043F9041CFFF792FD201C10BD10B5041CFB
:1096A000FFF7F2FC201CFDF76DF9FFF787FD10BDF9
:1096B00038B5051C0C1CFFF7E7FC211C281CFDF726
:1096C00096F9041CFFF77AFD201C38BD70B5061C06
:1096D0000D1C141CFFF7D8FC291C221C301CFDF7A4
:1096E0007DF9041CFFF76AFD201C70BD70B5061CD7
:1096F0000D1C141CFFF7C8FC291C221C301CFDF794
:10970000A8F9041CFFF75AFD201C70BD10B5041CFD
:10971000FFF7BAFC201CFDF7A7F9041CFFF74EFD6C
:10972000201C10BD40DF704772B6FEE7064A136882
:109730001868203080F30988022080F314883FBC29
:10974000AE4662B600BDC046C838002010B58024C1
:10975000031F64041C60043B19600349043B196047
:10976000143B40381A6010BD29970100FF2138B51D
:10977000224B09041A681F200A43FF211A601A6845
:1097800009060A43A1211A6001221D4BC9005A6033
:10979000585000211B48C42401701B489A60016086
:1097A000D12189005A50194840395A50A40005590E
:1097B000174929408025ED01294301518021913C21
:1097C0008902FF3C015101601A602F23C046C04648
:1097D000C046C046C046C046C046C046C046C04659
:1097E000C046C046C046C046013B002BEED1094AE8
:1097F0001360FFF79BFF72B6FEE7C04620ED00E066
:109800000010014028390020E83A002000E100E083
:10981000FF00FFFF082000208022044B52051A6041
:10982000BFF34F8FBFF36F8F7047C04604ED00E06A
:1098300072B6044A136801331360BFF34F8FBFF34E
:109840006F8F704708200020034A1368013B1360A4
:10985000002B00D162B6704708200020EFF3108083
:1098600072B67047002080F310887047EFF30980CC
:109870000E4B1A6820381060F0C044464D465646DC
:109880005F46F0C008B572B6FFF778FD62B60CBC53
:10989000116808681030F0C8A046A946B246BB4619
:1098A00080F309882038F0C81847C046C83800201F
:1098B00010B5FFF7D3FF144B041C5A6C002A07D0D5
:1098C000002280205A64C22210494002920088502F
:1098D0005B68002B13D000210B4B0D4A59601378A5
:1098E0000133DBB21370292B08D8FFF7E5FB002802
:1098F00005D08022074B52051A6000E01170201C31
:10990000FFF7B1FF10BDC046FC1001400010014040
:109910002839002004ED00E0C222012310B50F4CCD
:109920009200A350A36005F037FB8921C90505F01B
:109930001BF80B4904F026FEFE21890505F046F9C7
:1099400004F08CFCA823DB00E050D122802392009D
:109950005B02A350403AA35010BDC0460010014026
:1099600000007A44074B084AD22198588022890087
:1099700052025A5040395A50FA239B005843800AE9
:109980007047C046001001400405000010B50028D3
:1099900023D0041CFFF7E8FD00281ED00F4B1A68E7
:1099A00092071AD51B681B0717D40D4B201E98422F
:1099B00000D9181CFFF7B0FFFFF7B4FEFFF7D2FF86
:1099C000041CFFF735FFC1230121064A9B00D1503B
:1099D000201CFFF767FBFFF737FF10BDE83A0020B8
:1099E00060EA00000010014073DF704774DF7047C9
:1099F00000207047012340681840704738B5051CA7
:109A0000FFF7F4FF041E04D0A321054A490000F02B
:109A1000B5FB01236A68201C9A436A6038BDC046C2
:109A20003411020038B5041C0D1E0D4B00D1136813
:109A3000002123608D4201D1183B19686118084B41
:109A4000002D00D153680B60AB0702D5201C01F03C
:109A50001EFDEB0702D5201CFCF79EFE201C38BD26
:109A6000B810020008B502210022FFF7DBFF08BD95
:109A700008B50368143B1B68C018FFF7F3FF08BD67
:109A800010B5041CFFF7EEFF201CFCF785FE201C20
:109A900010BD08B50368143B1B68C018FFF7F0FF42
:109AA00008BD08B50A1C0021FFF7BCFF08BD016610
:109AB000704770B5456B041C0E1C002D07D10C209F
:109AC000FCF762FE291C60630C22FFF70FFE636B3C
:109AD000002B00D01E8070BD836D70B5041C0E1C61
:109AE000151C002B03D14020FCF752FEA065A16D90
:109AF00000291DD0221C543213880F2B18D89B002C
:109B0000CB181E809D7013880A4901339BB21380C5
:109B10008E4208D1A16D9B00CB1807499D7019801A
:109B2000138801331380012D02D901236634237079
:109B300070BDC046021800000318000070B590B058
:109B40006B46041CD9710733002902D0012203613E
:109B50008281231C261C66331B78543602AD002BF1
:109B600004D133882384A36D636208E0281C00219C
:109B70003822FFF7BBFD33882B83A36DEB61201CDC
:109B8000291C0830FDF75AFA051E03D09C210E4A05
:109B900000F0F4FAA06D002804D0FCF7FDFD0023CE
:109BA000A3653380606B002803D0FCF7F5FD00232C
:109BB0006363206B002803D0FCF7EEFD00232363D2
:109BC000281C10B070BDC046341102000123F0B54E
:109BD000041C42689BB09A43626003A8FDF758FEDC
:109BE000002803D0E621574A00F0C8FA039A6368B8
:109BF0000221002A03D00B4363601120A0E08B43B5
:109C00006360231C251C48331A700193E26462646C
:109C100067352B78033B012B08D84B4B04A91868F8
:109C200000F0EDFC002801D005232B70271C2878BC
:109C30004037062869D804F001F9595246332D06F9
:109C4000040005232B7000233B703F4B186800284D
:109C50005BD0082306AE337133730AAB0693311C15
:109C600012ABB36000F0C6FC002805D00C21354AC9
:109C7000FF3100F083FA05E03379002B51D1337BBB
:109C8000002B4ED1012350222B70A3181A80283AA2
:109C90005A803AE0231C05225C331A7003232B7090
:109CA00004AB636401233B70231C002250331A80F1
:109CB0005A80221C5C321378013BDBB21370002BFC
:109CC00023D1053309E0201C0521FFF737FF50227F
:109CD000A3181A80283A5A8001232B7015E0201C03
:109CE0000021FFF72BFF00233B702B70206E1749DC
:109CF00004F03AFE164904F045FC04F0AFFA231CC8
:109D000050339A8A188002331A80381CFFF76CFE91
:109D1000051E10D09F210B4A490000F02FFA281C85
:109D20000EE00222019B201C1A700421E664FFF75A
:109D300005FF0223A7E70123626813436360EEE790
:109D40001BB0F0BD341102008439002000007A44B9
:109D500000401C44144B70B50366061C031C002510
:109D6000041C643340361D80DD70291C301C142215
:109D7000FFF7BCFC231C201C52331D800A3B3570AE
:109D8000291C656438221D700830FFF7AFFC0223E0
:109D90002372064BA56523610123A381231C66342E
:109DA00054331D80257070BD00007A4455110200A7
:109DB00010B5041C01F072FB044B201C1833236007
:109DC00000236360FFF7C6FF201C10BD00110200D6
:109DD00040688007C00F704738B5041C0D1E01D1C4
:109DE000136801E0114B1833002123608D4201D12B
:109DF000183B19686118002D01D1D36801E00B4BA5
:109E000018330B60002D00D0094A111D201CFFF7EC
:109E100048FEAB0702D5201C01F039FBEB0702D549
:109E2000201CFCF7B9FC201C38BDC0460011020004
:109E3000C810020008B502210022FFF7CDFF08BDBF
:109E400008B50368143B1B68C018FFF7F3FF08BD93
:109E500010B5041CFFF7EEFF201CFCF79DFC201C36
:109E600010BD08B50368143B1B68C018FFF7F0FF6E
:109E700008BD08B50A1C0021FFF7AEFF08BD002091
:109E800070470020704770470020704708B5054BA9
:109E90001B68002B04D01A680178126A181C9047BE
:109EA00008BDC0462C39002008B52521014A00F024
:109EB00065F908BDB81102000B8810B50C1C102BF9
:109EC00002D1083002F08AFC201CFDF7A5F910BD74
:109ED000F0B50C1C051C8DB01E1C12AB1B88171C8A
:109EE000009313AB1B88019314AB1B78029315AB43
:109EF0001B88039301F0D2FA1B4B1C491833221C18
:109F000004312B60281C00F01DFC281C184B083065
:109F10001C332B6002F07CFC0021164B05AC196051
:109F2000154B201C1C221D60FFF7E0FB009B201C32
:109F3000A3606B461B79059723736B469B8966600C
:109F4000E3816B461B7A23740C4B63610C4BA3615A
:109F5000FDF728F9002803D044210A4A00F00EF941
:109F6000281C0DB0F0BDC04620120200981102005E
:109F700058110200B43A00202C3900208D9E0100B7
:109F8000A99E0100B811020070B5041C0E1C151C1E
:109F9000002901D1136801E0204B1C33002223600B
:109FA000964201D11C3B1A68A218002E01D12B69E0
:109FB00001E01A4B1C33136000239E4202D1236838
:109FC000183B1B68E318002E01D16A6901E0134AAF
:109FD0001C321A60FDF71AF90022201C104B0830C1
:109FE0001A60104BA36001F052FA291D002E01D017
:109FF0000D490431201C00F0F7FBB30707D50A49CF
:10A00000201C1831FFF74DFD201C01F040FAF3072A
:10A0100002D5201CFCF7C0FB201C70BD58110200AB
:10A020002C390020E01A02009811020008B5022124
:10A030000022FFF7A9FF08BD10B5041CFFF7F6FFCB
:10A04000201CFCF7A9FB201C10BD000038B5094BF3
:10A050001D68002D0CD0041C83680834DB69201CAB
:10A060009847A84204D9201C02F0B8FBFDF75CF821
:10A0700038BDC046B43A002076DF704760DF7047D5
:10A0800011DF704708B5064B011C1868826F002A63
:10A0900004D04B1E99410423591A904708BDC0466D
:10A0A000803900207430034B0088C018431E98414B
:10A0B000C0B270470100FFFF002383607047704704
:10A0C00008B50430FFF782FD08BD08B5031C6B33EB
:10A0D0001B78002B02D101F0CBFA02E00430FFF72D
:10A0E00075FD08BDF0B591B0071C0E1C151C0021B4
:10A0F000402268461C1CFFF7F9FA68461A4903F02B
:10A1000053F91A4B02A81A68194B1A499A4200D1FE
:10A11000194903F049F9002F03D004A8391C03F0B2
:10A1200043F9002E03D006A8311C03F03DF9002DA1
:10A1300003D008A8291C03F037F9002C03D00AA883
:10A14000211C03F031F91122169B68460C93179BD2
:10A150000E930FAB1A703D2300226B441A7003F06C
:10A1600041F811B0F0BDC04670120200F85F010066
:10A1700020112103B81202001013020008B5034B8E
:10A18000011C186803681B6A984708BD80390020C5
:10A1900008B5031C0A1C0248191CFFF7EFFF08BD95
:10A1A000EFBEADDE08B506495022002302F0A6FE40
:10A1B000002803D07221034AFFF7E0FF08BDC04624
:10A1C00030390020871202000B680360183B4A6890
:10A1D0001B68C2507047000010B5041C01F05EF906
:10A1E000014B201C236010BDB8100200F0B5012502
:10A1F00087B005AC201C0F1C161C00210122039304
:10A20000FFF774FA2378201CAB432370FFF736FF67
:10A21000041E01D0902106E0144802F093FE041EB3
:10A2200005D0201C9521124AFFF7A8FF1BE011481A
:10A2300002F092FE041E02D0201C9B21F3E7FDF7E2
:10A240003BFA0D9B311C00930E9B039A0193041C57
:10A250000C9B381CFFF746FF291C074A032003F01C
:10A26000C5F802F0CFFD201C07B0F0BDBDA5010070
:10A2700087120200A5A2010085A0010038B50D1CBF
:10A28000041C023D081CFDF7A1F9012D08D8043477
:10A29000201CFFF79DFD002802D0201CFFF796FC34
:10A2A00038BD000008B5034B011C1868FFF7E6FF36
:10A2B00008BDC0468039002000487047A400001047
:10A2C00038B5041C0D1E114B00D11368002123600A
:10A2D0008D4201D1183B196861180C4B002D00D13B
:10A2E000D3680B600A49002D00D1111D201CFFF717
:10A2F000D8FBAB0702D5201C01F0C9F8EB0702D54B
:10A30000201CFCF749FA201C38BDC0467813020017
:10A310002C13020008B50A1C0021FFF7D1FF08BD6D
:10A3200008B502210022FFF7CBFF08BD08B503687E
:10A33000143B1B68C018FFF7F3FF08BD10B5041CE1
:10A34000FFF7EEFF201CFCF727FA201C10BD036866
:10A3500010B5143B1B68C418201CFFF7E1FF201C3C
:10A36000FCF71AFA201C10BD38B5041C01F096F851
:10A370001649201C0431FFF727FF251C201C144B15
:10A380006C35183308C0FFF713FD281C01F086F860
:10A390001049281CFFF718FF0F4B1035E366281CE7
:10A3A00001F04EFA201C903000F030FF0B4B0122E0
:10A3B0001C600023A367231C52427433281C1A809C
:10A3C00001F0A3F9201C246738BDC046A812020082
:10A3D000D01202002C1302007813020080390020F2
:10A3E00070B5041C0E1C151C002901D1136801E076
:10A3F0001B4B183300222360964201D1183B1A6888
:10A40000A218002E01D1EB6801E0154B1833136040
:10A410000022144B1A60FFF733FE201C903000F02E
:10A4200095FF201C7C3001F081F9201C6C30FFF777
:10A4300077FF201DFFF7FEFC291D002E01D00A49E1
:10A440000431201CFFF72DFBB30702D5201C01F0BF
:10A450001EF8F30702D5201CFCF79EF9201C70BDE6
:10A46000D012020080390020A812020008B5022193
:10A470000022FFF7B5FF08BD10B5041CFFF7F6FF7B
:10A48000201CFCF789F9201C10BD000038B5094BD1
:10A4900090301A68084B0D1C041C9A4204D1201CF1
:10A4A000291C00F0E4FE03E000F049FE0428F6DD7C
:10A4B00038BDC046F85F01002011210310B590306F
:10A4C000041C00F087FE011E02D0201C00F0EEFEEE
:10A4D00010BD70B590300E1C041C00F073FE051EFC
:10A4E0000CD0291C201C00F03FFE0368311CDB69E6
:10A4F0009847201C291C00F069FEF0E770BD0000A1
:10A5000038B50D1C041CFFF7E4FF2B88112B26D057
:10A5100002D8102B05D04DE0192B2FD0552B3BD056
:10A5200048E0231C201CAA8874331A80A91D072226
:10A530008830FFF7CBF82368201C9B699847A36FEE
:10A54000002B02D0201C00219847231DDB6F002B1D
:10A5500030D0201C01217C3001F04EF92AE001228C
:10A56000231C524274331A802368201CDB699847ED
:10A57000A36F002B1ED0201C01210BE0AB79002B18
:10A5800018D12368201C5B6A9847A36F002B11D059
:10A59000201C022198470DE0AB79002B0AD17434BE
:10A5A00020881321FFF768FD002803D0DF21024A2D
:10A5B000FFF7E4FD38BDC0468712020010B5041C49
:10A5C000FEF762FD034B211C1868FFF799FFFEF7A9
:10A5D000F5FD10BD8039002038B50368041C5B69A7
:10A5E0000D1C9847002804D1201C291C7C3001F048
:10A5F000D3F838BD08B5103002F008FD08BD08B525
:10A600000C3002F04DFD08BD76DF704777DF7047F4
:10A6100078DF70477ADF70477CDF7047F0B587B02E
:10A620001E1C0CAB1B8803AD00930DAB1B88081CD4
:10A63000019311230C1C171C2B7006F029F9211C07
:10A6400082B2281CFFF7E8FF002803D01A21164A1F
:10A65000FFF794FD1549381C04F086F9144903F0FE
:10A6600091FF03F0FBFD04AC20801049301C04F086
:10A670007BF90F4903F086FF03F0F0FD6B461B8862
:10A680006080A38001980A2103F072FCE080201C06
:10A69000FFF7C0FF041E03D02321034AFFF76EFD1E
:10A6A000201C07B0F0BDC0469813020000007A4499
:10A6B00000409C4410B5081CFFF7AAFF041E03D0FD
:10A6C0002D21024AFFF75AFD201C10BD98130200ED
:10A6D00010B5081CFFF79AFF041E03D03321024A6D
:10A6E000FFF74CFD201C10BD9813020038B50D4B30
:10A6F000051C1B6874331888FFF786FF041E04D0FE
:10A700003A21094AFFF73AFD0AE06D682B68281CD8
:10A710005B699847002803D0C820FCF75DFAF5E78D
:10A72000201C38BD803900209813020062DF70477A
:10A7300008B5034B186803685B69984708BDC046B5
:10A740008039002010B5041C0B6803601C3B48686E
:10A750001B68E05023688968183B1B68101CE15097
:10A760006260211CFFF792FE201C10BD38B5041C4E
:10A770000D1E01D1136801E0194B1C330021236029
:10A780008D4201D11C3B19686118002D01D153681D
:10A7900001E0134B1C330B6000239D4202D1236860
:10A7A000183B1B68E318002D01D1926801E00C4AA8
:10A7B0001C321A606068211CFFF780FEAB0707D5CA
:10A7C0000849201C0C31FFF76CF9201C00F05FFEDB
:10A7D000EB0702D5201CFBF7DFFF201C38BDC0466D
:10A7E000D0130200B813020008B50A1C0021FFF7BD
:10A7F000BDFF08BD13B56B46DC1D0023201C237074
:10A80000FFF794FF002803D12378012B00D8207094
:10A81000207816BD408B7047007F7047006A7047F4
:10A82000704770477047704710B5041C0368DB6AB7
:10A830009847201C10BD10B5041C03689B6A9847FC
:10A84000201C10BD08B503689B6A984708BD08B571
:10A8500003689B6A984708BD38B50368041CDD6A25
:10A860000B68081C9B6A9847011C201CA847201CE9
:10A8700038BD01207047000008B503681B69984780
:10A8800008BD08B4024B9C46243808BC6047C0464B
:10A8900079A8010008B503680121DB6D984708BD60
:10A8A0000189054A031C0020914203D088331868AF
:10A8B000012318407047C046FFFF00008830006841
:10A8C0008007C00F7047000008B4024B9C46243834
:10A8D00008BC6047BDA8010010B50368041C00292E
:10A8E0000CD11B69984700280BD0221C022188320A
:10A8F00013680B4205D10B43136023689B6E201C29
:10A90000984710BD08B4024B9C46243808BC6047E9
:10A91000D9A8010038B5041C0D1E194B00D11368CD
:10A92000002123608D4201D11C3B19686118144B32
:10A93000002D00D113690B6000239D4202D12368D2
:10A94000183B1B68E3180E49002D00D151691960AE
:10A950000C49002D00D1111D201CFFF745FFAB074E
:10A9600006D5201C0849FFF79CF8201C00F08FFD3D
:10A97000EB0702D5201CFBF70FFF201C38BDC0469B
:10A98000AC1B02006C1C0200801C020008B50A1CF3
:10A990000021FFF7BFFF08BD08B502210022FFF725
:10A9A000B9FF08BD08B50368143B1B68C018FFF762
:10A9B000F3FF08BD10B5041CFFF7EEFF201CFBF7EA
:10A9C000EBFE201C10BD036810B5143B1B68C418B7
:10A9D000201CFFF7E1FF201CFBF7DEFE201C10BD52
:10A9E000F0B593B004AE071C0391301C0021032284
:10A9F000FEF77CFE01221023134333701023134310
:10AA00007370B37805320BAC9343043A1343201CA4
:10AA100000211A320025B370FEF768FE1022237859
:10AA2000291C134305A80D3A666123706560E56033
:10AA30002561A561FEF75AFE01221023134302AAE5
:10AA4000137301221023134302AA5373937B06222C
:10AA50009343043A134306329343083293430F3A25
:10AA600006AE134302AA9373291C301C1422FEF76E
:10AA70003DFE05AB736001233A1C33811423783209
:10AA8000B3813B68758100929D6A381C0399221C32
:10AA9000331CA84713B0F0BDF0B5071C93B00BAC46
:10AAA0000391201C00211C22FEF720FE3B1C0122EA
:10AAB00004210025082688331B6805A89B0813403D
:10AAC0009A00237865608B4313433343291C032288
:10AAD0002370E56025616561A561FEF707FE102220
:10AAE000012302A913430B73012313434B738B7B85
:10AAF00006218B4304390B43B34393430F3A06AE0D
:10AB0000134302AA9373291C301C1422FEF7EEFD96
:10AB100005AB736001233A1C338114238032B38167
:10AB20003B68758100929D6A381C0399221C331C76
:10AB3000A84713B0F0BD0000F0B5041C0F1C85B091
:10AB400000930AAB1B88161C01930BAB1B88029366
:10AB50000CAB1B78039300F0A1FC1E4B1E4D183369
:10AB60002360291D3A1C201C03F0B9F8201C291C65
:10AB70000D9A1C310E9B243000F0B0FF174B201CA7
:10AB80001A1CA0331C32226063626C3000F058FE45
:10AB9000221C211C00238C31883213600B804B60F7
:10ABA000039B002B01D004231360201C311C009A4E
:10ABB00003F07DF8002809D1201C0299FFF76CFFF3
:10ABC000002803D1201C0199FFF70AFF201C05B0C3
:10ABD000F0BDC046C8160200D8140200501502008D
:10ABE00070B5041C261C903603F009F83068002864
:10ABF00001D0FBF7D1FD231C0025201C88331D60EC
:10AC00009D802C30291C356000F0F6FD201C291C8D
:10AC1000383000F0F1FDA06AA84203D00368291C77
:10AC2000DB69984770BD38B5041C221C7C32CB8888
:10AC30001288881D9A4224D1028B022A21D1231C1A
:10AC40000131C97F013A8833C90716D51968251C17
:10AC50000A431A60002290359A802B68934203D1F0
:10AC60001420FBF795FD2860236F002B14D0201CC7
:10AC700000216C3000F0C0FD0EE0196891431960AE
:10AC80000AE0221C803212889A4205D12368028B86
:10AC900020315B6E201C984738BD38B5041C5430F9
:10ACA0000D1C02F014FCA06A002806D02B781B2B88
:10ACB00003D103680021DB699847201C012138304B
:10ACC00000F09AFD38BDF7B5041C0026271C90370C
:10ACD0003B68002B34D0FFF78DFD002830D0231CBB
:10ACE0008C331D88002D08D1201C39684430142273
:10ACF00002F0DCFB85B2002D15D00122211C236857
:10AD000000925B6B201C9C4678312B1C3A68E04714
:10AD1000231C8C33002801D11D8011E00022AE19C4
:10AD20001A80B6B2D2E7002E05D1221C0223883247
:10AD3000116899431160201C00212C3000F05CFD4B
:10AD4000301CFEBD38B5036F041C0D1C002B02D156
:10AD50006C3000F0DAFC206F00280AD02368201C39
:10AD60001B699847002804D1201C291C6C3000F076
:10AD700013FD38BD08B4024B9C46243808BC60471C
:10AD800045AD010070B5041C0E1C151C002901D135
:10AD9000136801E0284B1C3300222360964201D146
:10ADA0001C3B1A68A218002E01D16B6A01E0224BED
:10ADB0001C33136000239E4202D12368183B1B689A
:10ADC000E318002E01D1AA6A01E01B4A1C321A6066
:10ADD000002E01D1EB6A01E0174BA0336362231C04
:10ADE00090331868002801D0FBF7D6FC201C6C308B
:10ADF00000F09CFC201C291C2430002E00D00F49A0
:10AE00001C3100F0AFFE291D002E01D00B4904318A
:10AE1000201CFFF7BBFDB30707D50849201C3031C4
:10AE2000FEF73FFE201C00F032FBF30702D5201C8A
:10AE3000FBF7B2FC201C70BD50150200D8140200B4
:10AE400008B502210022FFF79DFF08BD08B4024BA0
:10AE50009C46243808BC604741AE010010B5041C74
:10AE6000FFF7EEFF201CFBF797FC201C10BD000035
:10AE700008B4024B9C46243808BC60475DAE010014
:10AE8000A023002210B5074CDB00E250FEF7D0FCF7
:10AE9000C22301229B00E250034B7F32DA67FEF7A8
:10AEA000D3FC10BD0070004004E100E010B5602448
:10AEB0000C4A0D4BD158A143D150D4580B492140D5
:10AEC000D15000280AD001280AD12020D1580143AE
:10AED0008020D150D1588002014300E0D158D15098
:10AEE00010BDC0460070004004050000FFFFFCFFDD
:10AEF00010B51C240E4A0F4BD158A143D15006283F
:10AF000014D802F09BFF04060913130C0F00D1584C
:10AF10000BE0D158042007E0D158082004E0D158B4
:10AF2000142001E01820D1580143D15010BDC04673
:10AF30000070004004050000054A064B10B50649A4
:10AF4000D45800022140D150D1580843D05010BDF0
:10AF50000070004004050000FF00FFFF38B501232A
:10AF6000054C00256360231CFC335D60FFF788FF00
:10AF7000024BE55038BDC04600700040040500009B
:10AF800038B50A4D281C00F05BFC094C0949221C0D
:10AF9000281CFBF705FC084D281C00F05FFC281C52
:10AFA0000649221CFBF7FCFB38BDC0469039002047
:10AFB000202000202DB701008839002051B7010062
:10AFC00008B5054B00211A1CFC3251600131596053
:10AFD000024800F011FC08BD0070004090390020CC
:10AFE000032138B5104B114CE2588A43E250E25825
:10AFF0001043E0500E484368002B01D100F085FB60
:10B00000FEF716FCC121012589000A4A65505358F4
:10B010001B021B0A535080231360FEF715FCA0236C
:10B02000DB00E55038BDC04604050000007000405C
:10B030009039002000E100E0F7B5104C0090201C92
:10B040000E1C00F0CBFB01940024A04213D001277A
:10B050000B4D0C482F60311C00F09EFBA04207D026
:10B06000A1233C1CDB00EB58009A9B059B0D138031
:10B07000019800F0DBFB201CFEBDC0468839002093
:10B080000070004090390020F7B5041C01918068E1
:10B09000E16803F0FBF82169051C03F0F7F8011CD7
:10B0A000281C03F06FFA6768061C6061391C019860
:10B0B00003F08CFD011C301C03F056FC011C381CF5
:10B0C00003F0E4F8071C6060FE20311C800503F0EB
:10B0D0007DFD291C03F048FCA060381CFEBD00006B
:10B0E00010B5041C034B0833036000F0D0F9201C9A
:10B0F00010BDC046F016020010B5041CFFF7F0FFAB
:10B10000201CFBF749FB201C10BD0000F8B5041CF7
:10B110001D1C0F1C161C00F0C1F9054BA76008335D
:10B1200023600023E6602561201C63616360F8BD35
:10B13000F016020008B50368DB6A984708BD40694D
:10B1400070474069431E1843C00F70474369002B86
:10B1500001D0C3689B68181C70474369002B01D05D
:10B1600003699B68181C70470B1E03D04269131EAD
:10B1700000D08B68181C704708B5031C4069002874
:10B1800004D01A68181CD26BD968904708BD08B55E
:10B19000031C4069002804D01A68181CD26B196976
:10B1A000904708BD38B50368041C9B6D0D1C98477B
:10B1B000031E05D02368201CDB6B291C9847012344
:10B1C000181C38BDC06870470069704748687047F0
:10B1D0000868704738B50368041C9B6C0D1C9847C1
:10B1E000011E07D08B68AB4204D02368201C1B6D66
:10B1F0009847F5E7081C38BD08B5081CFBF7CCFAE2
:10B2000008BD08B50C20FBF7BFFA08BD10B5041C3B
:10B2100000F044F9201C054B083308C000F01EFB69
:10B220000023201CE3602361636110BD101702003E
:10B23000F8B5051C0C200F1CFBF7A6FA041C2E1DEC
:10B24000301C00F0C0FA6B69A760002B03D0EA68DD
:10B250001460626001E02C61636000220133EC60E5
:10B26000301C22606B6100F0E1FA201CF8BDF8B5DB
:10B27000051C0C200F1CFBF787FA041C2E1D301C2C
:10B2800000F0A1FA6B69A760002B03D02A69546013
:10B29000226001E0EC602360002201332C61301C4D
:10B2A00062606B6100F0C2FA201CF8BDF8B50E1E9A
:10B2B0001ED00C1C071D051C381C00F084FA2368E6
:10B2C000B6686268002B01D1EA6000E05A606268EB
:10B2D000002A01D12B6100E013606B69281C013B3F
:10B2E0006B612B68211CDB6E9847381C00F09EFABE
:10B2F000301CF8BDF7B5051C061D301C0F1C019253
:10B3000000F061FA6B69002B1CD0EC68002C16D0A1
:10B3100063680093002F0BD0019BA068002B05D021
:10B32000002805D00368DB68984701E0FBF734FA92
:10B330002B68211CDB6E281C9847009CE6E7EC601C
:10B340002C616C61301C00F071FAF7BD002110B562
:10B35000041C074B0A1C08330360FFF7CBFF201DBA
:10B3600000F0F6F9201C00F092F8201C10BDC04639
:10B370001017020010B5041CFFF7E8FF201CFBF7B4
:10B380000BFA201C10BDF7B5051C0E1E019218D03B
:10B390000C20FBF7F9F9041C2F1D381C00F013FAE0
:10B3A000019BA3603368002B00D05C6023606B6955
:10B3B000666001333460381C6B6100F037FA201C82
:10B3C00003E0036801999B699847FEBDF7B5051C2A
:10B3D0000E1E019218D00C20FBF7D6F9041C2F1D6D
:10B3E000381C00F0F0F9019BA3607368002B00D0BB
:10B3F0001C6063606B69266001337460381C6B618C
:10B4000000F014FA201C03E0036801999B69984737
:10B41000FEBD70B54469002C16D0041C061D301CFE
:10B420000D1C00F0D0F90023E468002C09D0AB42D9
:10B4300004D1301C00F0FAF9A46805E06468013317
:10B44000F3E7301C00F0F2F9201C70BDF8B5051CC4
:10B45000406900281AD02E1D301C0F1C00F0B3F9D3
:10B460000023EC68002C0DD0BB4208D1301C00F04A
:10B47000DDF92B68281CDB6B211C984706E064680B
:10B480000133EFE7301C00F0D1F9201CF8BD704704
:10B4900010B5041CFBF780F9201C10BD014B0833CC
:10B4A00003607047881702000079431E9841C0B2BC
:10B4B00070470368103B1B68C0180079431E984111
:10B4C000C0B2704738B5A02403250379E405C13321
:10B4D000FF339B001D51012A19D0002A0CD0022AEB
:10B4E00021D1A022E02480250379D2059B009B185E
:10B4F000E4001A59AD0014E0A022E024C02503792D
:10B50000D2059B009B18E4001A59ED0009E0A02227
:10B510000379D2059B009B18E022D2009C589C50D6
:10B5200001E02A431A5103689B69984738BD00001F
:10B530000123A0220079D2058340002902D0A12155
:10B54000C90000E0014953507047C0460C05000097
:10B55000A223A022DB00D2050079D358C340181CD7
:10B56000012318407047000010B5A0230479012082
:10B57000064ADB059A58011CE240A140024202D172
:10B58000A122D20000E0024A995010BD040500003B
:10B590000C0500000379A020C005002A09D0C133A2
:10B5A000FF339B00032901D1054A00E0054AC25040
:10B5B00004E0C133FF3389009B00C1507047C0468F
:10B5C0000C0003000400020038B5041C0D1CFFF73A
:10B5D00065FF0549201C043102F09BFB034B2571DC
:10B5E0001833201C236038BD08180200C817020059
:10B5F00038B5041C0D1E01D1136801E0114B18333E
:10B60000002123608D4201D1183B19686118002D7B
:10B6100001D1D36801E00B4B18330B60002D00D033
:10B62000094A111D201C02F0AEFBAB0702D5201CFD
:10B63000FFF72DFFEB0702D5201CFBF7ADF8201C10
:10B6400038BDC046C81702000818020008B502211C
:10B650000022FFF7CDFF08BD10B5041CFFF7F6FF71
:10B66000201CFBF799F8201C10BD34DF7047000048
:10B6700008B500F092F9FFF7F8FF002803D0412148
:10B68000014AFEF77BFD08BD1818020010B5054BF6
:10B69000054C1A685B682068616803F0C5FC20608F
:10B6A000616010BD10200020A039002010B504F00A
:10B6B00083FF074B074C1A685B6804F0F7F8021C1D
:10B6C0000B1C2068616803F0AFFC2060616010BD56
:10B6D00010200020A03900204068431E9841C0B2CD
:10B6E00070478068704770B5041C40680E1C151CBC
:10B6F000002801D002F033FA301C291C02F0E3F8D4
:10B700006060431E9841C0B270BD10B5041C406813
:10B71000002801D002F023FA00210322012002F0C8
:10B72000B2F86060431E9841C0B210BD074B10B51F
:10B730000833041C03604068002801D002F00FFAAF
:10B74000201CFFF7A4FE201C10BDC04658180200A4
:10B75000074B10B50833041C03604068002801D073
:10B7600002F0FDF9201CFFF792FE201C10BDC04620
:10B770003018020010B5041CFFF7D8FF201CFBF79F
:10B780000BF8201C10BD10B5041CFFF7E1FF201CB6
:10B79000FBF702F8201C10BD38B545682B1E10D0F1
:10B7A0000A1C00218368041C013383600B1C281CC5
:10B7B00002F042F9431E5A425A41D3B2A268013AFA
:10B7C000A260181C38BD406808B5002805D00021CB
:10B7D00001220B1C524202F02FF908BD08B5436844
:10B7E000181E08D00A1C00210B1C02F025F9013894
:10B7F00043425841C0B208BD07B54068002811D087
:10B800000B1E0CD0002301A9019302F0EAF8019B62
:10B81000002B07D08022044B52051A6002E01A1C4C
:10B8200002F05BF807BDC04604ED00E0406808B5D3
:10B83000002804D000210A1C0B1C02F04EF808BDA1
:10B8400010B5041CFFF72AFE034B201C08332360AD
:10B8500000236360A36010BD5818020010B5041CDB
:10B86000FFF71CFE044B01200833236002F0A7F809
:10B870006060201C10BDC0463018020008B5002AC8
:10B8800004D0101C1B21024AFEF778FC08BDC046FC
:10B89000D818020013B501A8FBF7FAFF041E03D164
:10B8A000019B002BF7D103E02421024AFEF766FC3E
:10B8B000201C16BDD818020073B5041C151C0E1CE4
:10B8C000FFF7ECFD0F49201C043102F022FA0E4B69
:10B8D000082018332360FAF757FF0C4B011C009324
:10B8E0006B46DD807543A060A58068469E80FBF7AF
:10B8F00033FF002803D03D21054AFEF73FFC201C02
:10B9000076BDC046F0180200881802007DB801001C
:10B91000D818020070B5051C0E1C141C002901D19A
:10B92000136801E0134B183300222B60964201D1BB
:10B93000183B1A68AA18002E01D1E36801E00D4BEC
:10B9400018331360A868FAF727FF211D002E01D0D5
:10B9500009490431281C02F016FAB30702D5281C45
:10B96000FFF795FDF30702D5281CFAF715FF281CF1
:10B9700070BDC04688180200F018020008B5022108
:10B980000022FFF7C7FF08BD10B5041CFFF7F6FF44
:10B99000201CFAF701FF201C10BD08B5FFF77AFF45
:10B9A00008BD37B56B46DC1D002323700368211CDE
:10B9B0009D69012301225B42A84720783EBD13B553
:10B9C0006B46D9710733191C012302685B42D469A5
:10B9D0000122A04713BDF7B5051C0F1C01240092DE
:10B9E0000193009B661E9C4210D02B68281C9B6A0A
:10B9F0009847011E1F2909D9019BB855002B03D078
:10BA00002B68281CDB6A98470134EAE70023301CC6
:10BA1000BB55FEBD08B5303001F03EFD08BD08B590
:10BA2000203001F03DFD08BD10B5041C203001F0B0
:10BA30002EFD201C303001F02AFD10BDF8B5041C8D
:10BA40000F1C161C1D1C002942D0FFF727FD224B9E
:10BA5000183300222360974201D1183B1A68A218BC
:10BA6000002F01D1736801E01B4B1833271C261CE3
:10BA700008371360381C1436FFF7E2FE301CFFF75E
:10BA8000DFFE002363609D421FD0069A9A421CD0BD
:10BA9000281DFAF77DFE069B2064181DFAF778FE34
:10BAA0006064201CAAB2216C203001F0BBFC201C79
:10BAB000069B616C9AB2303001F0B4FC381CFFF781
:10BAC00024FE301CFFF721FE04E02364636401E0E0
:10BAD0001368BEE7201CF8BD0019020037B50D1C25
