:020000021000EC
:1060000000400020FF600100D5600100D760010062
:106010000000000000000000000000000000000080
:10602000000000000000000000000000D960010036
:1060300000000000000000007D8901000000000059
:10604000DB600100DB600100A1DA0100DB60010020
:10605000DB60010000000000F1A20100CDA0010002
:10606000DB60010019C8010039C80100DB600100D4
:10607000DB600100DB600100DB600100DB60010030
:10608000DB600100C1890100DB600100DB60010011
:10609000DB60010035D90100D5D40100DB600100CF
:1060A000DB600100DB600100000000000000000078
:1060B00000000000000000000000000000000000E0
:1060C000782B02000020002028000000282000205B
:1060D000201B0000FEE7FEE7FEE7FEE7002310B509
:1060E000934203D21C585C500433F9E710BD0023DF
:1060F0008B4203D200221A500433F9E77047802301
:1061000003221149DB0510B55A501049104C5A5062
:10611000104B9C4206D220686168A268FFF7DEFF40
:106120000C34F5E70C4B9C4205D220686168FFF700
:10613000DEFF0834F6E700F065FE00F0B1FE0BF07C
:106140007BFA00F0BFFEFEE72405000054050000C6
:10615000C0600100CC600100D460010000207047E5
:106160000120704738B5041C0D1C04F07BFD201C79
:10617000054B08300833236004F04AFA0022631DFF
:106180006560201CDA7738BD08180200F7B5161DC7
:10619000071C301C151C0193009100F08BFC02239E
:1061A0000370193343706B461B78041C8370C570F1
:1061B000002D04D0043001992A1C02F00FFB7868EE
:1061C000321C0368211CDD6901235B42A847201CA7
:1061D00000F074FC0120FEBD10B5041C054B083313
:1061E0000360083004F0B4FA201C04F033FD201CD6
:1061F00010BDC0460818020010B5041CFFF7ECFFE4
:10620000201C00F05BFC201C10BD10B50830041CE5
:1062100004F097F9031C0020834202DD201C04F0E7
:10622000B8F910BDF0B5041C40688BB003681B6A58
:106230009847029000285FD0606805A9036814227F
:106240009D690023A8470026C3B20393039B002B3C
:1062500056D0039AF3B2934252D2651DE87F05AB44
:10626000F35C042846D808F0BFF903070E19320082
:10627000022B3FD1013B28E01B2B3BD1082000F033
:1062800015FC206207E00222216A0A70216A193295
:106290004A70226A9370EB7F013316E0226AD37052
:1062A000276AFB780193002B08D0181C00F002FC31
:1062B0007860EB7F0133EB77A31D19E0201C391CBC
:1062C000083004F0B7F96B461B79EB7712E0226ACD
:1062D0005068A21DD17F4D1CD5774354216AD27FCF
:1062E000CB789A4206D3201C083004F0A3F9631D32
:1062F0000022DA770136A9E76B461B7A0534E3778B
:1063000002980BB0F0BD0000F7B50F1C04F0E2F8E6
:106310000120404204F008F9114C20680028F7D011
:1063200003689B6C9847051EF2D02068291C0368FF
:106330009B6A98470368061C5B6A9847002808D048
:106340006B46327907331A70381C0C210122FFF793
:106350001DFF2068291C03681B6D9847E3E7C046B2
:1063600034200020F8B5061C20200C1C00F0A2FBF5
:10637000051C3368301CDB6A984700283FD0204F4B
:10638000386803685B6D9847002833D02368201C69
:106390001B699847002812D02368291C9B6920227A
:1063A0009C46201C0023E0473B68021C181C5B6ACB
:1063B0002430DF690123D2B2291C5B42B847104F59
:1063C0003B68181C5B6A24301B6998470028D0D0B2
:1063D0003B68291C181C5B6A04229F692430002337
:1063E000B8472368C2B2DF690123201C291C5B4225
:1063F000B847BEE7FA20400000F080FDB9E7F8BDDD
:106400002820002008B50A1E012A0CD0002902D03D
:1064100004290ED013E00A4B186800280FD0036837
:106420005B6B98470BE0074B186803685B6C9847F9
:1064300005E0054B1868002801D004F0A9FA08BD52
:1064400030200020342000202C200020F0B5D24C39
:106450000226A5440024B8A803F00CF8211C221C35
:10646000231C009401940294B8A802F045FFCB4B82
:106470008027D693FA2303251B01C94A0094019370
:10648000C849C94BD3A803F04FF9211CD3A803F086
:10649000A5F90196029403970497B8A9C34A01236A
:1064A00000956EA803F0CEFBC14B6EAA1A60C14BDB
:1064B0001FA8196806F094FA0196029403970497AE
:1064C000B8A920AA0123009593A803F0BBFBBA4BFF
:1064D000221C00930294B94B0394B8A9019517A804
:1064E00002F07CFD8721B9A8C90502F066FB59219D
:1064F000B9A802F064FB939B93A85B699847939BB0
:10650000071C9B6993A89847391C021CB9A802F084
:1065100069FB211CB9A802F097FBB9A802F0DCFBCB
:10652000012004F0A7FC12210AA804F049FC132161
:106530000CA804F045FC211C0AA8012204F098FBD9
:106540000122211C0CA804F093FB9CA93EA8FFF794
:1065500009FE03F089FD201C03F02EFD301C03F022
:106560004DFD301C34AE03F0C1FD211C301C05F084
:106570009BFD301C924905F0CDFD924B1E602EAE66
:10658000301C04F045F8904B90493EAA24A81E60A8
:1065900005F0E8FF2B1C8E49602224A805F0DEFEE2
:1065A00020215AA80A1C04F03BFE8A495AAA29A8AD
:1065B00005F0D8FF4822231C874929A805F0CEFE04
:1065C0001BAC012148A806F05DFA201C04F07EF9FE
:1065D000824B1C6004F094FC04F006FD011C14A81E
:1065E00006F024F80EA806F071F810A806F06EF870
:1065F0007B4806F01DFA06F035FA06F039FA3EA897
:10660000FFF710FE002800D107E23EA8FFF7FDFDCE
:10661000041E00D105E285780D2D00D182E159D804
:10662000062D00D11BE12ED8022D00D1A6E00AD8FC
:10663000002D00D19BE0012D00D0E1E13EA8012119
:106640000422684BE0E1042D00D1F9E0052D00D0D3
:10665000D6E1436812A81D78291C04F0B1FB6368D9
:1066600012A85978002204F06BFB02AB12A81D7728
:1066700004F044FB02AB587705213EA8022209AB87
:10668000FFF784FDE7E0092D00D117E118D8072DA9
:1066900000D1F2E0082D00D0B2E10422616812A816
:1066A00002F09CF834A805F0E8FC34A8129905F033
:1066B00031FD34A805F0E6FC34A805F0D9FCA5E1CD
:1066C0000A2D00D107E10B2D00D099E14368002588
:1066D0001F781DE1132D00D184E12ED8102D00D19B
:1066E0005EE11DD80E2D00D128E10F2D00D087E1ED
:1066F00043685AA85A789F78DE781D78079204F08C
:1067000059FD0823029302330393374BAD00E95838
:10671000009701965AA8079A002304F0E5FD75E159
:10672000112D00D155E1122D00D069E143681BA85D
:1067300019785A7804F0DCF868E15A2D56D009D857
:10674000142D00D158E1152D00D059E11BA804F0FB
:106750000BF95BE15C2D6CD060D3FD2D00D04FE1D7
:1067600004F04CFC291C129004223EA85FE002F0C9
:1067700029FE291C031C06223EA845E140210023D6
:1067800002AA52181370013102AA52180133137071
:106790003EA8291C2A1C4AE074FCFFFF0564010086
:1067A0000000F0402418020000004041F81E0200E2
:1067B00028200020002000203075000088130000F1
:1067C0000AD7A33C302000203420002009630100B8
:1067D0002C18020065630100301802002C200020F4
:1067E0000000A040201802005C180200616812A896
:1067F000082201F0F3FF616809A80831042201F0C2
:10680000EDFF129813999B4A9B4B08F0F5FF04F09B
:106810009FFB14A8099905F017FFF7E004F0E4FBCB
:106820000AF09AFD129013915B213EA8082212AB48
:10683000EAE004F0D3FB129013913EA8291CF5E77F
:10684000436812A8197804F0BBFA636812A8597853
:10685000012204F00DFA12A804F0F4FAD6E003F0D5
:1068600095FB6368187803F0A7FB6368587803F01A
:10687000C5FB022003F03AFCC8E00022436809ADE2
:106880001B7812AE2A805A1E3370052A03D87B4A21
:10689000D05C03F0D7FB0121281C494203F052FCD5
:1068A000002806D0412002ABC018291C022201F0AA
:1068B00095FF3EA807210322331CA5E0416804226E
:1068C0000D7812A8013101F089FF34A8291C129A11
:1068D00005F0BCFB9AE0436808205A781F780792BD
:1068E0009E7800F0E3F8051C391C079A331C03F06E
:1068F000E7FD03F0EFFD2EA8291C03F09BFE85E0C9
:106900002EA8291C03F087FF061E07D10135EDB222
:106910002EA803F016FE8542F2DB77E00379BB4236
:10692000F4D19EE04368564A597818789B789B00CA
:106930009A5806F035F806F037F867E0416812AF6C
:106940004B780E785A1E9341DBB2079301238D7862
:106950003B701E4216D0281C00F0ACF8071C2A1C05
:10696000391C079B301C06F023F8031C0E213EA89F
:106970001A1E01D02A1C3B1CFFF708FC381C00F033
:106980009DF843E003312A1C079B301C06F010F8E9
:10699000031C0E213EA81A1E36D001223B1C33E0F8
:1069A000416804220E784D7809A8023101F016FFE3
:1069B000636812A8991D042201F010FF48A8311C39
:1069C0002A1C06F0B8F848A80999129A06F076F839
:1069D0001CE0436848A8591C1A7806F0C5F83EA880
:1069E000291C0FE04068017842788378C0780090D5
:1069F0001BA804F01BF909E001221BAB1A7305E088
:106A0000FF213EA80022131CFFF7C0FB606800F0C6
:106A100055F8201C00F052F803E0FA20400000F086
:106A20006DFA0EA805F03EFEFA239B00984214D999
:106A30000EA805F031FE0AA804F06CF9B8A802F01F
:106A4000B7FB011E06D00AA804F058F9411E481EE3
:106A50008141C9B20CA804F041F917A802F07CFBEF
:106A6000CBE52EA8291C03F0F3FE3368301CDB684D
:106A70009847CBE77B14AE47E17A843F9818020031
:106A8000A018020008B50648064900F047F8E422BD
:106A9000054B520008201A6002F00AFC08BDC046EF
:106AA00038200020301700000420002008B501F035
:106AB00071FE08BD08B501F06DFE08BD08B501F016
:106AC00075FE08BD00207047FEE74268002A0DD021
:106AD00093681903090F09D181689BB20C31CB1857
:106AE00083605368002B00D0186043607047031C1C
:106AF000081C1A890C300C3A1818521A82605A680D
:106B0000036042605A68002A00D01060802252025E
:106B100089B211435860996070470000174B70B5F7
:106B2000174A1C68174B944202D01A68002A23DCCB
:106B30001A68032A20DC0C221D68134C5543285187
:106B40001D684E1E5543651969601D683018554310
:106B50006519A86018680C395043005989B28160E2
:106B600019685143085900210160186842431259BD
:106B700051601A6801321A6070BDC046FC0F0000F7
:106B800000E7A895683700206C370020002310B577
:106B90000A4A126893420BDA0C225A4308495458A5
:106BA000844203D88A189268904204D30133EFE7F5
:106BB0000120404200E0181C10BDC046683700208C
:106BC0006C37002010B5031E34D01C1CFFF7DEFF0D
:106BD000A368C00F9A0701D0022210432168002940
:106BE0000BD04A68A24201D0042210430A898A18B5
:106BF0000C32944201D00822104362681B04002A20
:106C00000BD01168A14201D0102108431B0C0C339A
:106C1000E3189A420ED020230BE00C22424306498F
:106C20001B0C8A1892680C33E3180132934201D08E
:106C30004023184310BDC0466C37002010B5041E19
:106C40002BD003230022C11C9943154B1B689A4289
:106C500022DA0C23534313481C58002C1AD0A36883
:106C60001803000F14D198B2884211D90A1C1832A7
:106C7000904203D3201CFFF73AFF03E08022520228
:106C80001343A360A3681B031B0BA3600C3404E035
:106C90006468E2E70132D8E70024201C10BDC0463A
:106CA000683700206C37002010B5002825D00C383C
:106CB000041CFFF76BFF00281FDB104B1B6898427A
:106CC0001BDA201CFFF77EFF002816D12389A36062
:106CD000206800280ED083681B031B0F0AD1FFF722
:106CE000F4FE2468F4E79B681B031B0F05D1201CEE
:106CF000FFF7EBFE6368002BF5D110BD683700206D
:106D0000002310B5934203D0CC5CC4540133F9E79F
:106D100010BD70B5051C0C1E11D0061C03230C3EC3
:106D200005349C4333899C420ED9201CFFF786FF13
:106D3000041E1FD0B268291C92B2FFF7E1FF281C85
:106D4000FFF7B2FF201C15E0301CFFF71FFF221CCD
:106D5000338918329A420CD2301C211CFFF7C7FE2F
:106D60004368002B05D09B681B031B0F01D1FFF765
:106D7000ACFE281C70BD002A02D0013A8154FAE70B
:106D800070470C38806880B270470000F8B5002466
:106D9000A04231D0061C271C184B1B689F422BDADF
:106DA0000C237B43164A9D58002D23D00F22AB683D
:106DB000190C114001291BD1190DB14218D12868B5
:106DC0009BB2AB60E418002807D083681B0C134209
:106DD00003D1FFF77AFE2D680C346B68002B07D0C7
:106DE0009B681B031B0F03D1281CFFF76EFE0C349E
:106DF0006D68D9E70137CFE7201CF8BD6837002060
:106E00006C3700201B4A10B51378111C012B19D1C7
:106E1000194B1B681B0715D1184BE0241A68F02387
:106E2000101C184022420BD1154A12681A4209D18F
:106E3000144A154B1A608022144B12021A6001E0AA
:106E40003028F1D00B68DBB2012B12D10A4A12684C
:106E500012070ED1F021094A12680A40402A08D1CF
:106E6000074A12680A4204D1C1228021D200C90512
:106E70008B5010BDE00F00F0E40F00F0E80F00F0C1
:106E8000EC0F00F0DFFF07C004050040186C004065
:106E900008B5FFF7DBFA002001F06CF808BD000030
:106EA00008B5FFF7EFFD80235B05DA6DF023134093
:106EB000802B04D180210248C901FFF72FFE08BDB5
:106EC0000040002007B5E023A0220849DB00D205DE
:106ED000D150074B07491A68002392B200930193DF
:106EE000054800F075FF01F031F907BD0C00030003
:106EF00004200020AC180200916E010008B501F0DA
:106F00006FFA08BD70B5041C01F0D2FB061C01200D
:106F1000002E0DD0356B281CFFF733FF326B031C9E
:106F20000020A24204D8013DED18AC42A4416042C9
:106F300070BD72DF704779DF70477DDF704765DFB6
:106F40007047F0B50024061C251C87B00C9F0093E9
:106F50003B7803910292019333889D423ADA736839
:106F6000A9005918042205A801F038FC04AB05A8B3
:106F7000D91C0022FFF7E3FF002835D104ABDB78F2
:106F8000029A934222D16242624102993B785200B6
:106F900059188A181F2A1BDC002C07D169469A1C35
:106FA0003A700133009A097BDBB2D15404ABDC1C8C
:106FB0003A78009B05A89A18211CFFF7C0FF00280B
:106FC00012D1237801243A78D3183B700135C3E7F6
:106FD0000C2009E00020844206D03B78019A013B56
:106FE0009B1A0199009A535407B0F0BDF7B5089E5B
:106FF000171C00960222051C1C1CFFF7A2FF00288C
:1070000006D10096281C391C1022231CFFF799FF7B
:10701000FEBD00000023F0B51370037889B0061C94
:107020000D1C141C002B03D1B378002B4BD029E08E
:1070300043780C201D2B00DD61E10E2704ABFF1807
:107040001D23881C391C3B80FFF777FF002800D0E8
:1070500055E13378022B03D13B8809221D2B08D937
:107060007378002B03D09BB208221D2B01D9082274
:107070003B88DBB2591C29706A70227802329B1857
:107080002370D1E723780C201B2B00DD37E10E277E
:1070900004ABFF18381CFFF74EFF002800D02EE18C
:1070A00023785A1C22700322EA5423785A1C227037
:1070B0001922EA5423783A88EB181A70120A5A7087
:1070C000237802332370B388002B1FD0B2680720C7
:1070D000002A00D113E122780530911CCB181F2B18
:1070E00000DD0CE1531C2370B3880133AB542378CB
:1070F0005A1C22700122EA542078B2882818B168FC
:1071000001F06CFBB2882378D3182370F368002B4E
:1071100012D01A7823780C201C2B00DDEFE0591CCC
:1071200021700221E9542378591C21700A21E95465
:107130002378591C2170EA54338A002B03D1338BF6
:10714000002B16D00AE0301C0094103002210622D9
:107150002B1CFFF74BFF0028F1D0D0E0301C00942F
:107160001830032107222B1CFFF740FF002800D016
:10717000C5E0338C002B0AD0301C00942030142141
:1071800015222B1CFFF732FF002800D0B7E0B36AAE
:10719000002B49D022780C20049206321F2A00D9F5
:1071A000ADE019880538052900D8A8E0554A564FA2
:1071B0008A1892B2BA4200D8A1E05A880392052AEE
:1071C00000D89CE04F4FBC469444674602AA978182
:1071D0009789BC464C4FBC4500D890E04B4FB94214
:1071E00005D0039ABA4202D0914200D987E0049AAE
:1071F00004990132227005226A542278511C2170B0
:107200001221A95422781988AA181170090A5170FC
:1072100022780232D2B222705988AB181970090A4A
:107220005970237802332370F76A002F29D03A79F6
:107230002178931C881CDBB2C3180C201F2B5EDC4A
:107240004B1C033223706A5423785A1C2270FF228D
:10725000EA5423783A88EB181A70120A5A70237885
:107260000233DBB22370BA88002A0AD0B968053825
:10727000002944D0E81801F0B1FABA882378D3186D
:107280002370331C343305931B78002B01D100206D
:1072900035E0336B002B31D000230493059B049A17
:1072A0001B789342F3D90C27049B22785F43336BFE
:1072B000511CDF193B7921700333AB5423785A1CDE
:1072C00022701622EA5423783A88EB181A70120AB0
:1072D0005A7020780230C0B22070BA88002A09D0D3
:1072E000B96800290AD0281801F078FABA882378FA
:1072F000D3182370049B0133DBB2CEE7072009B01B
:10730000F0BDC0467FF3FFFF7DF30000FFFF0000EC
:10731000F0B593B06B466A469E1D0023D71D0D1C29
:1073200033703B7098420BD08388002B01D107202B
:1073300024E08368002BFAD01B785B07F7D50DE0BB
:10734000041C002D03D0AB88002BF0D10EE02A1CCA
:1073500031783B78201CFFF7ECFD0FE002A9321CCE
:10736000FFF758FE02AC0028EBD007E03A1C281CBF
:107370000AA9FFF74FFE0AAA0028E9D013B0F0BD12
:1073800075DF704776DF70477ADF70477BDF7047C5
:1073900013B5144B14495A880888144B144C904266
:1073A0000CD84988914209D35B69002B03D0012294
:1073B00001A8027098470023237013BD2278002A89
:1073C00005D05B69002BF6D001A80022F1E7094A3D
:1073D0001188094A002901D15B6800E09B681360AD
:1073E000E9E7C046343B0020103B0020183B00205A
:1073F0009C3700203E3B00200C3B002073B5002151
:10740000174B1960174B1888174B984226D0174A0C
:10741000174D13882C1C01339BB213802E7B9E4288
:1074200008D31449FFF7ACFF002817D0AB69002B35
:1074300013D113E011802B7C002B08D03B21FFF7E8
:10744000A1FF002803D0AB69002B00D098476369E7
:10745000002B03D0002201A80270984773BDC046DC
:107460000C3B00203C3B0020FFFF00003E3B002087
:10747000183B0020103B0020134938B5021C0B1CA0
:1074800032CA32C332CA32C31268104C1A600022A8
:107490000F4B01681A70201C914211D0083201F084
:1074A0009DF9201CFFF770FF00280CD1012200205D
:1074B000084B52421A80084B1880084B186002E0B3
:1074C000FFF764FFF0E738BD183B0020103B0020B9
:1074D0009C3700203C3B00203E3B00200C3B002022
:1074E0000020014B186070470C3B002008B5038852
:1074F000112B1CD0011C112B02D8102B05D035E00C
:10750000122B2CD0502B1AD030E08288184B0E3121
:107510001A801848082201F061F90023164A1380E6
:10752000164A1360164BDB89002B1FD11CE0012289
:107530000F4B52421A8000230F4A13800CE0104A6E
:10754000C088D289904211D1CB8B022B0ED1013150
:10755000CA7F013B134007D1084A136006E0063199
:107560000448082201F03AF9FFF712FF08BDC046AF
:107570003C3B0020343B00203E3B00200C3B0020E5
:10758000183B002021DF704720DF704737B5021C11
:1075900014200C4C2378584320180179C06809281E
:1075A00002D10948056802E0084D00014559142040
:1075B0004343E018E318DC880C3000945B69A8476B
:1075C00037BDC046A037002040380020B837002023
:1075D000F7B5664C1D1C2378071C002B06D1131C25
:1075E0002B4301D1023300E00123237023780320D1
:1075F000013B052B00D9B8E0181C00950E1C151C8A
:1076000006F0F2FF032333705D968023584A5B0532
:107610005169013105D05069196989B206F0EEFF50
:1076200000E05869802252051369116912699BB202
:10763000013889B292B2584371439208FFF7A2FF12
:107640000223002800D18FE08FE0081CFFF79CFF89
:10765000002800D089E0002D2DD1009B002B26D1E1
:107660003B78042B21D1072322E080235B05196995
:107670003F4A89B24E43516901311ED050691969A0
:1076800089B206F0BBFF80235B051969013889B216
:1076900041432A1C301CFFF775FF002865D1009B71
:1076A000002B04D13B78042B1AD0052300E00423DF
:1076B0002370002059E0032356E05869E3E7802354
:1076C0005B051869910080B246437A888819920850
:1076D0003969FFF757FF002847D1009B1D43C2D0EF
:1076E0000623E5E780235B051969950089B24E43BF
:1076F0007A88B61801921E4A76195169013106D06E
:107700005069196989B206F079FF411E01E0596993
:10771000013980235B051B69019A9BB24B43AD186D
:10772000E918301C009AFFF72DFF0028BAD01CE0A2
:1077300080230F4A5B055169013105D050691969F1
:1077400089B206F05BFF00E0586980225205136998
:1077500011699BB20138584389B206F04FFFFFF719
:1077600013FF002801D107232370FEBD49380020F4
:1077700000100010F7B514243D4A13785C43141927
:10778000211C009323790831271D8D680192042B59
:1077900018D0052B4BD00F20022B67D1354B2089F9
:1077A0001E886369B602E2889919334B4019921B0F
:1077B00080199A4201D8920801E080225200FFF716
:1077C000E1FE4EE0802649682C4A0B01D318188947
:1077D0005A895B687605AB4204D1131C4343E288A7
:1077E000934201D009290AD13169281C89B206F0D7
:1077F00005FF204B1B88C018FFF7C6FE31E031693A
:10780000281C89B206F0FAFE32693469431CA4B21E
:107810005C43142392B24243011C0098AA1A4343CA
:1078200001989208C318DB88EB18E31A15E080264C
:1078300076053169281C89B206F0E0FE011C326928
:107840002389306992B25D194A434B1C86B25E436C
:10785000E388AA1A5B199208F31A9B08381CFFF7F1
:10786000B7FE002802D10123019A9370FEBDC046E5
:10787000A03700204A380020FF030000B83700205E
:10788000F8B5134D061C6C7806A807880420012C57
:107890001DD028782418E4B2002C01D0013CE4B2B9
:1078A000142044432C196261221C26710C3241C9F8
:1078B00041C2E3802781AB78002B01D0002003E098
:1078C000FFF758FF1128F9D06B7801336B70F8BDC2
:1078D000A037002008B5064B5B78002B01D10020B3
:1078E00005E0FFF747FF0028F9D01128F7D008BDC1
:1078F000A0370020F7B5364B9A781C1C002A66D0BA
:107900000026344A9E701378171C082B06D10228D3
:1079100001D1167045E0304B1E7042E0022803D0C2
:10792000032854D10D2040E014212C4D20782A88C2
:107930004143013292B22A806118087901950228E8
:1079400004D1CB8892029A4211DA2AE0052837D076
:10795000042826D1D81F45424541C988281C9202D7
:107960008A4225DB0122002B22D1002823D00026C9
:10797000301C3E70FFF70AFE142308202278534380
:10798000E3181E71DE80D8601E615E611E81019B5E
:107990001E806378013B6370FF2A01D1267000E0EE
:1079A0002270FFF797FF002811D0FFF7EFFD0EE0E0
:1079B000331C0022D9E7002AD9D1002BD7D1F0E718
:1079C000073B5A425341301C002BF2D0CFE7F7BDA2
:1079D000A037002049380020483800204A380020CD
:1079E00008B5002308211D4A13801D4A13701D4A43
:1079F00013705370536193701371D380D16013610E
:107A00001381194A13808023184A5B05516901319B
:107A100005D05069196989B206F0F0FD00E0586997
:107A200080235B051B6909389BB25843104A114BF0
:107A30001860131C88320833191C002008390860AC
:107A400018809880588010339342F5D101220A4B58
:107A500018609880094B1A7008BDC0464A3800204B
:107A600049380020A03700203838002000100010CE
:107A7000B83700203C38002040380020483800202B
:107A8000F0B5484B87B01B780824002B00D185E067
:107A90000634002800D181E0002900D17EE003688F
:107AA0000493002B00D179E080235B051A69858857
:107AB00092B2073C954271D80F2D6FD9C2880192BE
:107AC000002A6BD0384A0F1C12680292019A6A434E
:107AD000161CB4460392029A62440592334A5169D5
:107AE000013105D05069196989B206F087FD00E0BF
:107AF000586980225205136901389BB25843059B8F
:107B0000072483424AD8136903999BB2994207DD3F
:107B10001069291C80B206F0F7FD89B200293DD119
:107B2000032307242B4039D1214A033C1288082A19
:107B300034D002991F487960110144183A602581B8
:107B40006D46029FAD8867606581049F164C0F509B
:107B500027680094019080256C466D0528690133E3
:107B6000208120899BB2864204D9286920812089FE
:107B7000361A00E000266C4628692D69208120898C
:107B8000ADB284466744AE42E5D20024009801328B
:107B90000760019841188B81054B1A80201C07B0A3
:107BA000F0BDC046483800203C38002000100010CE
:107BB00038380020B8370020F0B5061C1C4885B0C6
:107BC00004780820002C31D0063000292ED0002E59
:107BD0002CD035680738854228D8164C2D012F59EE
:107BE000002F23D0641925897768AC460397674630
:107BF000658964687D43039F2C19A74216D2002A29
:107C000014D0624512D8D418AC420FDC03240930DA
:107C100021420BD1234209D1274207D11C1C0B382A
:107C2000131C00940A1C311CFFF72AFE05B0F0BD9E
:107C300048380020B8370020F0B5151C234A85B01D
:107C4000127802930824002A3DD0063400293AD045
:107C5000002838D00E68073CA64234D81C4A3601AA
:107C6000B7580392002F2ED0039F4A68BE19378958
:107C7000BC466346778976685F43BE19B24222D21A
:107C8000002D20D065451ED8029BEE18BE421ADC9E
:107C900003260934304216D1371C334213D1161C47
:107CA0003E4010D10C1C99182A1C029000F096FD41
:107CB0002368039A1B010095D558201C391C321CDF
:107CC000029BA847341C201C05B0F0BD483800209A
:107CD000B8370020064B1A780823002A06D006334E
:107CE000002803D0034B5B7803600023181C704707
:107CF00048380020A03700200020094B094A1B68A3
:107D00001268D26A82420AD1074A1268012A06D84A
:107D1000834204D1054B064A1B681068181A704745
:107D200034390020DC38002074380020E03800208E
:107D3000E4380020074A13681968074B002902D16C
:107D40000122524203E01268D268D26852681A6077
:107D50007047C04650380020E0380020F8B5041CB9
:107D6000154B164D1E6828680F1C043006F005F8E8
:107D70002B1C621C07D1002F05D029681048043144
:107D800005F0D7FF16E01A68A4195460B44206D271
:107D90000C4A10681968043105F0D7FF0AE00A4A56
:107DA00010681968043105F0D0FF084B1A68944236
:107DB00000D21C60F8BDC046E4380020DC3800204A
:107DC00020390020E838002050380020E03800201A
:107DD000F0B5950085B00290281C0F1C039300F0AD
:107DE000D9FC061E00D1A5E0582000F0D3FC041EEB
:107DF0000DD006632A1C301CA52100F0FFFC236B6C
:107E0000043D5D1907239D430195002306E0301CC6
:107E100000F0CCFC8EE00133082B06D01A1CF95C74
:107E20003432A154FA5C002AF5D1231C00250A9EA5
:107E30003B331D70032E00D90326231D181CE66258
:107E40006664A564009305F071FF201C183005F0EE
:107E50006DFF04239E1B231C54332461A6616462BE
:107E6000E564256501981D700299039A00F0F6FCFF
:107E70000B9B2060002B00D01C6000F061FD304B9C
:107E8000304D1A68304E01321A602A682F4F002A8E
:107E900028D12C601B68012B2DD1301C05F03BFF35
:107EA000301C143005F037FF301C283005F033FF4C
:107EB000301C3C3005F02FFF254805F02CFF2548ED
:107EC00005F029FF244805F026FF244805F023FF8C
:107ED000234805F020FF234B1D4A1A60224B1D4A00
:107EE0001A6008E03B68002B05D12B68E26ADB6A68
:107EF000934200D82C601D4AE06A13680133136076
:107F0000E3631B4B1A68904200D91860142358434E
:107F10000099301805F00DFF00F01EFD3B680126AA
:107F2000002B09D02B68DA6AE36A9A4204D200F087
:107F3000FBFC01E001267642301C05B0F0BDC046D6
:107F400004390020DC380020743800205438002028
:107F50005C38002008390020EC380020C4380020AC
:107F60002039002050380020E83800200039002057
:107F70003439002070B5041C00F0E2FC1B4D002CCD
:107F800000D12C68261D301C05F0F7FEA36A002BDB
:107F900003D0201C183005F0F0FE154A1368013399
:107FA00013602B689C4208D11248311C05F0C1FEB9
:107FB000114A1368013313600BE0104A206B1368F9
:107FC000013B136000F0F2FB201C00F0EFFBFFF719
:107FD000B1FE00F0C1FC0A4B1B68002B04D02B68DB
:107FE0009C4201D100F0A0FC70BDC046DC380020EE
:107FF00000390020C4380020D8380020043900207F
:108000005438002010B5041C00F09AFC002C01D15B
:10801000034B1C68E46A00F09FFC201C10BDC046A6
:10802000DC380020F8B5041C0D1E032D00D90325F3
:1080300000F086FC002C01D1204B1C68626CAA4227
:1080400038D01E4B954209D9002118680E1C844275
:1080500009D01B68DB6A9D424E4104E01E68A61BE6
:10806000714271410E1CE16A8A4200D1E562A36946
:108070006564002B02DB0422551BA56114234B43CE
:108080000F486269C318071C9A420FD1251D281C8E
:1080900005F073FE0B4BE06A1A68904200D9186035
:1080A00014235843291C381805F043FE002E01D034
:1080B00000F03AFC00F050FCF8BDC046DC3800206F
:1080C0007438002034390020064B42699A4206D1A8
:1080D000806A054B984202D04242424100E00022B1
:1080E000101C704720390020EC38002070B50028A3
:1080F00025D0134D2B68984221D0041C00F020FCA1
:10810000201CFFF7E1FF002817D0261D301C05F0CA
:1081100034FE0C4BE06A1A68904200D918601423B0
:108120005843094B311C181805F003FE2B68E26A0E
:10813000DB6A9A4201D300F0F7FB00F00DFC70BD42
:10814000DC380020343900207438002013B50024B6
:108150000B4B009401930B480B493822231CFFF76B
:1081600037FE01280AD172B60122084B52421A602A
:10817000074B1860074B1C6000F080FB13BDC04626
:108180001C39002005840100B1180200E0380020ED
:1081900054380020E4380020024A13680133136089
:1081A0007047C04658380020014B18687047C046D9
:1081B000E438002008B5034A1368C318136002F0BE
:1081C00089FE08BDE4380020354BF7B51B68002B4D
:1081D00036D1344B1D6801351D60002D0BD1324A5C
:1081E000324B116818681060314A19601368013306
:1081F0001360FFF79FFD2F4F00243B689D420ED375
:10820000294B1A681268002A02D101235B4205E05B
:108210001B68DB68DE6873689D421ED23B60264B9C
:108220001B68DA6A14235343244AD358012B00D91C
:108230000124234B1B68002B09D102F03BFE06E012
:108240001F4A002413680133136002F033FE1D4BF4
:108250001B68002B22D0012420E0331D181C019341
:1082600005F08BFDB36A002B03D0301C183005F0ED
:1082700084FD154BF06A1A68904200D918601423E7
:1082800058430E4B0199181805F053FD0A4BF26A3A
:108290001B68DB6A9A42B3D30124B1E7201CFEBD00
:1082A00058380020E438002050380020E8380020FA
:1082B0004C380020E0380020DC38002074380020E2
:1082C00070380020383900203439002038B500F0EB
:1082D00037FB284B1A68013A1A601C68002C01D041
:1082E000002443E0244B1B68002BF9D0234B1A6871
:1082F000002A20D0DB68DC68201C251D183005F022
:108300003CFD281C05F039FD1D4BE06A1A689042BF
:1083100000D91860142358431A4B291C181805F06B
:1083200008FD194BE26A1B68DB6A9A42DED3012220
:10833000164B1A60DAE7002C01D0FFF7FBFC144B58
:108340001C681D1C002C0AD0FFF73EFF002802D03D
:1083500001220E4B1A60013C002CF5D12C600B4B16
:108360001B68002BBCD000F0DFFA012400F0F4FA07
:10837000201C38BD5838002004390020EC3800207B
:108380003439002074380020DC38002038390020CF
:108390007038002038B5051C0C1CFFF7FDFE0F4B94
:1083A0002A6818681119904203D20023914206D21C
:1083B00002E00123914202D388429B415B42296043
:1083C000002B03D0081A0021FFF7C8FCFFF77EFF3F
:1083D000002801D100F0A8FA38BDC046E4380020DA
:1083E00010B5041E02D100F09FFA09E0FFF7D4FE99
:1083F000201C0021FFF7B2FCFFF768FF0028F2D035
:1084000010BD000070B51D4C2368002B1ED0FFF777
:10841000C3FE1B4D2E68FFF759FF002EF3D000F06E
:108420008FFAEB68DD68281D05F0A7FC154A136874
:10843000013B13602368013B236000F08DFA286B39
:1084400000F0B4F9281C00F0B1F9DCE70E4B1B6812
:10845000012B01D900F068FA04F058F8FFF74CFC42
:108460000128D0D9FFF798FEFFF746FC012801D973
:1084700000F014FBFFF72AFFC5E7C046D8380020FC
:10848000C43800200439002074380020134B30B564
:108490001A68134B002A02D001221A601CE011480E
:1084A0001A60016814234B430F4A9C58002C01D1D9
:1084B0000139F7E7D418656808336D68D31865602B
:1084C0009D4201D16B68636014234B43D2185368FB
:1084D000DA68064B1A60016030BDC046583800208B
:1084E000383900203439002074380020DC3800206E
:1084F000F8B5041C00F024FA194E002C00D13468A1
:10850000271D381C05F039FCA36A002B03D0201C62
:10851000183005F032FC134D391C281C05F009FCFD
:1085200000F01AFA104B1A681F1C002A05D000F040
:1085300007FAFFF7FFFB00F00FFA33689C420ED1F9
:108540003B68002B02D000F0EFF908E0074A2968E9
:108550001268914201D1336001E0FFF797FFF8BD47
:10856000DC38002020390020543800200439002055
:1085700010B50C1C044B1968183105F0E6FB201CE3
:108580000121FFF7EBFB10BDDC38002038B5C368D4
:10859000DC68251C1835281C05F0EFFB114B124830
:1085A0001B68002B0DD1251D281C05F0E6FB0F4B89
:1085B000E06A1A68904200D91860142358430C4BA3
:1085C0001818291C05F0B5FB0A4BE26A1B68002449
:1085D000DB6A9A4202D9084B01341C60FFF7AAFB00
:1085E000201C38BD58380020EC38002034390020D9
:1085F00074380020DC38002038390020034B1B6819
:108600000360034B1B6843607047C0464C38002032
:10861000E438002070B50D1C041C00F091F90F4BDC
:10862000002619682B685A1C13D00D4A266810685A
:108630006268B04202D0012691420AD2881A01260D
:10864000984206D2521AD3182B60201CFFF7D6FF8F
:10865000002600F081F9301C70BDC046E4380020CF
:108660004C3800200122014B1A6070473839002035
:10867000031E00D0186C70470020094B1B68834212
:108680000DD1084B1B68834209D1074B1868074B73
:1086900001381B68181A431E98410223181A7047A4
:1086A000EC3800203839002004390020203900201F
:1086B000014B18687047C046DC380020F8B5002828
:1086C0002BD0164DC16A2B68DB6A994225D283698B
:1086D000002B04DB04222B68DB6AD21A826114238C
:1086E0004B430F4E4269F3189A4213D1041C071DE5
:1086F000381C05F042FB2B68D86A0A4BE0621A6806
:10870000904200D9186014235843391C301805F0E2
:1087100010FB02E02B68DB6AC362F8BDDC38002086
:10872000743800203439002038B5002801D10020E9
:108730001FE0836CC26A416C013B83648A42F6D0BD
:10874000002BF4D1041C051D281C05F016FB042386
:10875000606C1B1AA361074BE0621A68904200D953
:10876000186014235843044B291C181805F0E1FA2B
:10877000012038BD3439002074380020044B1A68B9
:10878000002A03D019688A6C01328A64186870471D
:10879000DC38002010B5041CFFF7FEFC201CFEF79F
:1087A0004DFA041CFFF792FD201C10BD10B5041CEF
:1087B000FFF7F2FC201CFEF777FAFFF787FD10BDEC
:1087C00038B5051C0C1CFFF7E7FC211C281CFEF724
:1087D000A0FA041CFFF77AFD201C38BD70B5061CFA
:1087E0000D1C141CFFF7D8FC291C221C301CFEF7A2
:1087F00087FA041CFFF76AFD201C70BD70B5061CCB
:108800000D1C141CFFF7C8FC291C221C301CFEF791
:10881000B2FA041CFFF75AFD201C70BD10B5041CF1
:10882000FFF7BAFC201CFEF7B1FA041CFFF74EFD5F
:10883000201C10BD40DF704772B6FEE7064A136881
:108840001868203080F30988022080F314883FBC28
:10885000AE4662B600BDC046DC38002010B58024AC
:10886000031F64041C60043B19600349043B196046
:10887000143B40381A6010BD39880100FF2138B51B
:10888000224B09041A681F200A43FF211A601A6844
:1088900009060A43A1211A6001221D4BC9005A6032
:1088A000585000211B48C42401701B489A60016085
:1088B000D12189005A50194840395A50A40005590D
:1088C000174929408025ED01294301518021913C20
:1088D0008902FF3C015101601A602F23C046C04647
:1088E000C046C046C046C046C046C046C046C04658
:1088F000C046C046C046C046013B002BEED1094AE7
:108900001360FFF79BFF72B6FEE7C04620ED00E064
:10891000001001403C390020403B002000E100E015
:10892000FF00FFFF082000208022044B52051A6040
:10893000BFF34F8FBFF36F8F7047C04604ED00E069
:1089400072B6044A136801331360BFF34F8FBFF34D
:108950006F8F704708200020034A1368013B1360A3
:10896000002B00D162B6704708200020EFF3108082
:1089700072B67047002080F310887047EFF30980CB
:108980000E4B1A6820381060F0C044464D465646DB
:108990005F46F0C008B572B6FFF778FD62B60CBC52
:1089A000116808681030F0C8A046A946B246BB4618
:1089B00080F309882038F0C81847C046DC3800200A
:1089C00010B5FFF7D3FF144B041C5A6C002A07D0D4
:1089D000002280205A64C22210494002920088502E
:1089E0005B68002B13D000210B4B0D4A59601378A4
:1089F0000133DBB21370292B08D8FFF7E5FB002801
:108A000005D08022074B52051A6000E01170201C2F
:108A1000FFF7B1FF10BDC046FC100140001001403F
:108A20003C39002004ED00E0C222012310B50F4CB8
:108A30009200A350A36006F097FE8921C90506F0B5
:108A40007BFB0B4906F086F9FE21890506F0A6FCA2
:108A500005F0CEFFA823DB00E050D1228023920056
:108A60005B02A350403AA35010BDC0460010014025
:108A700000007A44074B084AD22198588022890086
:108A800052025A5040395A50FA239B005843800AE8
:108A90007047C046001001400405000010B50028D2
:108AA00023D0041CFFF7E8FD00281ED00F4B1A68E6
:108AB00092071AD51B681B0717D40D4B201E98422E
:108AC00000D9181CFFF7B0FFFFF7B4FEFFF7D2FF85
:108AD000041CFFF735FFC1230121064A9B00D1503A
:108AE000201CFFF767FBFFF737FF10BD403B00205E
:108AF00060EA00000010014073DF704774DF7047C8
:108B0000012340681840704738B5051CFFF7F6FF91
:108B1000041E04D0A321054A490000F0B5FB01233F
:108B20006A68201C9A436A6038BDC0466419020016
:108B300038B5041C0D1E0D4B00D1136800212360B5
:108B40008D4201D1183B19686118084B002D00D1E6
:108B500053680B60AB0702D5201C02F07BF8EB07D3
:108B600002D5201CFDF7AAFF201C38BDE818020022
:108B700008B502210022FFF7DBFF08BD08B5036836
:108B8000143B1B68C018FFF7F3FF08BD10B5041CA9
:108B9000FFF7EEFF201CFDF791FF201C10BD08B56C
:108BA0000368143B1B68C018FFF7F0FF08BD08B549
:108BB0000A1C0021FFF7BCFF08BD0166704770B5B5
:108BC000456B041C0E1C002D07D10C20FDF76EFF19
:108BD000291C60630C22FFF711FE636B002B00D091
:108BE0001E8070BD836D70B5041C0E1C151C002BFF
:108BF00003D14020FDF75EFFA065A16D00291DD0C7
:108C0000221C543213880F2B18D89B00CB181E80BF
:108C10009D7013880A4901339BB213808E4208D19C
:108C2000A16D9B00CB1807499D70198013880133F3
:108C30001380012D02D901236634237070BDC04614
:108C4000021800000318000070B590B06B46041CB9
:108C5000D9710733002902D0012203618281231CCC
:108C6000261C66331B78543602AD002B04D13388A2
:108C70002384A36D636208E0281C00213822FFF7DB
:108C8000BDFD33882B83A36DEB61201C291C0830AC
:108C9000FEF73EFB051E03D09C210E4A00F0F4FABD
:108CA000A06D002804D0FDF709FF0023A3653380E1
:108CB000606B002803D0FDF701FF00236363206B86
:108CC000002803D0FDF7FAFE00232363281C10B010
:108CD00070BDC046641902000123F0B5041C42684F
:108CE0009BB09A43626003A8FEF7F4FF002803D00C
:108CF000E621574A00F0C8FA039A63680221002A65
:108D000003D00B4363601120A0E08B436360231CFE
:108D1000251C48331A700193E264626467352B782E
:108D2000033B012B08D84B4B04A9186800F0EDFC5D
:108D3000002801D005232B70271C287840370628EF
:108D400069D805F051FC595246332D06040005231D
:108D50002B7000233B703F4B186800285BD0082322
:108D600006AE337133730AAB0693311C12ABB3609A
:108D700000F0C6FC002805D00C21354AFF3100F078
:108D800083FA05E03379002B51D1337B002B4ED190
:108D9000012350222B70A3181A80283A5A803AE0F7
:108DA000231C05225C331A7003232B7004AB63640D
:108DB00001233B70231C002250331A805A80221C4E
:108DC0005C321378013BDBB21370002B23D10533E7
:108DD00009E0201C0521FFF737FF5022A3181A8055
:108DE000283A5A8001232B7015E0201C0021FFF740
:108DF0002BFF00233B702B70206E174906F09CF967
:108E0000164905F0A7FF05F0F3FD231C50339A8A9D
:108E1000188002331A80381CFFF76EFE051E10D032
:108E20009F210B4A490000F02FFA281C0EE0022275
:108E3000019B201C1A700421E664FFF705FF022342
:108E4000A7E70123626813436360EEE71BB0F0BD40
:108E5000641902009839002000007A4400401C4444
:108E6000144B70B50366061C031C0025041C6433F8
:108E700040361D80DD70291C301C1422FFF7BEFC1B
:108E8000231C201C52331D800A3B3570291C65644D
:108E900038221D700830FFF7B1FC02232372064B05
:108EA000A56523610123A381231C663454331D80EF
:108EB000257070BD00007A448519020010B5041CAD
:108EC00001F0D0FE044B201C1833236000236360A4
:108ED000FFF7C6FF201C10BD301902004068800754
:108EE000C00F704738B5041C0D1E01D1136801E096
:108EF000114B1833002123608D4201D1183B1968B2
:108F00006118002D01D1D36801E00B4B18330B60C1
:108F1000002D00D0094A111D201CFFF748FEAB07A9
:108F200002D5201C01F096FEEB0702D5201CFDF7B0
:108F3000C5FD201C38BDC04630190200F8180200DB
:108F400008B502210022FFF7CDFF08BD08B5036870
:108F5000143B1B68C018FFF7F3FF08BD10B5041CD5
:108F6000FFF7EEFF201CFDF7A9FD201C10BD08B582
:108F70000368143B1B68C018FFF7F0FF08BD08B575
:108F80000A1C0021FFF7AEFF08BD0020704700203B
:108F9000704770470020704708B5054B1B68002BD1
:108FA00004D01A680178126A181C904708BDC046A0
:108FB0004039002008B52521014A00F065F908BDB7
:108FC000E81902000B8810B50C1C102B02D10830D8
:108FD00003F062FB201CFEF789FA10BDF0B50C1CF3
:108FE000051C8DB01E1C12AB1B88171C009313AB05
:108FF0001B88019314AB1B78029315AB1B8803935A
:1090000001F030FE1B4B1C491833221C04312B602D
:10901000281C00F01DFC281C184B08301C332B604A
:1090200003F054FB0021164B05AC1960154B201CB6
:109030001C221D60FFF7E2FB009B201CA3606B4617
:109040001B79059723736B469B896660E3816B46AA
:109050001B7A23740C4B63610C4BA361FEF70CFA73
:10906000002803D044210A4A00F00EF9281C0DB054
:10907000F0BDC046501A0200C8190200881902004B
:109080000C3B002040390020998F0100B58F010072
:10909000E819020070B5041C0E1C151C002901D132
:1090A000136801E0204B1C3300222360964201D15B
:1090B0001C3B1A68A218002E01D12B6901E01A4B43
:1090C0001C33136000239E4202D12368183B1B68A7
:1090D000E318002E01D16A6901E0134A1C321A60BC
:1090E000FEF7FEF90022201C104B08301A60104BCE
:1090F000A36001F0AFFD291D002E01D00D49043100
:10910000201C00F0F7FBB30707D50A49201C1831D3
:10911000FFF74DFD201C01F09DFDF30702D5201C3B
:10912000FDF7CCFC201C70BD8819020040390020DE
:10913000E8250200C819020008B502210022FFF745
:10914000A9FF08BD10B5041CFFF7F6FF201CFDF7B2
:10915000B5FC201C10BD000038B5094B1D68002D62
:109160000CD0041C83680834DB69201C9847A84293
:1091700004D9201C03F090FAFEF740F938BDC04630
:109180000C3B002076DF704760DF704711DF7047CF
:1091900008B5064B011C1868826F002A04D04B1ECC
:1091A00099410423591A904708BDC04694390020BC
:1091B0007430034B0088C018431E9841C0B27047FA
:1091C0000100FFFF002383607047704708B504303B
:1091D000FFF782FD08BD08B5031C6B331B78002B1D
:1091E00002D101F059FE02E00430FFF775FD08BD21
:1091F000F0B591B0071C0E1C151C002140226846DA
:109200001C1CFFF7FBFA68461A4904F081FB1A4B55
:1092100002A81A68194B1A499A4200D1194904F058
:1092200077FB002F03D004A8391C04F071FB002E3B
:1092300003D006A8311C04F06BFB002D03D008A856
:10924000291C04F065FB002C03D00AA8211C04F0A3
:109250005FFB1122169B68460C93179B0E930FAB76
:109260001A703D2300226B441A7004F06FFA11B09B
:10927000F0BDC046A01A0200F85F010020112103D2
:10928000E81A0200401B020008B5034B011C1868D5
:1092900003681B6A984708BD9439002008B5031C71
:1092A0000A1C0248191CFFF7EFFF08BDEFBEADDE38
:1092B00008B506495022002304F0D4F8002803D052
:1092C0007221034AFFF7E0FF08BDC0464439002081
:1092D000B71A02000B680360183B4A681B68C2504B
:1092E0007047000010B5041C01F0BCFC014B201CB1
:1092F000236010BDE8180200F0B5012587B005AC69
:10930000201C0F1C161C002101220393FFF776FA84
:109310002378201CAB432370FFF736FF041E01D0D7
:10932000902106E0144804F0C1F8041E05D0201C6A
:109330009521124AFFF7A8FF1BE0114804F0C0F87E
:10934000041E02D0201C9B21F3E7FEF749FB0D9B76
:10935000311C00930E9B039A0193041C0C9B381C38
:10936000FFF746FF291C074A032004F0F3FA03F035
:10937000FFFD201C07B0F0BDC9960100B71A02001E
:10938000B19301009191010038B50D1C041C023D00
:10939000081CFEF7AFFA012D08D80434201CFFF793
:1093A0009DFD002802D0201CFFF796FC38BD000070
:1093B00008B5034B011C1868FFF7E6FF08BDC0465F
:1093C0009439002000487047A400001038B5041CF0
:1093D0000D1E114B00D11368002123608D4201D175
:1093E000183B196861180C4B002D00D1D3680B6035
:1093F0000A49002D00D1111D201CFFF7D8FBAB0737
:1094000002D5201C01F026FCEB0702D5201CFDF73D
:1094100055FB201C38BDC046A81B02005C1B020087
:1094200008B50A1C0021FFF7D1FF08BD08B50221CD
:109430000022FFF7CBFF08BD08B50368143B1B688B
:10944000C018FFF7F3FF08BD10B5041CFFF7EEFFCF
:10945000201CFDF733FB201C10BD036810B5143B26
:109460001B68C418201CFFF7E1FF201CFDF726FB3A
:10947000201C10BD38B5041C01F0F4FB1649201C5B
:109480000431FFF727FF251C201C144B6C351833C3
:1094900008C0FFF713FD281C01F0E4FB1049281C4D
:1094A000FFF718FF0F4B1035E366281C01F05CFE38
:1094B000201C903001F0ACF80B4B01221C60002303
:1094C000A367231C52427433281C1A8001F0B1FD9B
:1094D000201C246738BDC046D81A0200001B0200B9
:1094E0005C1B0200A81B02009439002070B5041C0C
:1094F0000E1C151C002901D1136801E01B4B183309
:1095000000222360964201D1183B1A68A218002E4F
:1095100001D1EB6801E0154B183313600022144BA6
:109520001A60FFF733FE201C903001F011F9201C67
:109530007C3001F08FFD201C6C30FFF777FF201D81
:10954000FFF7FEFC291D002E01D00A490431201C22
:10955000FFF72DFBB30702D5201C01F07BFBF307BF
:1095600002D5201CFDF7AAFA201C70BD001B0200CA
:1095700094390020D81A020008B502210022FFF712
:10958000B5FF08BD10B5041CFFF7F6FF201CFDF762
:1095900095FA201C10BD000038B5094B90301A68B0
:1095A000084B0D1C041C9A4204D1201C291C01F0FC
:1095B00060F803E000F0C5FF0428F6DD38BDC046C2
:1095C000F85F01002011210310B59030041C01F058
:1095D00003F8011E02D0201C01F06AF810BD70B51E
:1095E00090300E1C041C00F0EFFF051E0CD0291C4F
:1095F000201C00F0BBFF0368311CDB699847201C6E
:10960000291C00F0E5FFF0E770BD000038B50D1C27
:10961000041CFFF7E4FF2B88112B26D002D8102B57
:1096200005D04DE0192B2FD0552B3BD048E0231C03
:10963000201CAA8874331A80A91D07228830FFF7DE
:10964000CDF82368201C9B699847A36F002B02D09C
:10965000201C00219847231DDB6F002B30D0201CDD
:1096600001217C3001F05CFD2AE00122231C5242E2
:1096700074331A802368201CDB699847A36F002B82
:109680001ED0201C01210BE0AB79002B18D12368E0
:10969000201C5B6A9847A36F002B11D0201C02216D
:1096A00098470DE0AB79002B0AD174342088132140
:1096B000FFF768FD002803D0DF21024AFFF7E4FD31
:1096C00038BDC046B71A020010B5041CFEF764FD91
:1096D000034B211C1868FFF799FFFEF7F7FD10BD3B
:1096E0009439002038B50368041C5B690D1C984749
:1096F000002804D1201C291C7C3001F0E1FC38BD7D
:1097000008B5103003F036FF08BD08B50C3003F083
:109710007BFF08BD76DF704777DF704778DF7047E3
:109720007ADF70477CDF7047F0B587B01E1C0CAB4A
:109730001B8803AD00930DAB1B88081C01931123FC
:109740000C1C171C2B7007F0AFFF211C82B2281CC9
:10975000FFF7E8FF002803D01A21164AFFF794FD0F
:109760001549381C05F0E8FC144905F0F3FA05F03A
:109770003FF904AC20801049301C05F0DDFC0F4996
:1097800005F0E8FA05F034F96B461B886080A38089
:1097900001980A2104F0C2FFE080201CFFF7C0FFFF
:1097A000041E03D02321034AFFF76EFD201C07B0DF
:1097B000F0BDC046C81B020000007A4400409C4433
:1097C00010B5081CFFF7AAFF041E03D02D21024A82
:1097D000FFF75AFD201C10BDC81B020010B5081C65
:1097E000FFF79AFF041E03D03321024AFFF74CFD16
:1097F000201C10BDC81B020038B50D4B051C1B6892
:1098000074331888FFF786FF041E04D03A21094AF2
:10981000FFF73AFD0AE06D682B68281C5B699847E2
:10982000002803D0C820FDF769FBF5E7201C38BDF0
:1098300094390020C81B020062DF704708B5034B53
:10984000186803685B69984708BDC04694390020D2
:1098500010B5041C0B6803601C3B48681B68E05093
:1098600023688968183B1B68101CE1506260211C4A
:10987000FFF792FE201C10BD38B5041C0D1E01D14F
:10988000136801E0194B1C33002123608D4201D184
:109890001C3B19686118002D01D1536801E0134B7E
:1098A0001C330B6000239D4202D12368183B1B68C8
:1098B000E318002D01D1926801E00C4A1C321A60B5
:1098C0006068211CFFF780FEAB0707D50849201C04
:1098D0000C31FFF76CF9201C01F0BCF9EB0702D545
:1098E000201CFDF7EBF8201C38BDC046001C020010
:1098F000E81B020008B50A1C0021FFF7BDFF08BDE8
:1099000013B56B46DC1D0023201C2370FFF794FF6A
:10991000002803D12378012B00D82070207816BDB1
:10992000408B7047007F7047006A704770477047F0
:109930007047704710B5041C0368DB6A9847201C09
:1099400010BD10B5041C03689B6A9847201C10BD0D
:1099500008B503689B6A984708BD08B503689B6A09
:10996000984708BD38B50368041CDD6A0B68081CFD
:109970009B6A9847011C201CA847201C38BD012069
:109980007047000008B503681B69984708BD08B414
:10999000024B9C46243808BC6047C04685990100AC
:1099A00008B503680121DB6D984708BD0189054AA8
:1099B000031C0020914203D088331868012318400B
:1099C0007047C046FFFF0000883000688007C00F66
:1099D0007047000008B4024B9C46243808BC60471E
:1099E000C999010010B50368041C00290CD11B693A
:1099F000984700280BD0221C0221883213680B42A2
:109A000005D10B43136023689B6E201C984710BD43
:109A100008B4024B9C46243808BC6047E599010015
:109A200038B5041C0D1E194B00D1136800212360AA
:109A30008D4201D11C3B19686118144B002D00D1D7
:109A400013690B6000239D4202D12368183B1B68F9
:109A5000E3180E49002D00D1516919600C49002D01
:109A600000D1111D201CFFF745FFAB0706D5201CB8
:109A70000849FFF79CF8201C01F0ECF8EB0702D531
:109A8000201CFDF71BF8201C38BDC0464C270200E7
:109A90000C2802002028020008B50A1C0021FFF74C
:109AA000BFFF08BD08B502210022FFF7B9FF08BDBE
:109AB00008B50368143B1B68C018FFF7F3FF08BD27
:109AC00010B5041CFFF7EEFF201CFCF7F7FF201C6D
:109AD00010BD036810B5143B1B68C418201CFFF7A9
:109AE000E1FF201CFCF7EAFF201C10BDF0B593B08D
:109AF00004AE071C0391301C00210322FEF77EFEFA
:109B00000122102313433370102313437370B3786F
:109B100005320BAC9343043A1343201C00211A3244
:109B20000025B370FEF76AFE10222378291C134328
:109B300005A80D3A666123706560E5602561A56141
:109B4000FEF75CFE01221023134302AA13730122C5
:109B50001023134302AA5373937B06229343043AC0
:109B6000134306329343083293430F3A06AE13432E
:109B700002AA9373291C301C1422FEF73FFE05AB8A
:109B8000736001233A1C338114237832B3813B681C
:109B9000758100929D6A381C0399221C331CA847CA
:109BA00013B0F0BDF0B5071C93B00BAC0391201CB3
:109BB00000211C22FEF722FE3B1C0122042100256D
:109BC000082688331B6805A89B0813409A00237851
:109BD00065608B4313433343291C03222370E560E4
:109BE00025616561A561FEF709FE1022012302A926
:109BF00013430B73012313434B738B7B06218B435E
:109C000004390B43B34393430F3A06AE134302AAFE
:109C10009373291C301C1422FEF7F0FD05AB736012
:109C200001233A1C338114238032B3813B68758150
:109C300000929D6A381C0399221C331CA84713B05C
:109C4000F0BD0000F0B5041C0F1C85B000930AABFA
:109C50001B88161C01930BAB1B8802930CAB1B7863
:109C6000039300F0FFFF1E4B1E4D18332360291D88
:109C70003A1C201C04F06FFB201C291C0D9A1C317F
:109C80000E9B243001F000FD174B201C1A1CA03342
:109C90001C32226063626C3001F066FA221C211CC7
:109CA00000238C31883213600B804B60039B002BA8
:109CB00001D004231360201C311C009A04F033FBF4
:109CC000002809D1201C0299FFF76CFF002803D15E
:109CD000201C0199FFF70AFF201C05B0F0BDC0460B
:109CE000081F0200081D0200801D020070B5041C40
:109CF000261C903604F0BFFA3068002801D0FCF72B
:109D0000DDFE231C0025201C88331D609D802C3027
:109D1000291C356001F004FA201C291C383001F0A0
:109D2000FFF9A06AA84203D00368291CDB699847A1
:109D300070BD38B5041C221C7C32CB881288881D6B
:109D40009A4224D1028B022A21D1231C0131C97FDE
:109D5000013A8833C90716D51968251C0A431A60C9
:109D6000002290359A802B68934203D11420FCF78F
:109D7000A1FE2860236F002B14D0201C00216C3022
:109D800001F0CEF90EE01968914319600AE0221C37
:109D9000803212889A4205D12368028B20315B6E93
:109DA000201C984738BD38B5041C54300D1C03F0F6
:109DB00042FEA06A002806D02B781B2B03D1036833
:109DC0000021DB699847201C0121383001F0A8F9F7
:109DD00038BDF7B5041C0026271C90373B68002BC4
:109DE00034D0FFF78DFD002830D0231C8C331D8824
:109DF000002D08D1201C39684430142203F00AFEDB
:109E000085B2002D15D00122211C236800925B6BC6
:109E1000201C9C4678312B1C3A68E047231C8C336D
:109E2000002801D11D8011E00022AE191A80B6B2BF
:109E3000D2E7002E05D1221C0223883211689943F3
:109E40001160201C00212C3001F06AF9301CFEBD8D
:109E500038B5036F041C0D1C002B02D16C3001F0CF
:109E6000E8F8206F00280AD02368201C1B69984757
:109E7000002804D1201C291C6C3001F021F938BDC8
:109E800008B4024B9C46243808BC6047519E010030
:109E900070B5041C0E1C151C002901D1136801E0CB
:109EA000284B1C3300222360964201D11C3B1A68C8
:109EB000A218002E01D16B6A01E0224B1C33136003
:109EC00000239E4202D12368183B1B68E318002E32
:109ED00001D1AA6A01E01B4A1C321A60002E01D18E
:109EE000EB6A01E0174BA0336362231C90331868C0
:109EF000002801D0FCF7E2FD201C6C3001F0AAF82C
:109F0000201C291C2430002E00D00F491C3101F0E8
:109F1000FFFB291D002E01D00B490431201CFFF747
:109F2000BBFDB30707D50849201C3031FEF73FFEC3
:109F3000201C00F08FFEF30702D5201CFCF7BEFDAD
:109F4000201C70BD801D0200081D020008B5022102
:109F50000022FFF79DFF08BD08B4024B9C46243841
:109F600008BC60474D9F010010B5041CFFF7EEFFD1
:109F7000201CFCF7A3FD201C10BD000008B4024B00
:109F80009C46243808BC6047699F0100A02300223A
:109F900010B5074CDB00E250FEF7D2FCC2230122D1
:109FA0009B00E250034B7F32DA67FEF7D5FC10BD11
:109FB0000070004004E100E010B560240C4A0D4B35
:109FC000D158A143D150D4580B492140D150002839
:109FD0000AD001280AD12020D15801438020D15035
:109FE000D1588002014300E0D158D15010BDC04685
:109FF0000070004004050000FFFFFCFF10B51C24AA
:10A000000E4A0F4BD158A143D150062814D804F062
:10A01000EBFA04060913130C0F00D1580BE0D158CA
:10A02000042007E0D158082004E0D158142001E0B2
:10A030001820D1580143D15010BDC04600700040D7
:10A0400004050000054A064B10B50649D458000225
:10A050002140D150D1580843D05010BD007000406D
:10A0600004050000FF00FFFF38B50123054C002563
:10A070006360231CFC335D60FFF788FF024BE550F3
:10A0800038BDC046007000400405000038B50A4DD8
:10A09000281C01F069F8094C0949221C281CFCF70E
:10A0A00011FD084D281C01F06DF8281C0649221CE2
:10A0B000FCF708FD38BDC046A4390020242000204C
:10A0C00055B001009C39002079B0010008B5054B5E
:10A0D00000211A1CFC32516001315960024801F024
:10A0E0001FF808BD00700040A4390020032138B5D6
:10A0F000104B114CE2588A43E250E2581043E050B2
:10A100000E484368002B01D100F093FFFEF718FCC6
:10A11000C121012589000A4A655053581B021B0AB8
:10A12000535080231360FEF717FCA023DB00E5509B
:10A1300038BDC0460405000000700040A43900206E
:10A1400000E100E0F7B5104C0090201C0E1C00F060
:10A15000D9FF01940024A04213D001270B4D0C48D5
:10A160002F60311C00F0ACFFA04207D0A1233C1CA3
:10A17000DB00EB58009A9B059B0D1380019800F0C3
:10A18000E9FF201CFEBDC0469C3900200070004045
:10A19000A43900200079431E9841C0B2704703687B
:10A1A000103B1B68C0180079431E9841C0B270472D
:10A1B00030B50124221C0379011C9A400E48056821
:10A1C0000020154217D0A222A025D200ED05AA58E2
:10A1D000DA40131C4A792340A24205D0022A05D155
:10A1E00058425841C0B206E0181C04E0CA799A42AD
:10A1F00001D0201CCB7130BDD4390020012300795F
:10A200008340181C034B1B681840431E9841C0B282
:10A210007047C046C039002070B5041C0D1E01D126
:10A22000136801E01D4B1833002123608D4201D1DA
:10A23000183B19686118002D01D1536901E0174BD3
:10A2400018330B60A0212379C9059B005B18E0211E
:10A25000C9005E58124830405850A0202379C005EC
:10A260009B001B1858585850012320790D498340F2
:10A27000086898430860002D00D00B4A111D201C6F
:10A2800000F0EFFDAB0702D5201C00F0E3FCEB076C
:10A2900002D5201CFCF712FC201C70BD701F0200B0
:10A2A000FFFFFCFFC0390020301F020008B502216B
:10A2B0000022FFF7B1FF08BD10B5041CFFF7F6FF41
:10A2C000201CFCF7FBFB201C10BD000010B5054C4A
:10A2D000201C00F049FF201C0349044AFCF7F2FB54
:10A2E00010BDC046B039002055B001002420002028
:10A2F000F8B5A022A223BE212A48D205DB004900DE
:10A30000D3584258002A32D00022425026480168D1
:10A310004B4026490C689C43254B1C600368012177
:10A3200091400C421BD0A225A026ED00F6057559E0
:10A330000D4202D08B43C02101E00B438021A025B8
:10A3400089028C46ED0591004919E025ED004F5931
:10A35000184E37404F5167464E5937434F510132DF
:10A360001F2ADCD103600121134800F0D9FE00242C
:10A37000124AA3009A18516801290ED10021516098
:10A380000F4A9858884208D083688B4202D0E0B2C6
:10A39000984702E003685B6A98470134042CE7D1D0
:10A3A000F8BDC04600600040BC390020C039002024
:10A3B000D4390020FFFFFCFFB0390020FC600040D2
:10A3C000C4390020F7B5009308AB1B780D1C01932E
:10A3D00009AB041C161C1F78111D002D03D000F0C2
:10A3E00041FC30490431201C00F0C6FC002D01D195
:10A3F000336801E02C4B183300222360954201D1D1
:10A40000183B1A68A218002D01D1736901E0264B90
:10A41000183313606B461B78391C23716B461B790C
:10A4200000226371201CA77100F08AFC201C00F040
:10A4300065FC012321791D4A8B40E07111680028D9
:10A4400003D099431160032202E00B431360022200
:10A450001104A279237992000A43A021C133FF336A
:10A460009B00C9055A5001232179114A8B4011687C
:10A4700010480B4313604368002B11D100F0D9FD45
:10A48000FEF75EFAC1210C4A890050580B4B03407D
:10A49000802000040343535040231360FEF75CFA0E
:10A4A000201CFEBD301F0200701F0200BC390020BE
:10A4B000C0390020B039002000E100E0FFFF00FFBC
:10A4C00013B50C1C0092019301210022231CFFF7FD
:10A4D00079FF16BD104808B54368002B11D100F074
:10A4E000A8FDFEF72DFAC1210C4A890050580C4BEB
:10A4F0000340802000040343535040231360FEF7C1
:10A500002BFAFEF71DFA8021C123064A09069B009B
:10A51000D150FEF721FA08BDB039002000E100E07B
:10A52000FFFF00FF0060004008B5011C014800F07B
:10A53000C7FD08BDB039002008B50368DB6A98473D
:10A5400008BD406970474069431E1843C00F7047FB
:10A550004369002B01D0C3689B68181C704743698E
:10A56000002B01D003699B68181C70470B1E03D099
:10A570004269131E00D08B68181C704708B5031C75
:10A580004069002804D01A68181CD26BD96890471B
:10A5900008BD08B5031C4069002804D01A68181CBF
:10A5A000D26B1969904708BD38B50368041C9B6DD0
:10A5B0000D1C9847031E05D02368201CDB6B291C4B
:10A5C00098470123181C38BDC06870470069704760
:10A5D000486870470868704738B50368041C9B6C6E
:10A5E0000D1C9847011E07D08B68AB4204D023682E
:10A5F000201C1B6D9847F5E7081C38BD08B5081CE2
:10A60000FCF75CFA08BD08B50C20FCF74FFA08BD52
:10A6100010B5041C00F026FB201C054B083308C0B5
:10A6200000F0B0FD0023201CE3602361636110BDD6
:10A63000F01F0200F8B5051C0C200F1CFCF736FAC1
:10A64000041C2E1D301C00F052FD6B69A760002B0E
:10A6500003D0EA681460626001E02C61636000224C
:10A660000133EC60301C22606B6100F073FD201C34
:10A67000F8BDF8B5051C0C200F1CFCF717FA041CDC
:10A680002E1D301C00F033FD6B69A760002B03D03A
:10A690002A695460226001E0EC60236000220133EB
:10A6A0002C61301C62606B6100F054FD201CF8BD11
:10A6B000F8B50E1E1ED00C1C071D051C381C00F022
:10A6C00016FD2368B6686268002B01D1EA6000E0DD
:10A6D0005A606268002A01D12B6100E013606B6947
:10A6E000281C013B6B612B68211CDB6E9847381CD2
:10A6F00000F030FD301CF8BDF7B5051C061D301C00
:10A700000F1C019200F0F3FC6B69002B1CD0EC686D
:10A71000002C16D063680093002F0BD0019BA0681B
:10A72000002B05D0002805D00368DB68984701E0BE
:10A73000FCF7C4F92B68211CDB6E281C9847009C91
:10A74000E6E7EC602C616C61301C00F003FDF7BDA6
:10A75000002110B5041C074B0A1C08330360FFF7E7
:10A76000CBFF201D00F088FC201C00F073FA201C99
:10A7700010BDC046F01F020010B5041CFFF7E8FF33
:10A78000201CFCF79BF9201C10BDF7B5051C0E1E04
:10A79000019218D00C20FCF789F9041C2F1D381CDD
:10A7A00000F0A5FC019BA3603368002B00D05C6027
:10A7B00023606B69666001333460381C6B6100F0A4
:10A7C000C9FC201C03E0036801999B699847FEBD02
:10A7D000F7B5051C0E1E019218D00C20FCF766F987
:10A7E000041C2F1D381C00F082FC019BA3607368C1
:10A7F000002B00D01C6063606B69266001337460BD
:10A80000381C6B6100F0A6FC201C03E00368019972
:10A810009B699847FEBD70B54469002C16D0041C96
:10A82000061D301C0D1C00F062FC0023E468002CA7
:10A8300009D0AB4204D1301C00F08CFCA46805E0C8
:10A8400064680133F3E7301C00F084FC201C70BD09
:10A85000F8B5051C406900281AD02E1D301C0F1CAD
:10A8600000F045FC0023EC68002C0DD0BB4208D161
:10A87000301C00F06FFC2B68281CDB6B211C9847F8
:10A8800006E064680133EFE7301C00F063FC201C35
:10A89000F8BD0000074B10B50833041C0360806846
:10A8A000FCF70CF90023201CE380237100F0D2F99F
:10A8B000201C10BD6820020010B5041CFFF7EAFF41
:10A8C000201CFCF7FBF8201C10BD000010B5041C78
:10A8D00000F0C8F9201C054B0021083308C00822ED
:10A8E000FDF78CFF0023201C237310BD682002009D
:10A8F00070B5041C80680D1C161C002809D0A0220D
:10A9000000212379D205C133FF339B009950FCF716
:10A91000D5F803207043FCF7CDF82B1CA022C133DF
:10A92000FF330F49D2059B002571A060E680995046
:10A930000123AB401D1C0B4BD5500022E3889A42EB
:10A940000CDA032300215343A0680132C154A068EC
:10A95000C0184170A068C3189970EFE770BDC04679
:10A96000030200000C050000002210B5C3889A42C3
:10A970000CDA03230021534384680132E1548468D4
:10A98000E41861708468E3189970EFE710BD000067
:10A99000F7B5037B002B00D147E1012403790027A1
:10A9A0009C40A0238D4EDB05051C07739C5101F0D4
:10A9B00005FE331C0097E888009A824200DB20E104
:10A9C00000220192019A022A00DD16E10321009F74
:10A9D000AA687943019EA1279619765CA021FF0001
:10A9E000C905F609CC510AD0C046C046C046C0468B
:10A9F000C046C046C046C046C046CC5009E0C0462E
:10AA0000CC50C046C046C046C046C046C046C04600
:10AA1000C0460321009F019E79439619775CA021CF
:10AA2000A126C905F6008C517F060AD5C046C0464E
:10AA3000C046C046C046C046C046C046C046CC50D0
:10AA400009E0C046CC50C046C046C046C046C046DD
:10AA5000C046C046C0460321009F019E7943961917
:10AA6000775CA021A126C905F6008C51BF060AD546
:10AA7000C046C046C046C046C046C046C046C046A6
:10AA8000C046CC5009E0C046CC50C046C046C04687
:10AA9000C046C046C046C046C0460321009F019E36
:10AAA00079439619775CA021A126C905F6008C513F
:10AAB000FF060AD5C046C046C046C046C046C0468E
:10AAC000C046C046C046CC5009E0C046CC50C04647
:10AAD000C046C046C046C046C046C046C046032128
:10AAE000009F019E79439619775CA021A126C90594
:10AAF000F6008C513F070AD5C046C046C046C04646
:10AB0000C046C046C046C046C046CC5009E0C0461C
:10AB1000CC50C046C046C046C046C046C046C046EF
:10AB2000C0460321009F019E79439619775CA021BE
:10AB3000A126C905F6008C517F070AD5C046C0463C
:10AB4000C046C046C046C046C046C046C046CC50BF
:10AB500009E0C046CC50C046C046C046C046C046CC
:10AB6000C046C046C0460321009F019E7943961906
:10AB7000775CA021A126C905F6008C51BF070AD534
:10AB8000C046C046C046C046C046C046C046C04695
:10AB9000C046CC5009E0C046CC50C046C046C04676
:10ABA000C046C046C046C046C0460321009F019E25
:10ABB00079439219565CA022A121D205C9005450B4
:10ABC000F6070DD5C046C046C046C046C046C04682
:10ABD000C046C046C046D4500CE0C0460C0500003C
:10ABE000C046D450C046C046C046C046C046C04617
:10ABF000C046C046019A0132E3E6009A0132009253
:10AC0000DAE601F0DFFC5023C046C046C046C0462D
:10AC1000C046C046C046C046C046C046C046C04604
:10AC2000C046C046013B002BEED1F7BD70B5C688CB
:10AC300004AC257800248E420AD903346143846829
:10AC400064186270012482685354836859188D70A7
:10AC5000201C70BD704710B5041CFBF72FFF201C93
:10AC600010BD0000014B08330360704780200200D4
:10AC700038B5A02403250379E405C133FF339B00D5
:10AC80001D51012A19D0002A0CD0022A21D1A0225C
:10AC9000E02480250379D2059B009B18E4001A5913
:10ACA000AD0014E0A022E024C0250379D2059B006A
:10ACB0009B18E4001A59ED0009E0A0220379D2059F
:10ACC0009B009B18E022D2009C589C5001E02A4334
:10ACD0001A5103689B69984738BD00000123A022E0
:10ACE0000079D2058340002902D0A121C90000E0EB
:10ACF000014953507047C0460C050000A223A02212
:10AD0000DB00D2050079D358C340181C012318403A
:10AD10007047000010B5A02304790120064ADB0526
:10AD20009A58011CE240A140024202D1A122D20065
:10AD300000E0024A995010BD040500000C05000017
:10AD40000379A020C005002A09D0C133FF339B003E
:10AD5000032901D1054A00E0054AC25004E0C1338D
:10AD6000FF3389009B00C1507047C0460C000300B0
:10AD7000040002000171704738B50D1C041C043139
:10AD800003F003FB2B68201C2360183BEA681B6858
:10AD9000E2500023237138BD10B5041CFFF762FF99
:10ADA0000549201C043103F0F0FA044B201C183331
:10ADB00023600023237110BD00210200C020020087
:10ADC00038B5041C0D1CFFF74DFF0549201C04314C
:10ADD00003F0DBFA034B25711833201C236038BDC8
:10ADE00000210200C020020038B5041C0D1E01D154
:10ADF000136801E0114B1833002123608D4201D10B
:10AE0000183B19686118002D01D1D36801E00B4B84
:10AE100018330B60002D00D0094A111D201C03F0CF
:10AE2000EEFAAB0702D5201CFFF714FFEB0702D5A3
:10AE3000201CFBF743FE201C38BDC046C02002008A
:10AE40000021020008B502210022FFF7CDFF08BD56
:10AE500010B5041CFFF7F6FF201CFBF72FFE201C8B
:10AE600010BD08B50A1C0021FFF7BEFF08BD34DF86
:10AE70007047000010B5041CFDF762FD054B022170
:10AE80001A68002C01D00A4300E08A431A60FDF7DB
:10AE900063FD10BD403B002008B500F053FBFFF7F9
:10AEA000E6FF002803D04121014AFEF7EDF908BD75
:10AEB0001021020010B5054B054C1A685B6820682C
:10AEC000616804F099FC2060616010BD10200020D2
:10AED000D839002010B506F07BFA074B074C1A68EA
:10AEE0005B6805F0EFFB021C0B1C2068616804F036
:10AEF00083FC2060616010BD10200020D839002044
:10AF000070B502F047F80D4A0D4B041C0D1C03F000
:10AF100021FD0C4E00280AD1201C291C074A0A4B8F
:10AF200003F004FD002802D13460756004E0E022E3
:10AF3000064B12063260736070BDC046FCA9F1D2A8
:10AF40004D62603F102000204D62403F4D62503FF7
:10AF50001F4BF7B51E685F68041C0D1C301C391CA4
:10AF60000022002303F0F6FC00281CD0321C3B1CFE
:10AF7000201C291C05F040FE164B1A685B6805F082
:10AF8000A1FB154B0090019118685968321C3B1CBD
:10AF900005F032FE0B1C021C0098019904F054FFCE
:10AFA0000C4B186059600C4B201C1C605D60084BFA
:10AFB000291C1C605D600022002303F0CBFC0028EC
:10AFC00004D0044B1868596801F0FEFFF7BDC04675
:10AFD000E039002010200020D8390020014B1868EB
:10AFE000596870471020002008B5034B186859684D
:10AFF00006F07CF908BDC046D83900200020704713
:10B000004068431E9841C0B270478068704770B571
:10B01000041C40680E1C151C002801D003F0DAF84F
:10B02000301C291C02F08AFF6060431E9841C0B2A8
:10B0300070BD10B5041C4068002801D003F0CAF8A8
:10B0400000210322012002F059FF6060431E984155
:10B05000C0B210BD074B10B50833041C0360406834
:10B06000002801D003F0B6F8201CFFF7F3FD201CE8
:10B0700010BDC04650210200074B10B50833041C18
:10B0800003604068002801D003F0A4F8201CFFF7FB
:10B09000E1FD201C10BDC0462821020010B5041C93
:10B0A000FFF7D8FF201CFBF709FD201C10BD10B5D1
:10B0B000041CFFF7E1FF201CFBF700FD201C10BD66
:10B0C00038B545682B1E10D00A1C00218368041C6B
:10B0D000013383600B1C281C02F0E9FF431E5A4217
:10B0E0005A41D3B2A268013AA260181C38BD406828
:10B0F00008B5002805D0002101220B1C524202F0A5
:10B10000D6FF08BD08B54368181E08D00A1C0021E8
:10B110000B1C02F0CCFF013843425841C0B208BDBD
:10B1200007B54068002811D00B1E0CD0002301A9E0
:10B13000019302F091FF019B002B07D08022044B6A
:10B1400052051A6002E01A1C02F002FF07BDC04659
:10B1500004ED00E0406808B5002804D000210A1C76
:10B160000B1C02F0F5FE08BD10B5041CFFF77AFDBC
:10B17000034B201C0833236000236360A36010BDD1
:10B180005021020010B5041CFFF76CFD044B012098
:10B190000833236002F04EFF6060201C10BDC046E3
:10B1A0002821020008B503681B69984708BDC06CD8
:10B1B000C00F704708B54830008802F0A1FD08BDF7
:10B1C00010B5041C02F090FD201C00F002FA10BD26
:10B1D00013B56B46DC1D201C02F088FD031C00200B
:10B1E000834204D12078013843425841C0B216BD91
:10B1F00010B50378032B0AD0042B0ED1074B02792C
:10B200001B681968181C0C6F0121A04705E0034B4F
:10B21000012118680368DB6D984710BDE8390020EC
:10B2200070B5041C0E1C151CFFF71CFD0949321CCF
:10B230002B1C201C043100F027FA074B221C18336A
:10B240002360002348321380E364044B201C1C60FD
:10B2500070BDC0461022020080210200E8390020A3
:10B2600070B5051C0E1C141C002901D1136801E0E7
:10B27000134B183300222B60964201D1183B1A68F9
:10B28000AA18002E01D1E36801E00D4B18331360BA
:10B29000281CFFF78FFF211D002E01D00949043122
:10B2A000281C00F035FAB30702D5281CFFF7D2FCA2
:10B2B000F30702D5281CFBF701FC281C70BDC04613
:10B2C000802102001022020008B502210022FFF7AF
:10B2D000C7FF08BD10B5041CFFF7F6FF201CFBF7E5
:10B2E000EDFB201C10BD000030B589B00791511E48
:10B2F0008A41051C05AC23710C9B03A863700D9B50
:10B30000627123700E9BD9B20F9BA170E370FFF79F
:10B3100057FD03A800210122FFF7AAFC281C0021E9
:10B3200048300180064A00900323201C02F010FCE4
:10B33000041C03A8FFF786FD201C09B030BDC046E1
:10B34000F1B1010070B5041C0D1C3030111C161C2D
:10B3500002F02DFB6068002805D01B2E03D1036886
:10B36000291CDB699847201C291C1430FFF7D8FEE4
:10B3700070BD37B5041C002911D06B46DD1D20308F
:10B38000291C02F026FB002819D0201CE36C083091
:10B390005B005B08E3640121FFF7C2FE12E0C36CAF
:10B3A000002B0FDB6B46DD1D2030291C02F011FB4A
:10B3B000002807D18023E26C1B061343E36428783E
:10B3C00002F070FC37BD000008B5002A04D0101C44
:10B3D0001B21024AFDF758FF08BDC046F0220200BB
:10B3E00013B501A8FCF776FC041E03D1019B002BCA
:10B3F000F7D103E02421024AFDF746FF201C16BDC9
:10B40000F022020073B5041C151C0E1CFFF72AFC69
:10B410000F49201C043102F0B8FF0E4B08201833EE
:10B420002360FBF743FB0C4B011C00936B46DD8054
:10B430007543A060A58068469E80FCF721FB00282C
:10B4400003D03D21054AFDF71FFF201C76BDC046F5
:10B4500008230200A0220200C9B30100F02202006A
:10B4600070B5051C0E1C141C002901D1136801E0E5
:10B47000134B183300222B60964201D1183B1A68F7
:10B48000AA18002E01D1E36801E00D4B18331360B8
:10B49000A868FBF713FB211D002E01D009490431D8
:10B4A000281C02F0ACFFB30702D5281CFFF7D2FB23
:10B4B000F30702D5281CFBF701FB281C70BDC04612
:10B4C000A02202000823020008B502210022FFF793
:10B4D000C7FF08BD10B5041CFFF7F6FF201CFBF7E3
:10B4E000EDFA201C10BDF8B51C1C06AB1B78071C20
:10B4F0000E1C151C002B0ED1FCF74EFE231CB86849
:10B50000311C2A1CFCF758FB041E01D1FFF768FF11
:10B51000FCF7DCFE04E0231C8068FCF74DFB041CF8
:10B52000201CF8BD10B5041C081CA168FCF784FBA6
:10B53000041E03D05C21024AFDF7A6FE201C10BDAC
:10B54000F022020008B5FFF74BFF08BD37B56B4688
:10B55000DC1D002323700368211C9D690123012247
:10B560005B42A84720783EBD13B56B46D9710733BF
:10B57000191C012302685B42D4690122A04713BD54
:10B58000F7B5051C0F1C012400920193009B661E59
:10B590009C4210D02B68281C9B6A9847011E1F29CB
:10B5A00009D9019BB855002B03D02B68281CDB6AF6
:10B5B00098470134EAE70023301CBB55FEBD08B5AF
:10B5C000303002F01DFA08BD08B5203002F01CFA38
:10B5D00008BD10B5041C203002F00DFA201C3030DC
:10B5E00002F009FA10BD0000F8B5041C0F1C161C6F
:10B5F0001D1C002942D0FFF735FB224B18330022D7
:10B600002360974201D1183B1A68A218002F01D17C
:10B61000736801E01B4B1833271C261C0837136086
:10B62000381C1436FFF7A0FD301CFFF79DFD0023EA
:10B6300063609D421FD0069A9A421CD0281DFBF7DA
:10B6400039FA069B2064181DFBF734FA6064201C4D
:10B65000AAB2216C203002F099F9201C069B616C83
:10B660009AB2303002F092F9381CFFF7E2FC301C3D
:10B67000FFF7DFFC04E02364636401E01368BEE7C6
:10B68000201CF8BD1823020037B50D1C141C0093B4
:10B690002A1C0021231CFFF7A7FF3EBD38B5041C60
:10B6A0000D1E01D1136801E0184B183300212360EF
:10B6B0008D4201D1183B19686118002D01D15368E2
:10B6C00001E0124B18330B60206CFBF7F7F9606C4C
:10B6D000FBF7F4F96068002803D003680021DB69F8
:10B6E0009847201C1430FFF7B5FC201C0830FFF7EA
:10B6F000B1FCAB0702D5201CFFF7ACFAEB0702D573
:10B70000201CFBF7DBF9201C38BDC04618230200C3
:10B7100008B50A1C0021FFF7C1FF08BDF7B5051CDD
:10B720000E1C1F1C141C0192002C18D02B68281C06
:10B730001B6A9847002812D0281C311C303002F0B8
:10B7400048F9002802D1013C0136EDE7002F06D070
:10B75000281C391C1430FFF7B3FC0028E4D1019BEE
:10B76000181BFEBDF7B50193214B0E1C171C196861
:10B77000204A041C204B914205D0802219680020E9
:10B780005201914232D83D1C1A68BA181A60002D35
:10B7900005D02368201C1B6A9847002806D123681F
:10B7A000201CDB6D00219847781B1FE0201C31789E
:10B7B000203002F0FCF8002802D1013D0136E6E716
:10B7C000019B002BEBD02368201CDB6D00219847E8
:10B7D0002368201C1B6E98470028D8D0201C019994
:10B7E0000830FFF76DFC0028D1D1D8E7FEBDC04678
:10B7F000F85F010020112103EC39002038B5041C4A
:10B800000D1C201C203002F0FBF8002807D0201C63
:10B81000291C0830FFF754FC0028F2D100E0013069
:10B8200038BD70B586B0051C0E1C01A8202100F0A3
:10B8300045FB2B68281C9B6A9847041E15D0002ED8
:10B8400004D02B68281CDB6A211C9847231C2D3B45
:10B85000DBB2012B04D9201C05F012FF002804D014
:10B8600001A8211C00F05FF9E3E7002101A800F026
:10B870007EF801F025FB041C01A800F0FBFA201C57
:10B8800006B070BD70B586B0051C0E1C01A8202145
:10B8900000F014FB2B68281C9B6A9847041E10D0EC
:10B8A000002E04D02B68281CDB6A211C9847201C22
:10B8B00005F0F0FE002804D001A8211C00F033F9A7
:10B8C000E8E701A8002100F052F8102101F0CCFABD
:10B8D000041C01A800F0CEFA201C06B070BD70B5A3
:10B8E00086B0051C0E1C01A8202100F0E7FA2B6889
:10B8F000281C9B6A9847041E12D0002E04D02B6887
:10B90000281CDB6A211C98472D2C04D0201C05F034
:10B91000B7FE002804D001A8211C00F004F9E6E7D6
:10B9200001A8002100F023F80A2101F09DFA041C6F
:10B9300001A800F09FFA201C06B070BD704708B542
:10B94000036800215B6A984708BD08B503680021B9
:10B950005B6A984708BD0020704708B5036800215E
:10B960005B6A984708BD7047006980B2704700293C
:10B9700003D003695B005B08036100238268C16830
:10B980005354806870470023018A10B5C3608B420E
:10B9900009D08268D2181478002C02D1C3601470C8
:10B9A00001E00133F3E7C06810BDC06870470023B1
:10B9B0008268C36013707047C2680023914201DA45
:10B9C00083685B5C181C7047036910B59CB2A14288
:10B9D00003DA5B0001D483685A5410BD026910B5C4
:10B9E000002352000DD4C26893420ADA8268D2184A
:10B9F00011780C1C613C192C01D8203911700133CD
:10BA0000F1E7036800215B6A984710BD026910B531
:10BA1000002352000DD4C26893420ADA8268D21819
:10BA200011780C1C413C192C01D8203111700133C4
:10BA3000F1E7036800215B6A984710BD002330B529
:10BA4000CC5C002C10D0C568AA420DDA8568AD5CCC
:10BA5000A54206D10133CC5C002C03D1D01A0130B1
:10BA600004E000230132EBE70120404230BDF7B58E
:10BA7000051C0F1C161C00240193B4420BDA2A6823
:10BA8000A300526D281C9446F958019AE0470028FB
:10BA900004DA0134F1E70120404200E0201CFEBD41
:10BAA00070B500254B5D002B1AD0C468A24217DA8E
:10BAB0008468A45C261C413E192E00D820341E1C2C
:10BAC000413E192E00D820339C4206D101354B5DF2
:10BAD000002B03D1501B013004E000250132E1E7C7
