:020000021000EC
:1060000000400020FF600100D5600100D760010062
:106010000000000000000000000000000000000080
:10602000000000000000000000000000D960010036
:10603000000000000000000091830100000000004B
:10604000DB600100DB600100DB600100DB60010060
:10605000DB60010000000000FD9C0100DD9A0100F2
:10606000DB600100D1B80100F1B80100DB60010084
:10607000DB600100DB600100DB600100DB60010030
:10608000DB600100D9830100DB600100DB600100FF
:10609000DB600100DB6001003DC30100DB6001004B
:1060A000DB600100DB600100000000000000000078
:1060B00000000000000000000000000000000000E0
:1060C000EC0502000020002018000000182000202D
:1060D000241B0000FEE7FEE7FEE7FEE7002310B505
:1060E000934203D21C585C500433F9E710BD0023DF
:1060F0008B4203D200221A500433F9E77047802301
:1061000003221149DB0510B55A501049104C5A5062
:10611000104B9C4206D220686168A268FFF7DEFF40
:106120000C34F5E70C4B9C4205D220686168FFF700
:10613000DEFF0834F6E700F0C5FC00F011FD09F0C1
:1061400035F900F01FFDFEE72405000054050000AE
:10615000C0600100CC600100D460010000207047E5
:106160000120704738B5041C0D1C04F091F8201C68
:10617000054B08300833236003F042FF0022631D03
:106180006560201CDA7738BD80F50100F7B5161D73
:10619000071C301C151C0193009100F0EBFA022340
:1061A0000370193343706B461B78041C8370C570F1
:1061B000002D04D0043001992A1C02F019F87868E7
:1061C000321C0368211CDD6901235B42A847201CA7
:1061D00000F0D4FA0120FEBD10B5041C054B0833B5
:1061E0000360083003F0ACFF201C04F04AF8201CC8
:1061F00010BDC04680F5010010B5041CFFF7ECFF90
:10620000201C00F0BBFA201C10BD10B50830041C87
:1062100003F09FFE031C0020834202DD201C03F0DC
:10622000C0FE10BDF0B5041C40688BB003681B6A4B
:106230009847039000285FD0606805A9036814227E
:106240009D690023A8470026C3B20293029B002B3E
:1062500052D0029AF3B293424ED2651DE87F05AB4D
:10626000F35C042846D806F0C5FE03070E19320079
:10627000022B3FD1013B28E01B2B3BD1082000F033
:1062800075FA206207E00222216A0A70216A193237
:106290004A70226A9370EB7F013316E0226AD37052
:1062A000276AFB780193002B08D0181C00F062FAD3
:1062B0007860EB7F0133EB77A31D19E0201C391CBC
:1062C000083003F0AFFE6B461B79EB7712E0226AD1
:1062D0005068A21DD17F4D1CD5774354216AD27FCF
:1062E000CB789A4206D3201C083003F09BFE631D36
:1062F0000022DA770136A9E703980BB0F0BD000061
:106300007FB50C1C02A8142104F070F8012102A82A
:106310000A1C03F0C3FF03F0E5FD0120404203F037
:106320000BFE02A804F00CF82368201C5B6C984755
:10633000051EF2D02368201C9B6A291C984703681D
:10634000061C5B6A9847002809D06B4632790733F0
:106350001A70064A0B2110680122FFF717FF236805
:10636000201CDB6C291C9847E2E7C046182000205F
:10637000F0B5DF4C8027A54400248AA802F07EFDFA
:10638000211C221C231C0094019402948AA802F070
:10639000B5FCFA23032502261B01D64A0193D649F0
:1063A000D64B0094A5A802F0C7FE211CA5A802F0B8
:1063B0001DFFD34A039704978AA9012300950196EC
:1063C00002943EA803F046F9CE4B14A8196805F0D4
:1063D0005BFB039704978AA915AA012300950196F0
:1063E000029464A803F036F9C74B221C00938AA9D3
:1063F000C64B01950294039410A802F0FDFA8BA8F5
:10640000C34902F0E8F859218BA802F0E6F8649B32
:1064100064A85B699847649B071C9B6964A89847BC
:10642000391C021C8BA802F0EBF8211C8BA802F08F
:1064300019F98BA802F05EF9012004F031F815215A
:106440000AA803F0D3FF01220AA8211C03F026FFAB
:106450006DA924A8FFF786FEAE4B24AA1A6003F0AC
:106460000BFB201C03F0B0FA301C03F0CFFA301CF9
:1064700003F044FB211C2EA804F0AEFEA6492EA872
:1064800004F0CCFE2EA804F0A3FE1EA803F0B8FD75
:10649000A2491EAA19A805F0EDF819A8A049602282
:1064A0002B1C04F0E3FF0CA805F06CF924A8FFF7FF
:1064B000B9FE002800D109E124A8FFF7A6FE041EBA
:1064C00000D103E180780D2800D9F3E006F092FDB9
:1064D000070CF219254250717B889DF2B2BE24A8A8
:1064E000002104228F4BE9E03021002302AA521838
:1064F0001370312202AB9B182F39197024A82F3A40
:10650000D6E063680EA8197803F070FF63680EA8E0
:106510005978012203F0C2FE18E063680EA81D78C6
:10652000291C03F063FF6368002259780EA803F06A
:106530001DFF02AB0EA81D7703F0F6FE02AB5877E5
:10654000042124A8022209ABFFF720FE0EA803F0C5
:106550008FFFB5E003F022FA6368187803F034FA8D
:106560006368587803F052FA022003F0C7FAA7E0F4
:106570000022636809AD1B780EAE2A805A1E337064
:10658000052A03D8684AD05C03F064FA0121281C6C
:10659000494203F0DFFA002806D0312002ABC018D0
:1065A000291C022201F024FE24A806210322331C08
:1065B00084E061680EA8042201F01AFE2EA80E994C
:1065C00004F02CFE7CE061680EA80D7804220131F5
:1065D00001F00EFE2EA8291C0E9A04F0E7FD6FE0D4
:1065E000636808205A781F7807929E7800F0BEF8FA
:1065F000051C391C079A331C03F06AFC03F072FC7B
:106600001EA8291C03F00EFD5AE0002563681F78C0
:106610001EA803F09EFC854252DA1EA8291C03F036
:10662000F2FD061E03D00379BB4200D180E00135A4
:10663000EDB2EDE763683D4A597818789B789B0086
:106640009A5805F001FA05F003FA39E0616801266D
:106650004B780F785A1E93413022DBB2079302AB7E
:106660009B188D781E70374216D0281C00F082F8D7
:10667000061C2A1C311C079B381C05F0EDF9031C75
:106680000D2124A81A1E01D02A1C331CFFF77EFD01
:10669000301C00F073F813E003312A1C079B381CF0
:1066A00005F0DAF9031C0D2124A81A1E06D0321CAD
:1066B0000EAB03E00022FF21131C24A8FFF766FDA8
:1066C000606800F05BF8201C00F058F80CA805F09A
:1066D00045F8FA235B00984205D90CA805F038F874
:1066E0000AA803F02DFE10A802F044FADEE6C04628
:1066F0002CFDFFFF0000F040A4F501000000204148
:1067000030FC0100002000203075000088130000DC
:106710000000FE42182000200AD7A33C01630100BC
:10672000ACF50100D8F50100DCF5010098F5010099
:106730001EA8291C03F084FD3368301CDB689847D1
:10674000BEE7C04608B50648064900F047F8D4221F
:10675000054B520008201A6002F0ACFA08BDC04692
:106760001C200020701700000420002008B501F054
:106770001BFD08BD08B501F017FD08BD08B501F007
:106780001FFD08BD00207047FEE74268002A0DD0BB
:1067900093681903090F09D181689BB20C31CB189A
:1067A00083605368002B00D0186043607047031C5F
:1067B000081C1A890C300C3A1818521A82605A6850
:1067C000036042605A68002A00D0106080225202A2
:1067D00089B211435860996070470000174B70B53B
:1067E000174A1C68174B944202D01A68002A23DC0F
:1067F0001A68032A20DC0C221D68134C55432851CB
:106800001D684E1E5543651969601D683018554353
:106810006519A86018680C395043005989B2816025
:106820001968514308590021016018684243125900
:1068300051601A6801321A6070BDC046FC0F00003A
:1068400000E7A8958C37002090370020002310B572
:106850000A4A126893420BDA0C225A4308495458E8
:10686000844203D88A189268904204D30133EFE738
:106870000120404200E0181C10BDC0468C370020AB
:106880009037002010B5031E34D01C1CFFF7DEFF2C
:10689000A368C00F9A0701D0022210432168002983
:1068A0000BD04A68A24201D0042210430A898A18F8
:1068B0000C32944201D00822104362681B04002A63
:1068C0000BD01168A14201D0102108431B0C0C33DE
:1068D000E3189A420ED020230BE00C2242430649D3
:1068E0001B0C8A1892680C33E3180132934201D0D2
:1068F0004023184310BDC0469037002010B5041E39
:106900002BD003230022C11C9943154B1B689A42CC
:1069100022DA0C23534313481C58002C1AD0A368C6
:106920001803000F14D198B2884211D90A1C1832EA
:10693000904203D3201CFFF73AFF03E0802252026B
:106940001343A360A3681B031B0BA3600C3404E078
:106950006468E2E70132D8E70024201C10BDC0467D
:106960008C3700209037002010B5002825D00C3837
:10697000041CFFF76BFF00281FDB104B1B689842BD
:106980001BDA201CFFF77EFF002816D12389A360A5
:10699000206800280ED083681B031B0F0AD1FFF765
:1069A000F4FE2468F4E79B681B031B0F05D1201C31
:1069B000FFF7EBFE6368002BF5D110BD8C3700208C
:1069C000002310B5934203D0CC5CC4540133F9E7E3
:1069D00010BD70B5051C0C1E11D0061C03230C3E07
:1069E00005349C4333899C420ED9201CFFF786FF57
:1069F000041E1FD0B268291C92B2FFF7E1FF281CC9
:106A0000FFF7B2FF201C15E0301CFFF71FFF221C10
:106A1000338918329A420CD2301C211CFFF7C7FE72
:106A20004368002B05D09B681B031B0F01D1FFF7A8
:106A3000ACFE281C70BD002A02D0013A8154FAE74E
:106A400070470C38806880B270470000F8B50024A9
:106A5000A04231D0061C271C184B1B689F422BDA22
:106A60000C237B43164A9D58002D23D00F22AB6880
:106A7000190C114001291BD1190DB14218D12868F8
:106A80009BB2AB60E418002807D083681B0C13424C
:106A900003D1FFF77AFE2D680C346B68002B07D00A
:106AA0009B681B031B0F03D1281CFFF76EFE0C34E1
:106AB0006D68D9E70137CFE7201CF8BD8C3700207F
:106AC000903700201B4A10B51378111C012B19D1E7
:106AD000194B1B681B0715D1184BE0241A68F023CB
:106AE000101C184022420BD1154A12681A4209D1D3
:106AF000144A154B1A608022144B12021A6001E0EE
:106B00003028F1D00B68DBB2012B12D10A4A12688F
:106B100012070ED1F021094A12680A40402A08D112
:106B2000074A12680A4204D1C1228021D200C90555
:106B30008B5010BDE00F00F0E40F00F0E80F00F004
:106B4000EC0F00F0DFFF07C004050040186C0040A8
:106B500008B5FFF70DFC002000F018FF08BD00008D
:106B600008B5FFF7EFFD80235B05DA6DF0231340D6
:106B7000802B04D180210248C901FFF72FFE08BDF8
:106B80000040002007B5E023A0220849DB00D20521
:106B9000D150074B07491A68002392B20093019322
:106BA000054800F021FE00F0DDFF07BD0C000300EA
:106BB00004200020E3F50100516B010008B501F04D
:106BC00019F908BD70B5041C01F07CFA061C0120FF
:106BD000002E0DD0356B281CFFF733FF326B031CE2
:106BE0000020A24204D8013DED18AC42A44160420D
:106BF00070BD72DF704779DF70477DDF704765DFFA
:106C00007047F0B50024061C251C87B00C9F00932C
:106C10003B7803910292019333889D423ADA73687C
:106C2000A9005918042205A801F0E2FA04AB05A84E
:106C3000D91C0022FFF7E3FF002835D104ABDB7835
:106C4000029A934222D16242624102993B785200F9
:106C500059188A181F2A1BDC002C07D169469A1C78
:106C60003A700133009A097BDBB2D15404ABDC1CCF
:106C70003A78009B05A89A18211CFFF7C0FF00284E
:106C800012D1237801243A78D3183B700135C3E739
:106C90000C2009E00020844206D03B78019A013B99
:106CA0009B1A0199009A535407B0F0BDF7B5089E9E
:106CB000171C00960222051C1C1CFFF7A2FF0028CF
:106CC00006D10096281C391C1022231CFFF799FFBF
:106CD000FEBD00000023F0B51370037889B0061CD8
:106CE0000D1C141C002B03D1B378002B4BD029E0D2
:106CF00043780C201D2B00DD61E10E2704ABFF184B
:106D00001D23881C391C3B80FFF777FF002800D02B
:106D100055E13378022B03D13B8809221D2B08D97A
:106D20007378002B03D09BB208221D2B01D90822B7
:106D30003B88DBB2591C29706A70227802329B189A
:106D40002370D1E723780C201B2B00DD37E10E27C1
:106D500004ABFF18381CFFF74EFF002800D02EE1CF
:106D600023785A1C22700322EA5423785A1C22707A
:106D70001922EA5423783A88EB181A70120A5A70CA
:106D8000237802332370B388002B1FD0B26807200A
:106D9000002A00D113E122780530911CCB181F2B5B
:106DA00000DD0CE1531C2370B3880133AB5423780E
:106DB0005A1C22700122EA542078B2882818B1683F
:106DC00001F016FAB2882378D3182370F368002BE9
:106DD00012D01A7823780C201C2B00DDEFE0591C10
:106DE00021700221E9542378591C21700A21E954A9
:106DF0002378591C2170EA54338A002B03D1338B3A
:106E0000002B16D00AE0301C00941030022106221C
:106E10002B1CFFF74BFF0028F1D0D0E0301C009472
:106E20001830032107222B1CFFF740FF002800D059
:106E3000C5E0338C002B0AD0301C00942030142184
:106E400015222B1CFFF732FF002800D0B7E0B36AF1
:106E5000002B49D022780C20049206321F2A00D938
:106E6000ADE019880538052900D8A8E0554A564FE5
:106E70008A1892B2BA4200D8A1E05A880392052A31
:106E800000D89CE04F4FBC469444674602AA9781C5
:106E90009789BC464C4FBC4500D890E04B4FB94257
:106EA00005D0039ABA4202D0914200D987E0049AF1
:106EB00004990132227005226A542278511C2170F3
:106EC0001221A95422781988AA181170090A517040
:106ED00022780232D2B222705988AB181970090A8E
:106EE0005970237802332370F76A002F29D03A793A
:106EF0002178931C881CDBB2C3180C201F2B5EDC8E
:106F00004B1C033223706A5423785A1C2270FF22D0
:106F1000EA5423783A88EB181A70120A5A702378C8
:106F20000233DBB22370BA88002A0AD0B968053868
:106F3000002944D0E81801F05BF9BA882378D31807
:106F40002370331C343305931B78002B01D10020B0
:106F500035E0336B002B31D000230493059B049A5A
:106F60001B789342F3D90C27049B22785F43336B41
:106F7000511CDF193B7921700333AB5423785A1C21
:106F800022701622EA5423783A88EB181A70120AF3
:106F90005A7020780230C0B22070BA88002A09D016
:106FA000B96800290AD0281801F022F9BA88237894
:106FB000D3182370049B0133DBB2CEE7072009B05E
:106FC000F0BDC0467FF3FFFF7DF30000FFFF000030
:106FD000F0B593B06B466A469E1D0023D71D0D1C6D
:106FE00033703B7098420BD08388002B01D107206F
:106FF00024E08368002BFAD01B785B07F7D50DE0FF
:10700000041C002D03D0AB88002BF0D10EE02A1C0D
:1070100031783B78201CFFF7ECFD0FE002A9321C11
:10702000FFF758FE02AC0028EBD007E03A1C281C02
:107030000AA9FFF74FFE0AAA0028E9D013B0F0BD55
:1070400075DF704776DF70477ADF70477BDF704708
:1070500013B5144B14495A880888144B144C9042A9
:107060000CD84988914209D35B69002B03D00122D7
:1070700001A8027098470023237013BD2278002ACC
:1070800005D05B69002BF6D001A80022F1E7094A80
:107090001188094A002901D15B6800E09B681360F0
:1070A000E9E7C046283B0020043B00200C3B0020C1
:1070B000C0370020323B0020003B002073B5002188
:1070C000174B1960174B1888174B984226D0174A50
:1070D000174D13882C1C01339BB213802E7B9E42CC
:1070E00008D31449FFF7ACFF002817D0AB69002B79
:1070F00013D113E011802B7C002B08D03B21FFF72C
:10710000A1FF002803D0AB69002B00D0984763692A
:10711000002B03D0002201A80270984773BDC0461F
:10712000003B0020303B0020FFFF0000323B0020EE
:107130000C3B0020043B0020134938B5021C0B1CFB
:1071400032CA32C332CA32C31268104C1A600022EB
:107150000F4B01681A70201C914211D0083201F0C7
:1071600047F8201CFFF770FF00280CD101220020F7
:10717000084B52421A80084B1880084B186002E0F6
:10718000FFF764FFF0E738BD0C3B0020043B002014
:10719000C0370020303B0020323B0020003B002065
:1071A0000020014B18607047003B002008B50388A1
:1071B000112B1CD0011C112B02D8102B05D035E04F
:1071C000122B2CD0502B1AD030E08288184B0E3165
:1071D0001A801848082201F00BF80023164A138081
:1071E000164A1360164BDB89002B1FD11CE00122CD
:1071F0000F4B52421A8000230F4A13800CE0104AB2
:10720000C088D289904211D1CB8B022B0ED1013193
:10721000CA7F013B134007D1084A136006E00631DC
:107220000448082200F0E4FFFFF712FF08BDC04643
:10723000303B0020283B0020323B0020003B002058
:107240000C3B002021DF704720DF704737B5021C60
:1072500014200C4C2378584320180179C068092861
:1072600002D10948056802E0084D00014559142083
:107270004343E018E318DC880C3000945B69A847AE
:1072800037BDC046C437002064380020DC370020FA
:10729000F7B5664C1D1C2378071C002B06D1131C68
:1072A0002B4301D1023300E0012323702378032014
:1072B000013B052B00D9B8E0181C00950E1C151CCD
:1072C00005F098FE032333705D968023584A5B05D2
:1072D0005169013105D05069196989B205F094FEF0
:1072E00000E05869802252051369116912699BB246
:1072F000013889B292B2584371439208FFF7A2FF56
:107300000223002800D18FE08FE0081CFFF79CFFCC
:10731000002800D089E0002D2DD1009B002B26D124
:107320003B78042B21D1072322E080235B051969D8
:107330003F4A89B24E43516901311ED050691969E3
:1073400089B205F061FE80235B051969013889B2B5
:1073500041432A1C301CFFF775FF002865D1009BB4
:10736000002B04D13B78042B1AD0052300E0042322
:107370002370002059E0032356E05869E3E7802397
:107380005B051869910080B246437A888819920893
:107390003969FFF757FF002847D1009B1D43C2D032
:1073A0000623E5E780235B051969950089B24E4302
:1073B0007A88B61801921E4A76195169013106D0B1
:1073C0005069196989B205F01FFE411E01E0596933
:1073D000013980235B051B69019A9BB24B43AD18B1
:1073E000E918301C009AFFF72DFF0028BAD01CE0E6
:1073F00080230F4A5B055169013105D05069196935
:1074000089B205F001FE00E0586980225205136937
:1074100011699BB20138584389B205F0F5FDFFF7B9
:1074200013FF002801D107232370FEBD6D38002013
:1074300000100010F7B514243D4A13785C4314196A
:10744000211C009323790831271D8D680192042B9C
:1074500018D0052B4BD00F20022B67D1354B20893C
:107460001E886369B602E2889919334B4019921B52
:1074700080199A4201D8920801E080225200FFF759
:10748000E1FE4EE0802649682C4A0B01D31818898A
:107490005A895B687605AB4204D1131C4343E288EA
:1074A000934201D009290AD13169281C89B205F01B
:1074B000ABFD204B1B88C018FFF7C6FE31E03169D9
:1074C000281C89B205F0A0FD32693469431CA4B2BE
:1074D0005C43142392B24243011C0098AA1A43430E
:1074E00001989208C318DB88EB18E31A15E0802690
:1074F00076053169281C89B205F086FD011C3269C8
:107500002389306992B25D194A434B1C86B25E43AF
:10751000E388AA1A5B199208F31A9B08381CFFF734
:10752000B7FE002802D10123019A9370FEBDC04628
:10753000C43700206E380020FF030000DC37002035
:1075400008B5064B5B78002B01D1002005E0FFF762
:1075500071FF0028F9D01128F7D008BDC4370020EA
:10756000F7B5364B9A781C1C002A66D00026344AA0
:107570009E701378171C082B06D1022801D11670B3
:1075800045E0304B1E7042E0022803D0032854D15E
:107590000D2040E014212C4D20782A8841430132EF
:1075A00092B22A80611808790195022804D1CB880B
:1075B00092029A4211DA2AE0052837D0042826D10F
:1075C000D81F45424541C988281C92028A4225DBC2
:1075D0000122002B22D1002823D00026301C3E702F
:1075E000FFF734FE1423082022785343E3181E715A
:1075F000DE80D8601E615E611E81019B1E80637803
:10760000013B6370FF2A01D1267000E02270FFF772
:1076100097FF002811D0FFF719FE0EE0331C00225F
:10762000D9E7002AD9D1002BD7D1F0E7073B5A423E
:107630005341301C002BF2D0CFE7F7BDC4370020F8
:107640006D3800206C3800206E38002008B500230B
:1076500008211D4A13801D4A13701D4A1370537070
:10766000536193701371D380D16013611381194AF0
:1076700013808023184A5B055169013105D0506998
:10768000196989B205F0C0FC00E0586980235B05E8
:107690001B6909389BB25843104A114B1860131CE0
:1076A00088320833191C0020083908601880988037
:1076B000588010339342F5D101220A4B186098800C
:1076C000094B1A7008BDC0466E3800206D38002086
:1076D000C43700205C38002000100010DC37002088
:1076E00060380020643800206C380020064B1A787F
:1076F0000823002A06D00633002803D0034B5B780A
:1077000003600023181C70476C380020C437002029
:107710000020094B094A1B681268D26A82420AD1CA
:10772000074A1268012A06D8834204D1054B064A4B
:107730001B681068181A704758390020003900205B
:10774000983800200439002008390020074A1368BF
:107750001968074B002902D10122524203E0126846
:10776000D268D26852681A607047C04674380020E8
:1077700004390020F8B5041C154B164D1E68286806
:107780000F1C043005F099F82B1C621C07D1002F48
:1077900005D029681048043105F06BF816E01A6826
:1077A000A4195460B44206D20C4A10681968043116
:1077B00005F06BF80AE00A4A10681968043105F010
:1077C00064F8084B1A68944200D21C60F8BDC046A9
:1077D0000839002000390020443900200C390020ED
:1077E0007438002004390020F0B5950085B002906F
:1077F000281C0F1C039300F0D7FC061E00D1A5E047
:10780000582000F0D1FC041E0DD006632A1C301C49
:10781000A52100F0FDFC236B043D5D1907239D436A
:107820000195002306E0301C00F0CAFC8EE0013315
:10783000082B06D01A1CF95C3432A154FA5C002AD9
:10784000F5D1231C00250A9E3B331D70032E00D961
:107850000326231D181CE6626664A564009305F0E8
:1078600005F8201C183005F001F804239E1B231C8A
:1078700054332461A6616462E564256501981D7036
:107880000299039A00F0F4FC0B9B2060002B00D0BF
:107890001C6000F05FFD304B304D1A68304E0132F5
:1078A0001A602A682F4F002A28D12C601B68012BF0
:1078B0002DD1301C04F0CFFF301C143004F0CBFF6E
:1078C000301C283004F0C7FF301C3C3004F0C3FFEC
:1078D000254804F0C0FF254804F0BDFF244804F00B
:1078E000BAFF244804F0B7FF234804F0B4FF234B49
:1078F0001D4A1A60224B1D4A1A6008E03B68002BA3
:1079000005D12B68E26ADB6A934200D82C601D4ADD
:10791000E06A136801331360E3631B4B1A689042FB
:1079200000D91860142358430099301804F0A1FFBF
:1079300000F01CFD3B680126002B09D02B68DA6A99
:10794000E36A9A4204D200F0F9FC01E00126764293
:10795000301C05B0F0BDC046283900200039002099
:107960009838002078380020803800202C390020FA
:1079700010390020E83800204439002074380020F5
:107980000C390020243900205839002070B5041C1F
:1079900000F0E0FC1B4D002C00D12C68261D301C93
:1079A00004F08BFFA36A002B03D0201C183004F0D6
:1079B00084FF154A1368013313602B689C4208D179
:1079C0001248311C04F055FF114A1368013313604B
:1079D0000BE0104A206B1368013B136000F0F0FBD2
:1079E000201C00F0EDFBFFF7B1FE00F0BFFC0A4BDE
:1079F0001B68002B04D02B689C4201D100F09EFC38
:107A000070BDC0460039002024390020E83800202D
:107A1000FC380020283900207838002010B5041CDC
:107A200000F098FC002C01D1034B1C68E46A00F0C4
:107A30009DFC201C10BDC04600390020F8B5041C78
:107A40000D1E032D00D9032500F084FC002C01D16C
:107A5000204B1C68626CAA4238D01E4B954209D953
:107A6000002118680E1C844209D01B68DB6A9D4205
:107A70004E4104E01E68A61B714271410E1CE16A72
:107A80008A4200D1E562A3696564002B02DB04220F
:107A9000551BA56114234B430F486269C318071C8B
:107AA0009A420FD1251D281C04F007FF0B4BE06AFA
:107AB0001A68904200D9186014235843291C3818BA
:107AC00004F0D7FE002E01D000F038FC00F04EFC90
:107AD000F8BDC046003900209838002058390020F1
:107AE000064B42699A4206D1806A054B984202D001
:107AF0004242424100E00022101C704744390020FD
:107B00001039002070B5002825D0134D2B689842FD
:107B100021D0041C00F01EFC201CFFF7E1FF002810
:107B200017D0261D301C04F0C8FE0C4BE06A1A6802
:107B3000904200D9186014235843094B311C18187F
:107B400004F097FE2B68E26ADB6A9A4201D300F0E8
:107B5000F5FB00F00BFC70BD003900205839002007
:107B60009838002013B500240B4B009401930B4868
:107B70000B493822231CFFF737FE01280AD172B6C1
:107B80000122084B52421A60074B1860074B1C60D9
:107B900000F07EFB13BDC04640390020197E010075
:107BA000E8F5010004390020783800200839002069
:107BB000024A1368013313607047C0467C380020C6
:107BC000014B18687047C04608390020024A136804
:107BD000C01810607047C04608390020354BF7B513
:107BE0001B68002B36D1344B1D6801351D60002DFC
:107BF0000BD1324A324B116818681060314A196053
:107C0000136801331360FFF7A1FD2F4F00243B6879
:107C10009D420ED3294B1A681268002A02D1012313
:107C20005B4205E01B68DB68DE6873689D421ED21C
:107C30003B60264B1B68DA6A14235343244AD3580B
:107C4000012B00D90124234B1B68002B09D103F021
:107C5000E4FC06E01F4A002413680133136003F0BC
:107C6000DCFC1D4B1B68002B22D0012420E0331DBF
:107C7000181C019304F021FEB36A002B03D0301CC2
:107C8000183004F01AFE154BF06A1A68904200D9B9
:107C90001860142358430E4B0199181804F0E9FD9D
:107CA0000A4BF26A1B68DB6A9A42B3D30124B1E73C
:107CB000201CFEBD7C3800200839002074380020CC
:107CC0000C390020703800200439002000390020D1
:107CD00098380020943800205C3900205839002062
:107CE00038B500F037FB284B1A68013A1A601C6857
:107CF000002C01D0002443E0244B1B68002BF9D05A
:107D0000234B1A68002A20D0DB68DC68201C251D64
:107D1000183004F0D2FD281C04F0CFFD1D4BE06AA2
:107D20001A68904200D91860142358431A4B291C32
:107D3000181804F09EFD194BE26A1B68DB6A9A4230
:107D4000DED30122164B1A60DAE7002C01D0FFF7D0
:107D5000FDFC144B1C681D1C002C0AD0FFF73EFFD5
:107D6000002802D001220E4B1A60013C002CF5D1F4
:107D70002C600B4B1B68002BBCD000F0DFFA0124F9
:107D800000F0F4FA201C38BD7C380020283900208F
:107D90001039002058390020983800200039002080
:107DA0005C3900209438002038B5051C0C1CFFF706
:107DB000FFFE0F4B2A6818681119904203D2002366
:107DC000914206D202E00123914202D388429B41B4
:107DD0005B422960002B03D0081A0021FFF7CAFC80
:107DE000FFF77EFF002801D100F0A8FA38BDC04699
:107DF0000839002010B5041E02D100F09FFA09E0F6
:107E0000FFF7D6FE201C0021FFF7B4FCFFF768FF48
:107E10000028F2D010BD000070B51D4C2368002B67
:107E20001ED0FFF7C5FE1B4D2E68FFF759FF002E31
:107E3000F3D000F08FFAEB68DD68281D04F03DFDFB
:107E4000154A1368013B13602368013B236000F06F
:107E50008DFA286B00F0B4F9281C00F0B1F9DCE7CA
:107E60000E4B1B68012B01D900F068FA03F0D6FB1A
:107E7000FFF74EFC0128D0D9FFF79AFEFFF748FC28
:107E8000012801D900F018FBFFF72AFFC5E7C0461B
:107E9000FC380020E83800202839002098380020DD
:107EA000134B30B51A68134B002A02D001221A6016
:107EB0001CE011481A60016814234B430F4A9C5878
:107EC000002C01D10139F7E7D418656808336D68D3
:107ED000D31865609D4201D16B68636014234B43E6
:107EE000D2185368DA68064B1A60016030BDC0468C
:107EF0007C3800205C390020583900209838002058
:107F000000390020F8B5041C00F024FA194E002CAA
:107F100000D13468271D381C04F0CFFCA36A002B65
:107F200003D0201C183004F0C8FC134D391C281C49
:107F300004F09FFC00F01AFA104B1A681F1C002A6C
:107F400005D000F007FAFFF701FC00F00FFA3368E4
:107F50009C420ED13B68002B02D000F0EFF908E004
:107F6000074A29681268914201D1336001E0FFF7A6
:107F700097FFF8BD003900204439002078380020F0
:107F80002839002010B50C1C044B1968183104F076
:107F90007CFC201C0121FFF7EDFB10BD0039002007
:107FA00038B5C368DC68251C1835281C04F085FC2E
:107FB000114B12481B68002B0DD1251D281C04F005
:107FC0007CFC0F4BE06A1A68904200D918601423B9
:107FD00058430C4B1818291C04F04BFC0A4BE26A5E
:107FE0001B680024DB6A9A4202D9084B01341C60EA
:107FF000FFF7ACFB201C38BD7C3800201039002076
:108000005839002098380020003900205C390020C1
:10801000034B1B680360034B1B6843607047C046FB
:10802000703800200839002070B50D1C041C00F0C9
:1080300091F90F4B002619682B685A1C13D00D4A72
:10804000266810686268B04202D0012691420AD2C6
:10805000881A0126984206D2521AD3182B60201C87
:10806000FFF7D6FF002600F081F9301C70BDC04636
:1080700008390020703800200122014B1A60704737
:108080005C390020031E00D0186C70470020094B9B
:108090001B6883420DD1084B1B68834209D1074BF3
:1080A0001868074B01381B68181A431E98410223B1
:1080B000181A7047103900205C3900202839002038
:1080C00044390020014B18687047C0460039002031
:1080D000F8B500282BD0164DC16A2B68DB6A99428F
:1080E00025D28369002B04DB04222B68DB6AD21AB9
:1080F000826114234B430F4E4269F3189A4213D105
:10810000041C071D381C04F0D8FB2B68D86A0A4BE6
:10811000E0621A68904200D9186014235843391C51
:10812000301804F0A6FB02E02B68DB6AC362F8BDDE
:1081300000390020983800205839002038B5002830
:1081400001D100201FE0836CC26A416C013B836453
:108150008A42F6D0002BF4D1041C051D281C04F023
:10816000ACFB0423606C1B1AA361074BE0621A6826
:10817000904200D9186014235843044B291C181846
:1081800004F077FB012038BD5839002098380020D2
:10819000044B1A68002A03D019688A6C01328A6479
:1081A000186870470039002010B5041CFFF700FD67
:1081B000201CFEF7A3FB041CFFF792FD201C10BD42
:1081C00010B5041CFFF7F4FC201CFEF7CDFBFFF7F5
:1081D00087FD10BD38B5051C0C1CFFF7E9FC211C00
:1081E000281CFEF7F6FB041CFFF77AFD201C38BDA7
:1081F00070B5061C0D1C141CFFF7DAFC291C221C90
:10820000301CFEF7DDFB041CFFF76AFD201C70BD6F
:1082100070B5061C0D1C141CFFF7CAFC291C221C7F
:10822000301CFEF708FC041CFFF75AFD201C70BD33
:1082300010B5041CFFF7BCFC201CFEF707FC041C57
:10824000FFF74EFD201C10BD40DF704772B6FEE701
:10825000064A13681868203080F30988022080F3EA
:1082600014883FBCAE4662B600BDC046003900204F
:1082700010B58024031F64041C60043B196003498B
:10828000043B1960143B40381A6010BD4D82010058
:10829000FF2138B5224B09041A681F200A43FF2129
:1082A0001A601A6809060A43A1211A6001221D4BAF
:1082B000C9005A60585000211B489A6001601B4851
:1082C000C4240160D12189005A50194840395A50BC
:1082D000A4000559174929408025ED012943015182
:1082E0008021913C8902FF3C015101601A602F23DB
:1082F000C046C046C046C046C046C046C046C0464E
:10830000C046C046C046C046C046C046013B002BE2
:10831000EED1094A1360FFF79BFF72B6FEE7C04635
:1083200020ED00E00010014060390020343B0020C7
:1083300000E100E0FF00FFFF082000208022044B46
:1083400052051A60BFF34F8FBFF36F8F7047C0465F
:1083500004ED00E072B6044A136801331360BFF302
:108360004F8FBFF36F8F704708200020034A1368B8
:10837000013B1360002B00D162B67047082000203B
:10838000EFF3108072B67047002080F310887047BA
:10839000EFF309800E4B1A6820381060F0C0444695
:1083A0004D4656465F46F0C008B572B6FFF778FDF9
:1083B00062B60CBC116808681030F0C8A046A94627
:1083C000B246BB4680F309882038F0C81847C0463B
:1083D000003900207047000010B5FFF7D1FF154BA2
:1083E000041C5A6C002A07D0002280205A64C22242
:1083F00011494002920088505B68002B16D0002182
:108400000C4B59600D4B1A6801321A601A68292A00
:1084100008D8FFF7E3FB002805D08022084B52055F
:108420001A6000E019600120FFF7D4FF201CFFF75D
:10843000ACFF10BDFC10014000100140603900206D
:1084400004ED00E0C2210122074B89005A509A60D6
:10845000A8220138D200985080223C3152025A5052
:1084600040395A507047C0460010014070B50E4B5D
:108470000E4D0F4EEC5830682A21001904F04AFEC8
:108480008023D2225B0292003160AB50403AAB5065
:10849000201CFFF79FFF201C05F06CFE054905F02E
:1084A00051FB04F0ABFF70BD04050000001001405B
:1084B0006039002000007A3F10B5002823D0041C4A
:1084C000FFF7E4FD00281ED00F4B1A6892071AD55B
:1084D0001B681B0717D40D4B201E984200D9181C8F
:1084E000FFF7B0FFFFF7B0FEFFF7C0FF041CFFF778
:1084F00031FFC1230121064A9B00D150201CFFF708
:1085000065FBFFF733FF10BD343B002060EA00003D
:108510000010014073DF704774DF7047012340682B
:108520001840704738B5051CFFF7F6FF041E04D04D
:10853000A321054A490000F0A9FB01236A68201C19
:108540009A436A6038BDC0469CF6010038B5041CE9
:108550000D1E0D4B00D11368002123608D4201D107
:10856000183B19686118084B002D00D153680B6047
:10857000AB0702D5201C01F084FEEB0702D5201CBE
:10858000FEF7FCF8201C38BD20F6010008B50221DA
:108590000022FFF7DBFF08BD08B50368143B1B682A
:1085A000C018FFF7F3FF08BD10B5041CFFF7EEFF7E
:1085B000201CFEF7E3F8201C10BD08B50368143B2F
:1085C0001B68C018FFF7F0FF08BD08B50A1C0021A2
:1085D000FFF7BCFF08BD0166704770B5456B041C12
:1085E0000E1C002D07D10C20FEF7C0F8291C60637B
:1085F0000C22FFF70DFE636B002B00D01E8070BDB8
:10860000836D70B5041C0E1C151C002B03D140207B
:10861000FEF7B0F8A065A16D00291DD0221C5432D0
:1086200013880F2B18D89B00CB181E809D701388C1
:108630000A4901339BB213808E4208D1A16D9B0081
:10864000CB1807499D701980138801331380012DC1
:1086500002D901236634237070BDC04602180000A1
:108660000318000070B590B06B46041CD971073335
:10867000002902D0012203618281231C261C66335B
:108680001B78543602AD002B04D133882384A36DAC
:10869000636208E0281C00213822FFF7B9FD338807
:1086A0002B83A36DEB61201C291C0830FEF790FC86
:1086B000051E03D09C210E4A00F0E8FAA06D0028A8
:1086C00004D0FEF75BF80023A3653380606B0028BD
:1086D00003D0FEF753F800236363206B002803D018
:1086E000FEF74CF800232363281C10B070BDC04671
:1086F0009CF601000123F0B5041C42689BB09A432C
:10870000626003A8FEF7F2FF002803D0E621574A73
:1087100000F0BCFA039A63680221002A03D00B43DD
:1087200063601120A0E08B436360231C251C483349
:108730001A700193E264626467352B78033B012B66
:1087400008D84B4B04A9186800F0E7FC002801D0BA
:1087500005232B70271C28784037062869D804F099
:1087600049FC595246332D06040005232B70002383
:108770003B703F4B186800285BD0082306AE33716E
:1087800033730AAB0693311C12ABB36000F0C0FC2C
:10879000002805D00C21354AFF3100F077FA05E0BA
:1087A0003379002B51D1337B002B4ED10123502242
:1087B0002B70A3181A80283A5A803AE0231C05220D
:1087C0005C331A7003232B7004AB636401233B708A
:1087D000231C002250331A805A80221C5C321378EA
:1087E000013BDBB21370002B23D1053309E0201CC1
:1087F0000521FFF737FF5022A3181A80283A5A8024
:1088000001232B7015E0201C0021FFF72BFF002314
:108810003B702B70206E174905F094F9164904F04F
:108820009FFF04F0EBFD231C50339A8A188002331B
:108830001A80381CFFF76EFE051E10D09F210B4AD0
:10884000490000F023FA281C0EE00222019B201CA4
:108850001A700421E664FFF705FF0223A7E701234E
:10886000626813436360EEE71BB0F0BD9CF6010045
:10887000BC39002000007A4400401C44144B70B501
:108880000366061C031C0025041C643340361D804F
:10889000DD70291C301C1422FFF7BAFC231C201C9D
:1088A00052331D800A3B3570291C656438221D70C7
:1088B0000830FFF7ADFC02232372064BA565236148
:1088C0000123A381231C663454331D80257070BDA1
:1088D00000007A44BDF6010010B5041C01F0D8FC7C
:1088E000044B201C1833236000236360FFF7C6FF8E
:1088F000201C10BD68F6010040688007C00F70475B
:1089000038B5041C0D1E01D1136801E0114B18335A
:10891000002123608D4201D1183B19686118002D98
:1089200001D1D36801E00B4B18330B60002D00D050
:10893000094A111D201CFFF748FEAB0702D5201C79
:1089400001F09FFCEB0702D5201CFDF717FF201C50
:1089500038BDC04668F6010030F6010008B50221B6
:108960000022FFF7CDFF08BD08B50368143B1B6864
:10897000C018FFF7F3FF08BD10B5041CFFF7EEFFAA
:10898000201CFDF7FBFE201C10BD08B50368143B3E
:108990001B68C018FFF7F0FF08BD08B50A1C0021CE
:1089A000FFF7AEFF08BD00207047002070477047FA
:1089B0000020704708B5054B1B68002B04D01A68CF
:1089C0000178126A181C904708BDC046643900201F
:1089D00008B52521014A00F059F908BD20F701002A
:1089E0000B8810B50C1C102B02D1083002F0B0FE21
:1089F000201CFEF7DBFB10BDF0B50C1C051C8DB078
:108A00001E1C12AB1B88171C009313AB1B88019311
:108A100014AB1B78029315AB1B88039301F038FC51
:108A20001B4B1C491833221C04312B60281C00F0FE
:108A300017FC281C184B08301C332B6002F0A2FED8
:108A40000021164B05AC1960154B201C1C221D6023
:108A5000FFF7DEFB009B201CA3606B461B7905978C
:108A600023736B469B896660E3816B461B7A237494
:108A70000C4B63610C4BA361FEF75EFB002803D037
:108A800044210A4A00F002F9281C0DB0F0BDC0468E
:108A900088F7010000F70100C0F60100003B00204C
:108AA00064390020B5890100D189010020F7010057
:108AB00070B5041C0E1C151C002901D1136801E0BF
:108AC000204B1C3300222360964201D11C3B1A68C4
:108AD000A218002E01D12B6901E01A4B1C33136040
:108AE00000239E4202D12368183B1B68E318002E26
:108AF00001D16A6901E0134A1C321A60FEF750FB8B
:108B00000022201C104B08301A60104BA36001F0AB
:108B1000B8FB291D002E01D00D490431201C00F0A6
:108B2000F1FBB30707D50A49201C1831FFF74DFDAB
:108B3000201C01F0A6FBF30702D5201CFDF71EFE4A
:108B4000201C70BDC0F601006439002068010200DD
:108B500000F7010008B502210022FFF7A9FF08BDB8
:108B600010B5041CFFF7F6FF201CFDF707FE201CC4
:108B700010BD000038B5094B1D68002D0CD0041C39
:108B800083680834DB69201C9847A84204D9201C5C
:108B900002F0DEFDFEF792FA38BDC046003B002031
:108BA00070DF704771DF704776DF704760DF7047B6
:108BB00011DF70477430034B0088C018431E984182
:108BC000C0B270470100FFFF002383607047704709
:108BD00008B50430FFF78EFD08BD08B5031C6B33E4
:108BE0001B78002B02D101F06DFC02E00430FFF78E
:108BF00081FD08BDF0B591B0071C0E1C151C0021AD
:108C0000402268461C1CFFF703FB68461A4903F024
:108C1000B3FD1A4B02A81A68194B1A499A4200D19F
:108C2000194903F0A9FD002F03D004A8391C03F053
:108C3000A3FD002E03D006A8311C03F09DFD002DDE
:108C400003D008A8291C03F097FD002C03D00AA824
:108C5000211C03F091FD1122169B68460C93179B73
:108C60000E930FAB1A703D2300226B441A7003F071
:108C7000A1FC11B0F0BDC046D8F70100F85F0100BB
:108C80002011210320F8010078F8010008B5034BFA
:108C9000011C186803681B6A984708BDB839002092
:108CA00008B5031C0A1C0248191CFFF7EFFF08BD9A
:108CB000EFBEADDE08B506495022002303F006FBE7
:108CC000002803D06B21034AFFF7E0FF08BDC04630
:108CD00068390020EFF701000B680360183B4A6811
:108CE0001B68C2507047000010B5041C01F0D0FA98
:108CF000014B201C236010BD20F60100F0B589B0A7
:108D000005AC201C0F1C161C002101221D1CFFF7A6
:108D10007FFA01222378201C93432370FFF746FF3C
:108D2000041E01D0892106E0184803F0F3FA041E5E
:108D300006D0201C8E21164AFFF7A8FF201C22E037
:108D4000144803F0F1FA041E02D0201C9421F2E72B
:108D5000FEF77CFC0F9B2A1C0093109B06AD311C78
:108D600003900193381C0E9BFFF744FF281CFFF76C
:108D700019FF6B78AA78201C291C6A70AB702C70C4
:108D8000FFF70EFF039809B0F0BDC046D99001006F
:108D9000EFF70100C18D010038B50D1C041C023D28
:108DA000081CFEF7DDFB012D08D80434201CFFF75A
:108DB000A3FD002802D0201CFFF79CFC38BD00005A
:108DC00008B5034B011C1868FFF7E6FF08BDC04655
:108DD000B839002038B5041C0D1E114B00D11368A2
:108DE000002123608D4201D1183B196861180C4B9A
:108DF000002D00D1D3680B600A49002D00D1111D50
:108E0000201CFFF7E2FBAB0702D5201C01F039FA6A
:108E1000EB0702D5201CFDF7B1FC201C38BDC04675
:108E2000E0F8010094F8010008B50A1C0021FFF7E2
:108E3000D1FF08BD08B502210022FFF7CBFF08BD16
:108E400008B50368143B1B68C018FFF7F3FF08BDA3
:108E500010B5041CFFF7EEFF201CFDF78FFC201C53
:108E600010BD036810B5143B1B68C418201CFFF725
:108E7000E1FF201CFDF782FC201C10BD38B5041C4E
:108E800001F006FA1649201C0431FFF725FF251CC6
:108E9000201C144B6C35183308C0FFF71DFD281C2F
:108EA00001F0F6F91049281CFFF716FF0F4B0C359F
:108EB000E366281C01F0C8FB201C903001F0A0F8EC
:108EC0000B4B00221C60231C0833DA676C33013A19
:108ED000281C1A8001F01DFB201C246738BDC046E9
:108EE00010F8010038F8010094F80100E0F80100E2
:108EF000B839002070B5041C0E1C151C002901D1C6
:108F0000136801E01B4B183300222360964201D105
:108F1000183B1A68A218002E01D1EB6801E0154B2E
:108F2000183313600022144B1A60FFF741FE201C17
:108F3000903001F005F9201C783001F0FBFA201C7C
:108F40006C30FFF777FF201DFFF708FD291D002E6D
:108F500001D00A490431201CFFF737FBB30702D5C3
:108F6000201C01F08EF9F30702D5201CFDF706FC4A
:108F7000201C70BD38F80100B839002010F801003D
:108F800008B502210022FFF7B5FF08BD10B5041C8B
:108F9000FFF7F6FF201CFDF7F1FB201C10BD0000C1
:108FA00038B5094B90301A68084B0D1C041C9A42C6
:108FB00004D1201C291C01F054F803E000F0C9FF83
:108FC0000428F6DD38BDC046F85F010020112103FA
:108FD00010B59030041C00F0F7FF011E02D0201CD9
:108FE00001F05EF810BD70B590300E1C041C00F04E
:108FF000E3FF051E0CD0291C201C00F0BFFF0368F6
:10900000311CDB699847201C291C00F0D9FFF0E7D0
:1090100070BD000038B50D1C041CFFF7E4FF2B8861
:10902000112B27D002D8102B05D052E0192B32D0AB
:10903000552B40D04DE0231C201CAA8874331A8085
:10904000A91D07228830FFF7D3F82368201C9B69ED
:109050009847231C0833DB6F002B02D0201C002113
:109060009847E36F002B34D0201C0121783001F0A9
:10907000C7FA2EE00122231C524274331A8023685F
:10908000201CDB699847231C0833DB6F002B20D0A2
:10909000201C01210DE0AB79002B1AD12368201C84
:1090A0005B6A9847231C0833DB6F002B11D0201C10
:1090B000022198470DE0AB79002B0AD17434208847
:1090C0001321FFF771FD002803D0D221014AFFF7D9
:1090D000DDFD38BDEFF7010010B5041CFEF768FD9B
:1090E000034B211C1868FFF795FFFEF7F9FD10BD33
:1090F000B839002038B50368041C5B690D1C98471B
:10910000002804D1201C291C783001F049FA38BD10
:1091100008B5103003F062F908BD08B50C3003F053
:10912000A7F908BD76DF704777DF704778DF7047B3
:109130007ADF70477CDF7047F0B587B01E1C0CAB40
:109140001B8803AD00930DAB1B88081C01931123F2
:109150000C1C171C2B7006F061F9211C82B2281C14
:10916000FFF7E8FF002803D01A21164AFFF78EFD0B
:109170001549381C04F0E6FC144904F0F1FA04F037
:109180003DF904AC20801049301C04F0DBFC0F4991
:1091900004F0E6FA04F032F96B461B886080A38085
:1091A00001980A2103F0C0FFE080201CFFF7C0FFF8
:1091B000041E03D02321034AFFF768FD201C07B0DB
:1091C000F0BDC04600F9010000007A4400409C4414
:1091D00010B5081CFFF7AAFF041E03D02D21024A78
:1091E000FFF754FD201C10BD00F9010010B5081C4C
:1091F000FFF79AFF041E03D03321024AFFF746FD12
:10920000201C10BD00F9010038B50D4B051C1B6872
:1092100074331888FFF786FF041E04D03A21094AE8
:10922000FFF734FD0AE06D682B68281C5B699847DE
:10923000002803D0C820FDF7C1FCF5E7201C38BD8D
:10924000B839002000F9010062DF704708B5034B10
:10925000186803685B69984708BDC046B8390020A4
:1092600010B5041C0B6803601C3B48681B68E05089
:1092700023688968183B1B68101CE1506260211C40
:10928000FFF78EFE201C10BD38B5041C0D1E01D149
:10929000136801E0194B1C33002123608D4201D17A
:1092A0001C3B19686118002D01D1536801E0134B74
:1092B0001C330B6000239D4202D12368183B1B68BE
:1092C000E318002D01D1926801E00C4A1C321A60AB
:1092D0006068211CFFF77CFEAB0707D50849201CFE
:1092E0000C31FFF772F9201C00F0CBFFEB0702D521
:1092F000201CFDF743FA201C38BDC04638F9010098
:1093000020F9010008B50A1C0021FFF7BDFF08BDC8
:1093100013B56B46DC1D0023201C2370FFF794FF60
:10932000002803D12378012B00D82070207816BDA7
:10933000408B7047007F7047006A704770477047E6
:109340007047704710B5041C0368DB6A9847201CFF
:1093500010BD10B5041C03689B6A9847201C10BD03
:1093600008B503689B6A984708BD08B503689B6AFF
:10937000984708BD38B50368041CDD6A0B68081CF3
:109380009B6A9847011C201CA847201C38BD01205F
:109390007047000008B503681B69984708BD08B40A
:1093A000024B9C46243808BC6047C0469593010098
:1093B00008B503680121DB6D984708BD0189054A9E
:1093C000031C0020914203D08C33186801231840FD
:1093D0007047C046FFFF00008C3000688007C00F58
:1093E0007047000008B4024B9C46243808BC604714
:1093F000D993010010B50368041C00290CD11B6926
:10940000984700280BD0221C02218C3213680B4293
:1094100005D10B43136023689B6E201C984710BD39
:1094200008B4024B9C46243808BC6047F593010001
:1094300038B5041C0D1E194B00D1136800212360A0
:109440008D4201D11C3B19686118144B002D00D1CD
:1094500013690B6000239D4202D12368183B1B68EF
:10946000E3180E49002D00D1516919600C49002DF7
:1094700000D1111D201CFFF745FFAB0706D5201CAE
:109480000849FFF7A2F8201C00F0FBFEEB0702D50D
:10949000201CFDF773F9201C38BDC046BC02020039
:1094A0007C0302009003020008B50A1C0021FFF7AC
:1094B000BFFF08BD08B502210022FFF7B9FF08BDB4
:1094C00008B50368143B1B68C018FFF7F3FF08BD1D
:1094D00010B5041CFFF7EEFF201CFDF74FF9201C10
:1094E00010BD036810B5143B1B68C418201CFFF79F
:1094F000E1FF201CFDF742F9201C10BDF0B593B030
:1095000004AE071C0391301C00210322FEF780FEED
:109510000122102313433370102313437370B37865
:1095200005320BAC9343043A1343201C00211A323A
:109530000025B370FEF76CFE10222378291C13431C
:1095400005A80D3A666123706560E5602561A56137
:10955000FEF75EFE01221023134302AA13730122B9
:109560001023134302AA5373937B06229343043AB6
:10957000134306329343083293430F3A06AE134324
:1095800002AA9373291C301C1422FEF741FE05AB7E
:10959000736001233A1C338114237C32B3813B680E
:1095A000758100929D6A381C0399221C331CA847C0
:1095B00013B0F0BDF0B5071C93B00BAC0391201CA9
:1095C00000211C22FEF724FE3B1C01220421002561
:1095D00008268C331B6805A89B0813409A00237843
:1095E00065608B4313433343291C03222370E560DA
:1095F00025616561A561FEF70BFE1022012302A91A
:1096000013430B73012313434B738B7B06218B4353
:1096100004390B43B34393430F3A06AE134302AAF4
:109620009373291C301C1422FEF7F2FD05AB736006
:1096300001233A1C338114238432B3813B68758142
:1096400000929D6A381C0399221C331CA84713B052
:10965000F0BD0000F0B5041C0F1C85B000930AABF0
:109660001B88161C01930BAB1B8802930CAB1B7859
:10967000039300F00DFE1E4B1E4D18332360291D71
:109680003A1C201C03F007FC201C291C0D9A1C31DD
:109690000E9B243001F0ACF8174B201C1A1CA03391
:1096A0001C3222606362703000F0CEFF221C211C4D
:1096B000002390318C3213600B804B60039B002B96
:1096C00001D004231360201C311C009A03F0CBFB53
:1096D000002809D1201C0299FFF76CFF002803D154
:1096E000201C0199FFF70AFF201C05B0F0BDC04601
:1096F00040FC010040FA0100B8FA010070B5041CFA
:10970000261C943603F057FB3068002801D0FDF783
:1097100035F8231C0025201C8C331D609D802C30C7
:10972000291C356000F06CFF201C291C383000F02B
:1097300067FFA06AA84203D00368291CDB69984729
:1097400070BD38B5041C221C8032CB881288881D5D
:109750009A4224D1028B022A21D1231C0131C97FD4
:10976000013A8C33C90716D51968251C0A431A60BB
:10977000002294359A802B68934203D11420FCF781
:10978000F9FF2860636F002B14D0201C002170307B
:1097900000F036FF0EE01968914319600AE0221CC0
:1097A000843212889A4205D12368028B20315B6E85
:1097B000201C984738BD38B5041C54300D1C03F0EC
:1097C00039F8A06A002806D02B781B2B03D1036838
:1097D0000021DB699847201C0121383000F010FF80
:1097E00038BDF7B5041C0026271C94373B68002BB6
:1097F00034D0FFF78DFD002830D0231C90331D8816
:10980000002D08D1201C39684430142203F001F8DF
:1098100085B2002D15D00122211C236800925B6BBC
:10982000201C9C467C312B1C3A68E047231C90335B
:10983000002801D11D8011E00022AE191A80B6B2B5
:10984000D2E7002E05D1221C02238C3211689943E5
:109850001160201C00212C3000F0D2FE301CFEBD17
:1098600038B5436F041C0D1C002B02D1703000F082
:1098700050FE606F00280AD02368201C1B6998479F
:10988000002804D1201C291C703000F089FE38BD4E
:1098900008B4024B9C46243808BC6047619801001C
:1098A00070B5041C0E1C151C002901D1136801E0C1
:1098B000284B1C3300222360964201D11C3B1A68BE
:1098C000A218002E01D16B6A01E0224B1C331360F9
:1098D00000239E4202D12368183B1B68E318002E28
:1098E00001D1AA6A01E01B4A1C321A60002E01D184
:1098F000EB6A01E0174BA0336362231C94331868B2
:10990000002801D0FCF73AFF201C703000F012FE56
:10991000201C291C2430002E00D00F491C3100F0DF
:10992000ABFF291D002E01D00B490431201CFFF78D
:10993000BBFDB30707D50849201C3031FEF745FEB3
:10994000201C00F09EFCF30702D5201CFCF716FF3C
:10995000201C70BDB8FA010040FA010008B50221D0
:109960000022FFF79DFF08BD08B4024B9C46243837
:1099700008BC60475D99010010B5041CFFF7EEFFBD
:10998000201CFCF7FBFE201C10BD000008B4024B9D
:109990009C46243808BC604779990100A023002226
:1099A00010B5074CDB00E250FEF7D4FCC2230122C5
:1099B0009B00E250034B7F32DA67FEF7D7FC10BD05
:1099C0000070004004E100E010B560240C4A0D4B2B
:1099D000D158A143D150D4580B492140D15000282F
:1099E0000AD001280AD12020D15801438020D1502B
:1099F000D1588002014300E0D158D15010BDC0467B
:109A00000070004004050000FFFFFCFF10B51C249F
:109A10000E4A0F4BD158A143D150062814D803F059
:109A2000E9FA04060913130C0F00D1580BE0D158C2
:109A3000042007E0D158082004E0D158142001E0A8
:109A40001820D1580143D15010BDC04600700040CD
:109A500004050000054A064B10B50649D45800021B
:109A60002140D150D1580843D05010BD0070004063
:109A700004050000FF00FFFF38B50123054C002559
:109A80006360231CFC335D60FFF788FF024BE550E9
:109A900038BDC046007000400405000038B50A4DCE
:109AA000281C00F0D1FD094C0949221C281CFCF798
:109AB00069FE084D281C00F0D5FD281C0649221C13
:109AC000FCF760FE38BDC046C839002014200020D5
:109AD00035A50100C039002059A5010008B5054B86
:109AE00000211A1CFC32516001315960024800F01B
:109AF00087FD08BD00700040C8390020032138B53B
:109B0000104B114CE2588A43E250E2581043E050A7
:109B10000E484368002B01D100F0FBFCFEF71AFC55
:109B2000C121012589000A4A655053581B021B0AAE
:109B3000535080231360FEF719FCA023DB00E5508F
:109B400038BDC0460405000000700040C839002040
:109B500000E100E0F7B5104C0090201C0E1C00F056
:109B600041FD01940024A04213D001270B4D0C4865
:109B70002F60311C00F014FDA04207D0A1233C1C33
:109B8000DB00EB58009A9B059B0D1380019800F0B9
:109B900051FD201CFEBDC046C039002000700040B1
:109BA000C83900200079431E9841C0B2704703684D
:109BB000103B1B68C0180079431E9841C0B2704723
:109BC00010B50124211C02790E4B91401A68002324
:109BD0000A4214D0A223A022DB00D205D258437936
:109BE000A34206D0022B09D10A4053425341DBB2B3
:109BF00005E00A40531E9A41D3B200E0231C181C12
:109C000010BDC046F8390020012300798340181C9C
:109C1000034B1B681840431E9841C0B27047C046B2
:109C2000E439002070B5041C0D1E01D1136801E059
:109C30001D4B1833002123608D4201D1183B196858
:109C40006118002D01D1536901E0174B18330B60E7
:109C5000A0212379C9059B005B18E021C9005E584B
:109C6000124830405850A0202379C0059B001B1893
:109C700058585850012320790D498340086898436B
:109C80000860002D00D00B4A111D201C00F0FFFBC6
:109C9000AB0702D5201C00F0F4FAEB0702D5201C1C
:109CA000FCF76CFD201C70BDA8FC0100FFFFFCFF51
:109CB000E439002068FC010008B502210022FFF70A
:109CC000B1FF08BD10B5041CFFF7F6FF201CFCF720
:109CD00055FD201C10BD000010B5054C201C00F0E7
:109CE000B3FC201C0349044AFCF74CFD10BDC046E0
:109CF000D439002035A5010014200020F8B5A02299
:109D0000A223BE212A48D205DB004900D35842587D
:109D1000002A32D000224250264801684B40264992
:109D20000C689C43254B1C600368012191400C4248
:109D30001BD0A225A026ED00F60575590D4202D0D4
:109D40008B43C02101E00B438021A02589028C4672
:109D5000ED0591004919E025ED004F59184E3740A7
:109D60004F5167464E5937434F5101321F2ADCD1BC
:109D700003600121134800F043FC0024124AA300B1
:109D80009A18516801290ED1002151600F4A985844
:109D9000884208D083688B4202D0E0B2984702E044
:109DA00003685B6A98470134042CE7D1F8BDC046CC
:109DB00000600040E0390020E4390020F83900203C
:109DC000FFFFFCFFD4390020FC600040E839002090
:109DD000F7B5009308AB1B780D1C019309AB041C6D
:109DE000161C1F78111D002D03D000F051FA3149C7
:109DF0000431201C00F0D6FA002D01D1336801E0B7
:109E00002D4B183300222360954201D1183B1A686C
:109E1000A218002D01D1736901E0274B183313609C
:109E20006B461B78391C23716B461B79201C6371B0
:109E30000022A77100F09AFA201C00F075FA1F4B5F
:109E40002179012805D188401A6882431A600322CB
:109E500006E001228A40101C1A6810430222186092
:109E60001104A279237992000A43A021C133FF3360
:109E70009B00C9055A5001232179114A8B40116872
:109E800010480B4313604368002B11D100F041FBD5
:109E9000FEF760FAC1210C4A890050580B4B034071
:109EA000802000040343535040231360FEF75EFA02
:109EB000201CFEBD68FC0100A8FC0100E039002068
:109EC000E4390020D439002000E100E0FFFF00FF6A
:109ED00013B50C1C0092019301210022231CFFF7F3
:109EE00077FF16BD104808B54368002B11D100F06C
:109EF00010FBFEF72FFAC1210C4A890050580C4B79
:109F00000340802000040343535040231360FEF7B6
:109F10002DFAFEF71FFA8021C123064A09069B008D
:109F2000D150FEF723FA08BDD439002000E100E04B
:109F3000FFFF00FF0060004008B5011C014800F071
:109F40002FFB08BDD439002008B50368DB6A9847A9
:109F500008BD406970474069431E1843C00F7047F1
:109F60004369002B01D0C3689B68181C7047436984
:109F7000002B01D003699B68181C70470B1E03D08F
:109F80004269131E00D08B68181C704708B5031C6B
:109F90004069002804D01A68181C926BD968904751
:109FA00008BD08B5031C4069002804D01A68181CB5
:109FB000926B1969904708BDC06870470069704787
:109FC000486870470868704738B50368041C5B6CC4
:109FD0000D1C9847011E07D08B68AB4204D0236844
:109FE000201CDB6C9847F5E7081C38BD08B5081C39
:109FF000FCF7C4FB08BD08B50C20FCF7B7FB08BD97
:10A0000010B5041C00F044F9201C054B083308C0AF
:10A0100000F028FB0023201CE3602361636110BD76
:10A0200028FD0100F8B5051C0C200F1CFCF79EFB59
:10A03000041C2E1D301C00F0CAFA6B69A760002BAF
:10A0400003D0EA681460626001E02C616360002262
:10A050000133EC60301C22606B6100F0EBFA201CD5
:10A06000F8BDF8B5051C0C200F1CFCF77FFB041C89
:10A070002E1D301C00F0ABFA6B69A760002B03D0DB
:10A080002A695460226001E0EC6023600022013301
:10A090002C61301C62606B6100F0CCFA201CF8BDB2
:10A0A000F8B50E1E1ED00C1C071D051C381C00F038
:10A0B0008EFA2368B6686268002B01D1EA6000E07E
:10A0C0005A606268002A01D12B6100E013606B695D
:10A0D000281C013B6B612B68211C9B6E9847381C28
:10A0E00000F0A8FA301CF8BDF7B5051C061D301CA1
:10A0F0000F1C019200F06BFA6B69002B1CD0EC680E
:10A10000002C16D063680093002F0BD0019BA06831
:10A11000002B05D0002805D00368DB68984701E0D4
:10A12000FCF72CFB2B68211C9B6E281C9847009C7D
:10A13000E6E7EC602C616C61301C00F07BFAF7BD47
:10A14000002110B5041C074B0A1C08330360FFF7FD
:10A15000CBFF201D00F000FA201C00F092F8201C1C
:10A1600010BDC04628FD010010B5041CFFF7E8FF34
:10A17000201CFCF703FB201C10BDF7B5051C0E1EB0
:10A18000019218D00C20FCF7F1FA041C2F1D381C8A
:10A1900000F01DFA019BA3603368002B00D05C60C7
:10A1A00023606B69666001333460381C6B6100F0BA
:10A1B00041FA201C03E0036801999B699847FEBDA2
:10A1C000F7B5051C0E1E019218D00C20FCF7CEFA34
:10A1D000041C2F1D381C00F0FAF9019BA360736862
:10A1E000002B00D01C6063606B69266001337460D3
:10A1F000381C6B6100F01EFA201C03E00368019913
:10A200009B699847FEBD70B54469002C16D0041CAC
:10A21000061D301C0D1C00F0DAF90023E468002C48
:10A2200009D0AB4204D1301C00F004FAA46805E068
:10A2300064680133F3E7301C00F0FCF9201C70BDAA
:10A24000F8B5051C406900281AD02E1D301C0F1CC3
:10A2500000F0BDF90023EC68002C0DD0BB4208D102
:10A26000301C00F0E7F92B68281C9B6B211C9847D9
:10A2700006E064680133EFE7301C00F0DBF9201CD6
:10A28000F8BD704710B5041CFCF778FA201C10BD0F
:10A29000014B083303607047A0FD010038B5A024CE
:10A2A00003250379E405C133FF339B001D51012AC7
:10A2B00019D0002A0CD0022A21D1A022E024802526
:10A2C0000379D2059B009B18E4001A59AD0014E0F5
:10A2D000A022E024C0250379D2059B009B18E4004E
:10A2E0001A59ED0009E0A0220379D2059B009B18C2
:10A2F000E022D2009C589C5001E02A431A51036886
:10A300009B69984738BD00000123A0220079D2053F
:10A310008340002902D0A121C90000E00149535027
:10A320007047C0460C050000A223A022DB00D20526
:10A330000079D358C340181C01231840704700000F
:10A3400010B5A02304790120064ADB059A58011CA8
:10A35000E240A140024202D1A122D20000E0024A22
:10A36000995010BD040500000C0500000379A020E1
:10A37000C005002A09D0C133FF339B00032901D156
:10A38000054A00E0054AC25004E0C133FF338900AA
:10A390009B00C1507047C0460C000300040002003F
:10A3A0000171704738B50D1C041C043102F08DFD9D
:10A3B0002B68201C2360183BEA681B68E2500023CE
:10A3C000237138BD10B5041CFFF762FF0549201C3E
:10A3D000043102F07AFD044B201C18332360002363
:10A3E000237110BD20FE0100E0FD010038B5041C02
:10A3F0000D1CFFF74DFF0549201C043102F065FDDF
:10A40000034B25711833201C236038BD20FE01004A
:10A41000E0FD010038B5041C0D1E01D1136801E0F8
:10A42000114B1833002123608D4201D1183B19686C
:10A430006118002D01D1D36801E00B4B18330B607C
:10A44000002D00D0094A111D201C02F078FDAB0739
:10A4500002D5201CFFF715FFEB0702D5201CFCF7E7
:10A460008DF9201C38BDC046E0FD010020FE010032
:10A4700008B502210022FFF7CDFF08BD10B5041C6E
:10A48000FFF7F6FF201CFCF779F9201C10BD08B57A
:10A490000A1C0021FFF7BEFF08BD34DF7047000033
:10A4A00010B5041CFDF756FF054B02211A68002C5D
:10A4B00001D00A4300E08A431A60FDF757FF10BD40
:10A4C000343B002008B500F0EFF8FFF7E6FF002866
:10A4D00003D04121014AFEF7D9FB08BD30FE01003F
:10A4E0004068431E9841C0B270478068704770B59D
:10A4F000041C40680E1C151C002801D002F00AFC48
:10A50000301C291C02F0BAFA6060431E9841C0B2A8
:10A5100070BD10B5041C4068002801D002F0FAFBA1
:10A5200000210322012002F089FA6060431E984155
:10A53000C0B210BD074B10B50833041C036040685F
:10A54000002801D002F0E6FB201CFFF79AFE201C39
:10A5500010BDC04670FE0100074B10B50833041C47
:10A5600003604068002801D002F0D4FB201CFFF7F4
:10A5700088FE201C10BDC04648FE010010B5041C1A
:10A58000FFF7D8FF201CFCF7F9F8201C10BD10B510
:10A59000041CFFF7E1FF201CFCF7F0F8201C10BDA5
:10A5A00038B545682B1E10D00A1C00218368041C96
:10A5B000013383600B1C281C02F019FB431E5A4216
:10A5C0005A41D3B2A268013AA260181C38BD406853
:10A5D00008B5002805D0002101220B1C524202F0D0
:10A5E00006FB08BD08B54368181E08D00A1C0021E8
:10A5F0000B1C02F0FCFA013843425841C0B208BDBE
:10A6000007B54068002811D00B1E0CD0002301A90B
:10A61000019302F0C1FA019B002B07D08022044B6A
:10A6200052051A6002E01A1C02F032FA07BDC04659
:10A6300004ED00E0406808B5002804D000210A1CA1
:10A640000B1C02F025FA08BD10B5041CFFF720FE14
:10A65000034B201C0833236000236360A36010BDFC
:10A6600070FE010010B5041CFFF712FE044B012020
:10A670000833236002F07EFA6060201C10BDC046E3
:10A6800048FE010013B501A8FDF730F8041E03D100
:10A69000019B002BF7D103E02421024AFEF7F6FAD2
:10A6A000201C16BD9CFE010008B5FFF7EBFF08BD9E
:10A6B00037B56B46DC1D002323700368211C9D69A0
:10A6C000012301225B42A84720783EBD13B56B46AB
:10A6D000D9710733191C012302685B42D469012236
:10A6E000A04713BDF7B5051C0F1C01240092019370
:10A6F000009B661E9C4210D02B68281C9B6A9847C2
:10A70000011E1F2909D9019BB855002B03D02B68C6
:10A71000281CDB6A98470134EAE70023301CBB554C
:10A72000FEBD08B5303002F06AF808BD08B520302B
:10A7300002F069F808BD10B5041C203002F05AF888
:10A74000201C303002F056F810BD0000F8B5041C93
:10A750000F1C161C1D1C002942D0FFF799FD234B2E
:10A76000183300222360974201D1183B1A68A218BF
:10A77000002F01D1736801E01C4B1833271C261CE5
:10A7800008371360381C1436FFF75EFF301CFFF7E4
:10A790005BFF002363609D421FD0069A9A421CD043
:10A7A000281DFBF7E7FF069B2064181DFBF7E2FF5F
:10A7B0006064201CAAB2216C203001F0E6FF201C4E
:10A7C000069B616C9AB2303001F0DFFF381CFFF756
:10A7D000A0FE301CFFF79DFE04E02364636401E0EB
:10A7E0001368BEE70023201CA364F8BDB8FE010077
:10A7F00037B50D1C141C00932A1C0021231CFFF7E5
:10A80000A5FF3EBD38B5041C0D1E01D1136801E043
:10A81000184B1833002123608D4201D1183B196871
:10A820006118002D01D1536801E0124B18330B6001
:10A83000206CFBF7A3FF606CFBF7A0FF60680028AB
:10A8400003D003680021DB699847201C1430FFF710
:10A8500071FE201C0830FFF76DFEAB0702D5201CEF
:10A86000FFF70FFDEB0702D5201CFBF787FF201C2D
:10A8700038BDC046B8FE010008B50A1C0021FFF72C
:10A88000C1FF08BDF7B5051C0E1C1F1C141C01924E
:10A89000002C18D02B68281C1B6A9847002812D05F
:10A8A000281C311C303001F093FF002802D1013CFC
:10A8B0000136EDE7002F06D0281C391C1430FFF7B5
:10A8C0006FFE0028E4D1019B181BFEBDF7B5019374
:10A8D000204B0E1C171C19681F4A041C836C9142E4
:10A8E00004D080220020D200934231D83D1CDB19D5
:10A8F000A364002D05D02368201C1B6A98470028FC
:10A9000006D12368201CDB6D00219847781B1FE0CF
:10A91000201C3178203001F049FF002802D1013D90
:10A920000136E6E7019B002BEBD02368201CDB6D92
:10A93000002198472368201C1B6E98470028D8D018
:10A94000201C01990830FFF72BFE0028D1D1D8E751
:10A95000FEBDC046F85F01002011210338B5041C7C
:10A960000D1C201C203001F04AFF002807D0201CBD
:10A97000291C0830FFF714FE0028F2D100E0013056
:10A9800038BD70B586B0051C0E1C01A8202100F052
:10A9900045FB2B68281C9B6A9847041E15D0002E87
:10A9A00004D02B68281CDB6A211C9847231C2D3BF4
:10A9B000DBB2012B04D9201C04F01CFD002804D0BC
:10A9C00001A8211C00F05FF9E3E7002101A800F0D5
:10A9D0007EF801F0E5F9041C01A800F0FBFA201C48
:10A9E00006B070BD70B586B0051C0E1C01A82021F4
:10A9F00000F014FB2B68281C9B6A9847041E10D09B
:10AA0000002E04D02B68281CDB6A211C9847201CD0
:10AA100004F0FAFC002804D001A8211C00F033F94E
:10AA2000E8E701A8002100F052F8102101F08CF9AC
:10AA3000041C01A800F0CEFA201C06B070BD70B551
:10AA400086B0051C0E1C01A8202100F0E7FA2B6837
:10AA5000281C9B6A9847041E12D0002E04D02B6835
:10AA6000281CDB6A211C98472D2C04D0201C04F0E4
:10AA7000C1FC002804D001A8211C00F004F9E6E77D
:10AA800001A8002100F023F80A2101F05DF9041C5F
:10AA900001A800F09FFA201C06B070BD704708B5F1
:10AAA000036800215B6A984708BD08B50368002168
:10AAB0005B6A984708BD0020704708B5036800210D
:10AAC0005B6A984708BD7047006980B270470029EB
:10AAD00003D003695B005B08036100238268C168DF
:10AAE0005354806870470023018A10B5C3608B42BD
:10AAF00009D08268D2181478002C02D1C360147077
:10AB000001E00133F3E7C06810BDC068704700235F
:10AB10008268C36013707047C2680023914201DAF3
:10AB200083685B5C181C7047036910B59CB2A14236
:10AB300003DA5B0001D483685A5410BD026910B572
:10AB4000002352000DD4C26893420ADA8268D218F8
:10AB500011780C1C613C192C01D82039117001337B
:10AB6000F1E7036800215B6A984710BD026910B5E0
:10AB7000002352000DD4C26893420ADA8268D218C8
:10AB800011780C1C413C192C01D820311170013373
:10AB9000F1E7036800215B6A984710BD002330B5D8
:10ABA000CC5C002C10D0C568AA420DDA8568AD5C7B
:10ABB000A54206D10133CC5C002C03D1D01A013060
:10ABC00004E000230132EBE70120404230BDF7B53D
:10ABD000051C0F1C161C00240193B4420BDA2A68D2
:10ABE000A300526D281C9446F958019AE0470028AA
:10ABF00004DA0134F1E70120404200E0201CFEBDF0
:10AC000070B500254B5D002B1AD0C468A24217DA3C
:10AC10008468A45C261C413E192E00D820341E1CDA
:10AC2000413E192E00D820339C4206D101354B5DA0
:10AC3000002B03D1501B013004E000250132E1E775
:10AC40000120404270BD10B5C3689A4205DA84689D
:10AC5000A45C8C4204D00132F7E70120404200E0BE
:10AC6000101C10BD08B503681B6B984708BD08B5DC
:10AC700003689B6B984708BD10B5041C03681B69EB
:10AC80009847201C10BD08B503681B69984708BD8C
:10AC900038B5041C0D1C2978236800291CD02529EF
:10ACA00006D02B2912D11B69201C0B39984711E0C3
:10ACB0006978002910D0AA78002A0DD009018918D6
:10ACC0008833C9B21B68201C984703E094331B6883
:10ACD000201C98470135DEE79B6A201C984738BD49
:10ACE000036910B5041C202B0ADD8068FBF746FDC4
:10ACF0000023A3602368201CC0331B6820219847D1
:10AD00000023A268E360137010BD036970B5041CD2
:10AD10000E1C151C5B0011D40368511CC4331B6846
:10AD2000984700280AD0002E04D0A068311C2A1CA5
:10AD3000FDF75EFA0023A2685355E560E06870BD38
:10AD400070B5041C081C0E1C04F068FB051C23686D
:10AD5000201CC4331B68291C9847002809D0A3680D
:10AD6000E268311C98182A1CFDF742FAE3685D1965
:10AD7000E560201C70BD70B5041C081C0E1C04F09E
:10AD80004DFB051C2368201CC4331B68291C9847F5
:10AD9000002809D0A368E268311C98182A1CFDF726
:10ADA00027FAE3685D19E56070BDF8B58768041C93
:10ADB0000D1C002F0ED100290BD04E1C301CFBF7B0
:10ADC000D9FC391CA060321CFDF722FA80231B0637
:10ADD0001D4325610023E360F8BD70B504690023BD
:10ADE000620022D4C268A4B2A31A99421DDD2034A5
:10ADF000A31A9942FBDC051C601CFBF7BBFC061C7C
:10AE0000A968EA68FDF7F4F9EA680021B018A21A07
:10AE10000132FDF7FDF9A868FBF7B0FC80231B06A3
:10AE200023432B61EB68AE60E31A181C70BD10B5AC
:10AE3000041C0368B8331B689847E368A068591C72
:10AE4000FDF7C8F9C023E2681B061343A060236125
:10AE500010BD036910B5041C5B0003D48068E16871
:10AE600000F0F6FF2368201C5B6A0021984710BDA4
:10AE700008B5806840180A2100F066FF08BD08B5D3
:10AE800080684018102100F05FFF08BD08B5806899
:10AE9000401800F085FF08BD10B5C268CC680023DB
:10AEA000A24206D18068896804F0ECFA434243412B
:10AEB000DBB2181C10BD38B5051C081C0C1C04F0B6
:10AEC000ADFAEB68021C0020934207DBA868211C46
:10AED00004F0D8FA031C58425841C0B238BD08B536
:10AEE00002F058F808BD08B502F066F808BD08B5CC
:10AEF00002F03CF808BD38B50368C268C4330D1CC5
:10AF00001B68511C041C9847002809D00021281CEC
:10AF1000E3685A1CE260A268D554A268E368D15481
:10AF200038BD036910B5041C5A0006D49BB2002B2F
:10AF300003D0036890331B689847201C10BD38B5B8
:10AF400003695B0001D5002010E00368CA68C433C0
:10AF50000D1C1B68511C041C98470028F3D0A068E6
:10AF6000A968EA68FDF744F9E868E06038BD38B5DB
:10AF700003680D1CC4331B68C968041C984700286B
:10AF80000AD0A368E268A9689818EA68FDF730F962
:10AF9000EB68E268D318E36038BDF8B58026036932
:10AFA000F6051E4015D1041C081C0F1C04F036FACF
:10AFB000051C2368201CC4331B68291C98470028E3
:10AFC00007D0A068391C2A1CFDF712F9A368E560B8
:10AFD0005E55F8BD0A4B10B5083303600369041CC5
:10AFE0009AB2002A04D0002B02DA8068FBF7C6FB75
:10AFF000044B201C2360FFF744F9201C10BDC04601
:10B0000060FF010040FF010010B5041CFFF7E2FFE4
:10B01000201CFBF7B3FB201C10BD000038B5041C3E
:10B020000D1C01F097FF064B201C08332360002302
:10B03000291CA3602361E360FFF7B7FE201C38BD25
:10B0400060FF0100F8B50E1C1D1C171C2021041CFC
:10B05000FFF7E4FFF1687A1900238A4209DAAB426C
:10B0600006DAB268A168D218D25DCA540133F6E795
:10B07000E560201CF8BD000038B5041C0D1C01F073
:10B0800069FF0A4B201C083323600023298AA36030
:10B09000FFF78BFEA068002806D02A8AA968013233
:10B0A000FDF7A6F8EB68E360201C38BD60FF0100E7
:10B0B00010B5041CFFF7E0FF201C10BDC368F0B5FD
:10B0C0005C1A0B1C5D1AA54205DA85689E1AEF5CB6
:10B0D0000133AF55F6E7F0BD70B50024C368591AC7
:10B0E0008C420CDAC36886681D1B75199B181B1BE4
:10B0F000013D2D78F318013B1D700134F0E770BD60
:10B100000369F7B59CB2002C01D1002036E0802401
:10B11000E4052340F9D1019202680091556D1A1C93
:10B12000041CA847071EF0DB009804F077F9061C02
:10B13000019804F073F9051C864205DD321AB9192D
:10B14000201CFFF7BBFF06E0B04204DD821B391C68
:10B15000201CFFF7C1FF002D05DDA3680199D81958
:10B160002A1CFDF745F8E368201CED182368AE1B88
:10B17000E6601B6F0099019A98470130FEBDF8B553
:10B180000668041C808F171C0D1C02F0F3FF011CC5
:10B19000381C02F0D7FC002102F066F902F02EF90B
:10B1A000F36A82B2291C201C9847F8BD70B5066866
:10B1B0000D1C041C0549101C02F0D2FA02F01EF905
:10B1C000F36A82B2291C201C984770BD8BE1EA37D4
:10B1D00008B500F043FB08BD38B5041C0D1CFFF793
:10B1E00057F80B492A1C0431201C062300F09EFB53
:10B1F000201C084B203018332360FEF701FF00238A
:10B20000201CA387044900F0CBFA201C38BDC0469F
:10B21000F0000200380002008BE1EA3710B5041C90
:10B220008163081C034902F09BFA02F0E7F8A0874B
:10B2300010BDC0468BE1EA37F8B5051C0E1C141C86
:10B24000002901D1136801E0164B183300222B604E
:10B25000964201D1183B1A68AA18002E01D16369E1
:10B2600001E0104B18332F1C203713600121381CCC
:10B270000022FEF739FF381CFEF762FF211D002E69
:10B2800001D009490431281C00F0C4FBB30702D5E2
:10B29000281CFEF7F6FFF30702D5281CFBF76EFA11
:10B2A000281CF8BD38000200F000020008B5022199
:10B2B0000022FFF7C1FF08BD10B5041CFFF7F6FF21
:10B2C000201CFBF75BFA201C10BD70B5051C2E1C62
:10B2D000203600F0A3FA301CFEF76EFE041E0ED0DE
:10B2E000211C301CFEF74AFE031C5B6804309B697E
:10B2F00000219847301C211CFEF762FEEEE7E8872C
:10B3000070BD70B520300E1C051CFEF755FE041EE6
:10B310000BD0281C211CFEF731FE037AB34204D067
:10B32000281C211CFEF74CFEF1E770BD08B5FFF7A5
:10B33000E8FF002801D00023038008BD70B5061C7B
:10B34000002243682036FC33051C5A64301CFEF78B
:10B3500033FE041E18D0301C211CFEF70FFE0028FF
:10B360000DD003880430002B05D0EA8F9A4202D812
:10B3700001210A1C01E000210122FEF78FFF301C91
:10B38000211CFEF71DFEE4E7EB8FAA8F01339342E9
:10B3900000DA9CB2EC8770BDF7B50C1C00900192EE
:10B3A000FFF7AFFF051E19D10C20FBF7DFF9071DD2
:10B3B000061C381CFFF706F8E1B2381CFEF7F0FF58
:10B3C000381C291C0122FEF769FF6B4600989B88F8
:10B3D000311C33802030FEF744FE02E06B469B8830
:10B3E0000380F7BD40DF70470120704701207047A0
:10B3F0007047000010B5036802491C694822002309
:10B40000A04710BD0801020040684000C00F70470F
:10B41000006908B5002801D0FCF774FD08BD0000E4
:10B4200010B5041C024B0360FEF72BFF201C10BD5F
:10B4300068010200006908B5002801D0FCF762FB32
:10B4400008BD08B50369181E04D0FCF749FB431E6C
:10B450009841C0B208BD08B50069FCF7EFFA08BD15
:10B4600008B50069FCF7DAFAC0B208BD37B5041CAC
:10B47000134805681348854204D013480588002006
:10B48000022D1CD880206568400528436060206933
:10B4900000280FD10093231C1033019392B20B4864
:10B4A000231CFCF7A1F9012804D1074A13880133B2
:10B4B000138004E000206268054B134063603EBDCA
:10B4C000FC5F010027106919003A00201DB501003A
:10B4D000FFFFFFEF13B50190002814D0FCF7D2FD59
:10B4E000FCF7A6FE019CFCF7EDFD844208D1012289
:10B4F000084B01A918685242002301F0C9FA02E082
:10B500000198FCF743FA044A1388002B01D0013B51
:10B51000138013BDFC390020003A002038B5802389
:10B520004268DB05134343608368041C0569002BF4
:10B5300002D0E168984702E003681B6B98478023BC
:10B5400061680B4A9B050A4062600B400BD1002AE0
:10B5500005DB23616360281CFFF7BCFF03E0236861
:10B56000201CDB689847281CFCF7CCFC38BDC04683
:10B57000FFFFFFAF38B5041C0D1E01D1136801E0B9
:10B580001C4B1833002123608D4201D1183B1968F0
:10B590006118002D01D1536801E0164B18330B6080
:10B5A0008021636889055A000AD40B4363602069CF
:10B5B000FFF790FFAB0716D5201CFEF762FE12E0E6
:10B5C0000D4A13400B4363606368DB00EFD5201C1A
:10B5D000FFF737FF002802D0201CFFF72BFF322097
:10B5E000FBF7ECFAF0E7EB0702D5201CFBF7C6F8F7
:10B5F000201C38BD10010200FFFFFFBF08B502216B
:10B600000022FFF7B7FF08BD10B5041CFFF7F6FFD7
:10B61000201CFBF7B3F8201C10BD704707B5FFF7DF
:10B62000E1FE114B1868002806D0002201A9131C66
:10B6300001F0DDFA012812D0A223A022DB00D205FE
:10B64000D3580A48DB0707D400F088F8084B984223
:10B6500009D900F08DFE06E000F07AF803E00198C9
:10B66000FCF794F9E8E707BDFC390020043A002014
:10B670008813000070B5041C0E1C151CFEF708FE94
:10B680000F4BA6601833236000230E4EE56035682B
:10B69000636023619D4207D104202A1C011C01F034
:10B6A000CDF9094B30601D80201CFBF78BFA002878
:10B6B00004D1802362681B0613436360201C70BDA5
:10B6C00010010200FC390020003A002010B5041CD3
:10B6D000FFF7A6FE201CFBF751F8201C10BD000050
:10B6E00010B5054C201C00F04DF8201C0349044AFD
:10B6F000FBF748F810BDC046043A002021B4010011
:10B700001420002038B50568041C081C044902F008
:10B7100019FA01F073FE6B69011C201C984738BDB3
:10B7200000007A44036810B5DB690C1C984784421A
:10B730008041404210BD000008B50368DB699847AE
:10B7400002F018FD014902F00BF808BD00007A4430
:10B7500010B5041CFCF734FA606010BD10B5041C71
:10B76000FCF72EFA6268031C801A934204D800206A
:10B77000934201D29B1A581E10BD08B50430FCF745
:10B7800013FB08BD10B5041CFEF782FD034B201C03
:10B7900008332360FFF7DCFF201C10BD60010200AE
:10B7A000F7B50191051C007D02F0E4FCFE240026A3
:10B7B000071CA405301C02F095FC391C01F0F6FDB5
:10B7C000002806D0201C211C01F04EFE0136041C6E
:10B7D000F0E7211C0F4801F0C3FF011C019802F0A3
:10B7E000B1F903F0E1FC0022A861E9610A4B03F022
:10B7F000BDF801F01BFEA8236C68DB00E05080223E
:10B80000C12352029B00E2500122053BFF3BE25064
:10B81000F7BDC0460024744B0000F03F012243688E
:10B820005A60DA60094A934205D0094A934206D128
:10B830008022D20001E080229200064BDA670821C4
:10B84000054A13688B4313607047C0460090004060
:10B8500000A0004004E100E0343B002010B5041CCF
:10B86000FCF778FD6368144A93420CD0134A934264
:10B8700016D1C221124B89005858124A02405A5020
:10B880008022D20008E0C2210D4B890058580E4A90
:10B8900002405A50802292008939FF395A501A606A
:10B8A000FCF764FD0122082163681A60074A1368E7
:10B8B0000B43136010BDC0460090004000A0004044
:10B8C00000E100E0FFFF00FFFF00FFFF343B00202E
:10B8D00008B5FCF73FFD054B1868002802D0036847
:10B8E0001B6A9847FCF742FD08BDC0460C3A002091
:10B8F00008B5FCF72FFD054B1868002802D0036837
:10B900001B6A9847FCF732FD08BDC046103A00207C
:10B9100008B54368FC335A6C002A05D00022083071
:10B920005A640121FEF76CFE08BD0000F8B50D1C3D
:10B93000041C0431161C1F1C01F0C7FA2B6823607D
:10B94000EA68251C183B1B680835E250281CFEF7E6
:10B950007BFE002E05D0012E07D10D4B1C600D4B38
:10B9600002E00D4B1C600D4B6360012200216368F7
:10B970000B4827755A601950267D0C301E50083828
:10B980001950281CDA60FEF7C4FD201CF8BDC04623
:10B99000103A002000A000400C3A00200090004027
:10B9A0000405000070B5041C0E1C151C002901D1F3
:10B9B000136801E0154B183300222360964201D131
:10B9C000183B1A68A218002E01D1EB6801E00F4B5A
:10B9D00018331360201CFFF721FF201C0830FEF7EE
:10B9E000A9FD291D002E01D009490431201C01F0B8
:10B9F000A6FAB30702D5201CFEF743FCF30702D5D5
:10BA0000201CFAF7BBFE201C70BDC046C801020016
:10BA1000B801020008B50A1C0021FFF7C3FF08BDEA
:10BA200008B502210022FFF7BDFF08BD10B5041CB8
:10BA3000FFF7F6FF201CFAF7A1FE201C10BD08B589
:10BA40000830FEF7ADFD08BD08B500F0C3FA08BD2B
:10BA500008B500F0E3FA08BD08B500F01BFB08BD0F
:10BA600010B5041C024B0360FEF70BFC201C10BD3C
:10BA70001002020010B5041CFFF7F2FF201CFAF7B9
:10BA80007DFE201C10BD0000F8B5041C0F1CFEF745
:10BA9000FFFB201C0F4B002108C01022FCF7B8FB55
:10BAA0000F2500263878002812D0002D10DB00F07A
:10BAB000DFF900280ADB621913791B0118431071A2
:10BAC000012E02D1013D002600E001260137E9E701
:10BAD000201CF8BD10020200F0B58FB00090029259
